{"contracts/PredictionDAO.sol":{"PredictionDAO":{"abi":[{"inputs":[],"stateMutability":"nonpayable","type":"constructor"},{"inputs":[{"internalType":"address","name":"owner","type":"address"}],"name":"OwnableInvalidOwner","type":"error"},{"inputs":[{"internalType":"address","name":"account","type":"address"}],"name":"OwnableUnauthorizedAccount","type":"error"},{"inputs":[],"name":"ReentrancyGuardReentrantCall","type":"error"},{"anonymous":false,"inputs":[{"indexed":true,"internalType":"address","name":"member","type":"address"}],"name":"MemberAdded","type":"event"},{"anonymous":false,"inputs":[{"indexed":true,"internalType":"address","name":"member","type":"address"}],"name":"MemberRemoved","type":"event"},{"anonymous":false,"inputs":[{"indexed":true,"internalType":"address","name":"previousOwner","type":"address"},{"indexed":true,"internalType":"address","name":"newOwner","type":"address"}],"name":"OwnershipTransferred","type":"event"},{"anonymous":false,"inputs":[{"indexed":true,"internalType":"uint256","name":"predictionId","type":"uint256"},{"indexed":false,"internalType":"uint256","name":"yesVotes","type":"uint256"},{"indexed":false,"internalType":"uint256","name":"totalVotes","type":"uint256"}],"name":"PredictionApproved","type":"event"},{"anonymous":false,"inputs":[{"indexed":true,"internalType":"uint256","name":"predictionId","type":"uint256"},{"indexed":true,"internalType":"address","name":"creator","type":"address"},{"indexed":false,"internalType":"string","name":"title","type":"string"}],"name":"PredictionCreated","type":"event"},{"anonymous":false,"inputs":[{"indexed":true,"internalType":"uint256","name":"predictionId","type":"uint256"},{"indexed":true,"internalType":"address","name":"voter","type":"address"},{"indexed":false,"internalType":"bool","name":"support","type":"bool"}],"name":"VoteCast","type":"event"},{"inputs":[],"name":"MAX_VOTING_PERIOD","outputs":[{"internalType":"uint256","name":"","type":"uint256"}],"stateMutability":"view","type":"function"},{"inputs":[],"name":"MIN_VOTING_PERIOD","outputs":[{"internalType":"uint256","name":"","type":"uint256"}],"stateMutability":"view","type":"function"},{"inputs":[],"name":"VOTING_THRESHOLD","outputs":[{"internalType":"uint256","name":"","type":"uint256"}],"stateMutability":"view","type":"function"},{"inputs":[{"internalType":"address","name":"_member","type":"address"}],"name":"addMember","outputs":[],"stateMutability":"nonpayable","type":"function"},{"inputs":[{"internalType":"string","name":"_title","type":"string"},{"internalType":"string","name":"_description","type":"string"},{"internalType":"string","name":"_category","type":"string"},{"internalType":"uint256","name":"_votingPeriod","type":"uint256"}],"name":"createPrediction","outputs":[{"internalType":"uint256","name":"","type":"uint256"}],"stateMutability":"nonpayable","type":"function"},{"inputs":[{"internalType":"uint256","name":"_predictionId","type":"uint256"}],"name":"finalizePrediction","outputs":[],"stateMutability":"nonpayable","type":"function"},{"inputs":[],"name":"getActivePredictions","outputs":[{"components":[{"internalType":"uint256","name":"id","type":"uint256"},{"internalType":"address","name":"creator","type":"address"},{"internalType":"string","name":"title","type":"string"},{"internalType":"string","name":"description","type":"string"},{"internalType":"string","name":"category","type":"string"},{"internalType":"uint256","name":"endTime","type":"uint256"},{"internalType":"bool","name":"isActive","type":"bool"},{"internalType":"bool","name":"isApproved","type":"bool"},{"internalType":"uint256","name":"totalVotes","type":"uint256"},{"internalType":"uint256","name":"yesVotes","type":"uint256"},{"internalType":"uint256","name":"noVotes","type":"uint256"},{"internalType":"uint256","name":"createdAt","type":"uint256"}],"internalType":"struct PredictionDAO.Prediction[]","name":"","type":"tuple[]"}],"stateMutability":"view","type":"function"},{"inputs":[],"name":"getApprovedPredictions","outputs":[{"components":[{"internalType":"uint256","name":"id","type":"uint256"},{"internalType":"address","name":"creator","type":"address"},{"internalType":"string","name":"title","type":"string"},{"internalType":"string","name":"description","type":"string"},{"internalType":"string","name":"category","type":"string"},{"internalType":"uint256","name":"endTime","type":"uint256"},{"internalType":"bool","name":"isActive","type":"bool"},{"internalType":"bool","name":"isApproved","type":"bool"},{"internalType":"uint256","name":"totalVotes","type":"uint256"},{"internalType":"uint256","name":"yesVotes","type":"uint256"},{"internalType":"uint256","name":"noVotes","type":"uint256"},{"internalType":"uint256","name":"createdAt","type":"uint256"}],"internalType":"struct PredictionDAO.Prediction[]","name":"","type":"tuple[]"}],"stateMutability":"view","type":"function"},{"inputs":[{"internalType":"uint256","name":"_predictionId","type":"uint256"}],"name":"getPrediction","outputs":[{"components":[{"internalType":"uint256","name":"id","type":"uint256"},{"internalType":"address","name":"creator","type":"address"},{"internalType":"string","name":"title","type":"string"},{"internalType":"string","name":"description","type":"string"},{"internalType":"string","name":"category","type":"string"},{"internalType":"uint256","name":"endTime","type":"uint256"},{"internalType":"bool","name":"isActive","type":"bool"},{"internalType":"bool","name":"isApproved","type":"bool"},{"internalType":"uint256","name":"totalVotes","type":"uint256"},{"internalType":"uint256","name":"yesVotes","type":"uint256"},{"internalType":"uint256","name":"noVotes","type":"uint256"},{"internalType":"uint256","name":"createdAt","type":"uint256"}],"internalType":"struct PredictionDAO.Prediction","name":"","type":"tuple"}],"stateMutability":"view","type":"function"},{"inputs":[],"name":"getPredictionCount","outputs":[{"internalType":"uint256","name":"","type":"uint256"}],"stateMutability":"view","type":"function"},{"inputs":[{"internalType":"uint256","name":"_predictionId","type":"uint256"}],"name":"getPredictionVotes","outputs":[{"components":[{"internalType":"address","name":"voter","type":"address"},{"internalType":"bool","name":"support","type":"bool"},{"internalType":"uint256","name":"timestamp","type":"uint256"}],"internalType":"struct PredictionDAO.Vote[]","name":"","type":"tuple[]"}],"stateMutability":"view","type":"function"},{"inputs":[{"internalType":"uint256","name":"_predictionId","type":"uint256"}],"name":"getVotingStats","outputs":[{"internalType":"uint256","name":"yesVotes","type":"uint256"},{"internalType":"uint256","name":"noVotes","type":"uint256"},{"internalType":"uint256","name":"totalVotes","type":"uint256"},{"internalType":"uint256","name":"approvalPercentage","type":"uint256"}],"stateMutability":"view","type":"function"},{"inputs":[{"internalType":"uint256","name":"_predictionId","type":"uint256"},{"internalType":"address","name":"_user","type":"address"}],"name":"hasUserVoted","outputs":[{"internalType":"bool","name":"","type":"bool"}],"stateMutability":"view","type":"function"},{"inputs":[{"internalType":"uint256","name":"","type":"uint256"},{"internalType":"address","name":"","type":"address"}],"name":"hasVoted","outputs":[{"internalType":"bool","name":"","type":"bool"}],"stateMutability":"view","type":"function"},{"inputs":[{"internalType":"address","name":"","type":"address"}],"name":"isMember","outputs":[{"internalType":"bool","name":"","type":"bool"}],"stateMutability":"view","type":"function"},{"inputs":[],"name":"nextPredictionId","outputs":[{"internalType":"uint256","name":"","type":"uint256"}],"stateMutability":"view","type":"function"},{"inputs":[],"name":"owner","outputs":[{"internalType":"address","name":"","type":"address"}],"stateMutability":"view","type":"function"},{"inputs":[{"internalType":"uint256","name":"","type":"uint256"}],"name":"predictions","outputs":[{"internalType":"uint256","name":"id","type":"uint256"},{"internalType":"address","name":"creator","type":"address"},{"internalType":"string","name":"title","type":"string"},{"internalType":"string","name":"description","type":"string"},{"internalType":"string","name":"category","type":"string"},{"internalType":"uint256","name":"endTime","type":"uint256"},{"internalType":"bool","name":"isActive","type":"bool"},{"internalType":"bool","name":"isApproved","type":"bool"},{"internalType":"uint256","name":"totalVotes","type":"uint256"},{"internalType":"uint256","name":"yesVotes","type":"uint256"},{"internalType":"uint256","name":"noVotes","type":"uint256"},{"internalType":"uint256","name":"createdAt","type":"uint256"}],"stateMutability":"view","type":"function"},{"inputs":[{"internalType":"address","name":"_member","type":"address"}],"name":"removeMember","outputs":[],"stateMutability":"nonpayable","type":"function"},{"inputs":[],"name":"renounceOwnership","outputs":[],"stateMutability":"nonpayable","type":"function"},{"inputs":[{"internalType":"address","name":"newOwner","type":"address"}],"name":"transferOwnership","outputs":[],"stateMutability":"nonpayable","type":"function"},{"inputs":[{"internalType":"uint256","name":"_predictionId","type":"uint256"},{"internalType":"bool","name":"_support","type":"bool"}],"name":"vote","outputs":[],"stateMutability":"nonpayable","type":"function"},{"inputs":[{"internalType":"uint256","name":"","type":"uint256"},{"internalType":"uint256","name":"","type":"uint256"}],"name":"votes","outputs":[{"internalType":"address","name":"voter","type":"address"},{"internalType":"bool","name":"support","type":"bool"},{"internalType":"uint256","name":"timestamp","type":"uint256"}],"stateMutability":"view","type":"function"}],"evm":{"bytecode":{"linkReferences":{},"object":"6080806040523461009a5733156100845760008054336001600160a01b0319821681178355604080519390929091906001600160a01b03167f8be0079c531659141344cd1fd0a4f28419497f9722a3daafe3b4186f6b6457e08380a3600180556001600255338152600660205220600160ff19825416179055611e0190816100a08239f35b631e4fbdf760e01b815260006004820152602490fd5b600080fdfe6080604052600436101561001257600080fd5b60003560e01c80624fbbb01461169c57806301668096146116715780630b1ca49a1461156c578063215809ca1461154e578063438596321461150157806354bc823d146113715780636d2b7d9614610ce3578063715018a614610c8a5780638da5cb5b14610c6157806394abb8cd14610c45578063a230c52414610c06578063a33903e714610af9578063a64e024a14610adb578063a9d6921b14610923578063af96f37b1461086f578063c6e36a321461080b578063c9d27afe1461054f578063ca6d56dc1461048c578063d8d9292e1461046e578063dc296ae114610403578063e58d4527146102b5578063f2fde38b146102275763fe83bece1461011857600080fd5b3461022257602036600319011261022257600435610134611ce4565b5080151580610217575b61014790611b9d565b60005260036020526102136040600020600a60405191610166836117ce565b8054835260018101546001600160a01b0316602084015261018960028201611829565b604084015261019a60038201611829565b60608401526101ab60048201611829565b6080840152600581015460a084015260ff6006820154818116151560c086015260081c16151560e0840152600781015461010084015260088101546101208401526009810154610140840152015461016082015260405191829160208352602083019061193b565b0390f35b50600254811061013e565b600080fd5b346102225760203660031901126102225761024061190f565b610248611ad1565b6001600160a01b0390811690811561029c57600054826bffffffffffffffffffffffff60a01b821617600055167f8be0079c531659141344cd1fd0a4f28419497f9722a3daafe3b4186f6b6457e0600080a3005b604051631e4fbdf760e01b815260006004820152602490fd5b3461022257602036600319011261022257600435801515806103f8575b6102db90611b9d565b600052600360205260406000206040516102f4816117ce565b8154815260018201546001600160a01b0316602082015261031760028301611829565b604082015261032860038301611829565b606082015261033960048301611829565b6080820152600582015460a082015260ff6006830154818116151560c084015260081c16151560e08201526007820154918261010083015260088101549182610120820152610160600a6009840154938461014085015201549101528215156000146103ed576064820292828404606414831517156103d7576103be81608095611c2d565b915b604051938452602084015260408301526060820152f35b634e487b7160e01b600052601160045260246000fd5b6080926000916103c0565b5060025481106102d2565b346102225760403660031901126102225760043561041f611925565b9080151580610463575b61043290611b9d565b600052600460205260406000209060018060a01b0316600052602052602060ff604060002054166040519015158152f35b506002548110610429565b34610222576000366003190112610222576020600254604051908152f35b34610222576020366003190112610222576104a561190f565b6104ad611ad1565b6001600160a01b03166104c1811515611afd565b80600052600660205260ff60406000205416610517578060005260066020526040600020600160ff198254161790557fb251eb052afc73ffd02ffe85ad79990a8b3fed60d76dbc2fa2fdd7123dffd914600080a2005b60405162461bcd60e51b815260206004820152601060248201526f20b63932b0b23c90309036b2b6b132b960811b6044820152606490fd5b34610222576040366003190112610222576024803560043581151580830361022257336000526020936006855260ff6040600020541680156107f7575b61059590611b3b565b821515806107ec575b6105a790611b9d565b6105af611b7a565b826000526003855260406000206105cc60ff600683015416611be1565b600581015442116107a8578360005260048652604060002033600052865260ff6040600020541661077457836000526004865260406000203360005286526040600020946001958660ff198254161790556007820180549087820180921161075f5755156107495760080180549085820180921161073457555b8260005260058552604060002060405161065f816117eb565b3381528681019084825260408101924284528054906801000000000000000082101561071f5790610694918982018155611a9f565b94909461070b575051835491516001600160a81b03199092166001600160a01b03919091161790151560a01b60ff60a01b161782555190840155604051908152919261070792339183917fe71fcdac32df1877c1700e7bda2a03157e20993363a28fc35ac495cefc76e4d49190a3611c4d565b8055005b634e487b7160e01b60005260006004526000fd5b85634e487b7160e01b60005260416004526000fd5b82634e487b7160e01b60005260116004526000fd5b6009018054908582018092116107345755610646565b84634e487b7160e01b60005260116004526000fd5b60405162461bcd60e51b815260048101879052600d818401526c105b1c9958591e481d9bdd1959609a1b6044820152606490fd5b60405162461bcd60e51b8152600481018790526017818401527f566f74696e6720706572696f642068617320656e6465640000000000000000006044820152606490fd5b50600254831061059e565b506000546001600160a01b0316331461058c565b34610222576040366003190112610222576024356004356000526005602052604060002080548210156102225760609161084491611a9f565b506001815491015460ff6040519260018060a01b038116845260a01c16151560208301526040820152f35b346102225760203660031901126102225760043580151580610918575b61089590611b9d565b8060005260036020526040600020906006820160058154936108b960ff8616611be1565b01544211156108d3576108d19260ff19169055611c4d565b005b60405162461bcd60e51b815260206004820152601760248201527f566f74696e6720706572696f64206e6f7420656e6465640000000000000000006044820152606490fd5b50600254811061088c565b346102225760003660031901126102225760028054600060015b828110610a89575061094e90611d67565b9060009260015b82811061096a576040518061021386826119e6565b80600052600360209080825260406000209060068201549060ff9081831690818092610a7b575b6109aa575b5050505050506109a590611d58565b610955565b906109f1600a9594939260409c989c51976109c4896117ce565b8654895260018701546001600160a01b0316908901526109e58a8701611829565b60408901528501611829565b6060870152610a0260048501611829565b6080870152600584015460a0870152151560c0860152600891821c16151560e0850152600782015461010085015281015461012084015260098101546101408401520154610160820152610a568286611db7565b52610a618185611db7565b50600181018091116103d757936109a58680808080610996565b506005850154421115610991565b806000526003602052604060002060ff6006820154169081610acc575b50610aba575b610ab590611d58565b61093d565b90600181018091116103d75790610aac565b60059150015442111585610aa6565b3461022257600036600319011261022257602060405162093a808152f35b34610222576020806003193601126102225760043580151580610bfb575b610b2090611b9d565b600052600581526040600020908154610b3881611d40565b90610b466040519283611807565b8082528282018094600052836000206000915b838310610bba5760408051878152865181890181905289928201908960005b828110610b855784840385f35b855180516001600160a01b03168552808301511515858401526040908101519085015294810194606090930192600101610b78565b600286600192604051610bcc816117eb565b60ff8654868060a01b038116835260a01c16151583820152848601546040820152815201920192019190610b59565b506002548110610b17565b34610222576020366003190112610222576001600160a01b03610c2761190f565b166000526006602052602060ff604060002054166040519015158152f35b3461022257600036600319011261022257602060405160468152f35b34610222576000366003190112610222576000546040516001600160a01b039091168152602090f35b3461022257600036600319011261022257610ca3611ad1565b600080546001600160a01b0319811682556001600160a01b03167f8be0079c531659141344cd1fd0a4f28419497f9722a3daafe3b4186f6b6457e08280a3005b346102225760803660031901126102225760043567ffffffffffffffff811161022257610d14903690600401611a48565b60243567ffffffffffffffff811161022257610d34903690600401611a48565b9060443567ffffffffffffffff811161022257610d55903690600401611a48565b9060643533600052600660205260ff60406000205416801561135d575b610d7b90611b3b565b610d83611b7a565b815115611320578351156112db5762015180811015806112ce575b156112915760025492600184018085116103d75760025581420142116103d75760405194610dcb866117ce565b84865233602087015283604087015260608601526080850152420160a0840152600160c0840152600060e0840152600061010084015260006101208401526000610140840152426101608401528160005260036020526040600020835181556001810160018060a01b036020860151166bffffffffffffffffffffffff60a01b825416179055604084015180519067ffffffffffffffff82116110db578190610e776002850154611794565b601f811161123e575b50602090601f83116001146111cc576000926111c1575b50508160011b916000199060031b1c19161760028201555b606084015180519067ffffffffffffffff82116110db578190610ed56003850154611794565b601f811161116e575b50602090601f83116001146110fc576000926110f1575b50508160011b916000199060031b1c19161760038201555b608084015193845167ffffffffffffffff81116110db57610f316004840154611794565b95601f8711611094575b602096508690601f8311600114611020579180600a949261016094600092611015575b50508160011b916000199060031b1c19161760048501555b60a081015160058501556006840160c08201511515815460ff61ff0060e0860151151560081b1692169061ffff1916171790556101008101516007850155610120810151600885015561014081015160098501550151910155817fb27f720af6461d0be27747a73bac3d718715b46e346e9731759e215e8a17d9a1604051858152806110063395888301906118cf565b0390a360018055604051908152f35b015190508980610f5e565b9060048501600052876000209160005b601f198516811061107d575092600a94926001926101609583601f19811610611064575b505050811b016004850155610f76565b015160001960f88460031b161c19169055898080611054565b919289600181928685015181550194019201611030565b600484016000526020600020601f830160051c8101602084106110d4575b601f890160051c820181106110c8575050610f3b565b600081556001016110b2565b50806110b2565b634e487b7160e01b600052604160045260246000fd5b015190508680610ef5565b9250600384016000526020600020906000935b601f1984168510611153576001945083601f1981161061113a575b505050811b016003820155610f0d565b015160001960f88460031b161c1916905586808061112a565b8181015183556020948501946001909301929091019061110f565b909150600384016000526020600020601f840160051c8101602085106111ba575b90849392915b601f830160051c820181106111ab575050610ede565b60008155859450600101611195565b508061118f565b015190508680610e97565b9250600284016000526020600020906000935b601f1984168510611223576001945083601f1981161061120a575b505050811b016002820155610eaf565b015160001960f88460031b161c191690558680806111fa565b818101518355602094850194600190930192909101906111df565b909150600284016000526020600020601f840160051c81016020851061128a575b90849392915b601f830160051c8201811061127b575050610e80565b60008155859450600101611265565b508061125f565b60405162461bcd60e51b8152602060048201526015602482015274125b9d985b1a59081d9bdd1a5b99c81c195c9a5bd9605a1b6044820152606490fd5b5062093a80811115610d9e565b60405162461bcd60e51b815260206004820152601b60248201527f4465736372697074696f6e2063616e6e6f7420626520656d70747900000000006044820152606490fd5b60405162461bcd60e51b81526020600482015260156024820152745469746c652063616e6e6f7420626520656d70747960581b6044820152606490fd5b506000546001600160a01b03163314610d72565b346102225760003660031901126102225760028054600060015b8281106114c4575061139c90611d67565b9060009260015b8281106113b8576040518061021386826119e6565b80600052600360209080825260406000209060068201549060ff6008928181851c1692836113f6575b505050505050506113f190611d58565b6113a3565b9061143e600a969594939260409d999d51986114118a6117ce565b87548a5260018801546001600160a01b0316908a01526114328b8801611829565b60408a01528601611829565b606088015261144f60048601611829565b6080880152600585015460a088015216151560c0860152151560e085015260078201546101008501528101546101208401526009810154610140840152015461016082015261149e8286611db7565b526114a98185611db7565b50600181018091116103d757936113f18680808080806113e1565b80600052600360205260ff60066040600020015460081c166114ef575b6114ea90611d58565b61138b565b90600181018091116103d757906114e1565b346102225760403660031901126102225761151a611925565b600435600052600460205260406000209060018060a01b0316600052602052602060ff604060002054166040519015158152f35b34610222576000366003190112610222576020604051620151808152f35b346102225760203660031901126102225761158561190f565b61158d611ad1565b6001600160a01b03908116906115a4821515611afd565b81600052600660205260ff604060002054161561163d5760005416811461160257806000526006602052604060002060ff1981541690557f6e76fb4c77256006d9c38ec7d82b45a8c8f3c27b1d6766fffc42dfb8de684492600080a2005b60405162461bcd60e51b815260206004820152601360248201527221b0b73737ba103932b6b7bb329037bbb732b960691b6044820152606490fd5b60405162461bcd60e51b815260206004820152600c60248201526b2737ba10309036b2b6b132b960a11b6044820152606490fd5b346102225760003660031901126102225760025460001981019081116103d757602090604051908152f35b34610222576020366003190112610222576004356000908152600360205260409020805460018201546001600160a01b0316916116db60028201611829565b6116e760038301611829565b916116f460048201611829565b926005820154936006830154600784015491600885015493600986015495600a0154966040519a8b9a8b5260208b01526101808060408c01528a01611738916118cf565b89810360608b0152611749916118cf565b88810360808a015261175a916118cf565b9560a088015260ff8116151560c088015260081c60ff16151560e08701526101008601526101208501526101408401526101608301520390f35b90600182811c921680156117c4575b60208310146117ae57565b634e487b7160e01b600052602260045260246000fd5b91607f16916117a3565b610180810190811067ffffffffffffffff8211176110db57604052565b6060810190811067ffffffffffffffff8211176110db57604052565b90601f8019910116810190811067ffffffffffffffff8211176110db57604052565b906040519182600082549261183d84611794565b9081845260019485811690816000146118ac5750600114611869575b505061186792500383611807565b565b9093915060005260209081600020936000915b81831061189457505061186793508201013880611859565b8554888401850152948501948794509183019161187c565b91505061186794506020925060ff191682840152151560051b8201013880611859565b919082519283825260005b8481106118fb575050826000602080949584010152601f8019910116010190565b6020818301810151848301820152016118da565b600435906001600160a01b038216820361022257565b602435906001600160a01b038216820361022257565b908151815260018060a01b03602083015116602082015261199561198361197160408501516101808060408701528501906118cf565b606085015184820360608601526118cf565b608084015183820360808501526118cf565b9160a081015160a083015260c0810151151560c083015260e0810151151560e08301526101008082015190830152610120808201519083015261014080820151908301526101608091015191015290565b602080820190808352835180925260408301928160408460051b8301019501936000915b848310611a1a5750505050505090565b9091929394958480611a38600193603f198682030187528a5161193b565b9801930193019194939290611a0a565b81601f820112156102225780359067ffffffffffffffff82116110db5760405192611a7d601f8401601f191660200185611807565b8284526020838301011161022257816000926020809301838601378301015290565b8054821015611abb5760005260206000209060011b0190600090565b634e487b7160e01b600052603260045260246000fd5b6000546001600160a01b03163303611ae557565b60405163118cdaa760e01b8152336004820152602490fd5b15611b0457565b60405162461bcd60e51b815260206004820152600f60248201526e496e76616c6964206164647265737360881b6044820152606490fd5b15611b4257565b60405162461bcd60e51b815260206004820152601060248201526f2737ba1030902220a79036b2b6b132b960811b6044820152606490fd5b600260015414611b8b576002600155565b604051633ee5aeb560e01b8152600490fd5b15611ba457565b60405162461bcd60e51b8152602060048201526015602482015274125b9d985b1a59081c1c99591a58dd1a5bdb881251605a1b6044820152606490fd5b15611be857565b60405162461bcd60e51b815260206004820152601860248201527f50726564696374696f6e206973206e6f742061637469766500000000000000006044820152606490fd5b8115611c37570490565b634e487b7160e01b600052601260045260246000fd5b806000526003602052604060002060078101549081611c6b57505050565b600881015460648102818104606414821517156103d757611c8e84604692611c2d565b1015611c9b575b50505050565b7fff2bf007ea94c88312b7aa52f9c827197917a6fd36abce6d4b727a14840fed6c9260066040930161010061ffff1982541617905582519182526020820152a238808080611c95565b60405190611cf1826117ce565b8161016060009182815282602082015260606040820152606080820152606060808201528260a08201528260c08201528260e08201528261010082015282610120820152826101408201520152565b67ffffffffffffffff81116110db5760051b60200190565b60001981146103d75760010190565b90611d7182611d40565b611d7e6040519182611807565b8281528092611d8f601f1991611d40565b019060005b828110611da057505050565b602090611dab611ce4565b82828501015201611d94565b8051821015611abb5760209160051b01019056fea26469706673582212204687bdcb23d3a8fa0fb0a77d9f35a996657c8d00ea716df9097d1b344688473f64736f6c63430008140033","opcodes":"PUSH1 0x80 DUP1 PUSH1 0x40 MSTORE CALLVALUE PUSH2 0x9A JUMPI CALLER ISZERO PUSH2 0x84 JUMPI PUSH1 0x0 DUP1 SLOAD CALLER PUSH1 0x1 PUSH1 0x1 PUSH1 0xA0 SHL SUB NOT DUP3 AND DUP2 OR DUP4 SSTORE PUSH1 0x40 DUP1 MLOAD SWAP4 SWAP1 SWAP3 SWAP1 SWAP2 SWAP1 PUSH1 0x1 PUSH1 0x1 PUSH1 0xA0 SHL SUB AND PUSH32 0x8BE0079C531659141344CD1FD0A4F28419497F9722A3DAAFE3B4186F6B6457E0 DUP4 DUP1 LOG3 PUSH1 0x1 DUP1 SSTORE PUSH1 0x1 PUSH1 0x2 SSTORE CALLER DUP2 MSTORE PUSH1 0x6 PUSH1 0x20 MSTORE KECCAK256 PUSH1 0x1 PUSH1 0xFF NOT DUP3 SLOAD AND OR SWAP1 SSTORE PUSH2 0x1E01 SWAP1 DUP2 PUSH2 0xA0 DUP3 CODECOPY RETURN JUMPDEST PUSH4 0x1E4FBDF7 PUSH1 0xE0 SHL DUP2 MSTORE PUSH1 0x0 PUSH1 0x4 DUP3 ADD MSTORE PUSH1 0x24 SWAP1 REVERT JUMPDEST PUSH1 0x0 DUP1 REVERT INVALID PUSH1 0x80 PUSH1 0x40 MSTORE PUSH1 0x4 CALLDATASIZE LT ISZERO PUSH2 0x12 JUMPI PUSH1 0x0 DUP1 REVERT JUMPDEST PUSH1 0x0 CALLDATALOAD PUSH1 0xE0 SHR DUP1 PUSH3 0x4FBBB0 EQ PUSH2 0x169C JUMPI DUP1 PUSH4 0x1668096 EQ PUSH2 0x1671 JUMPI DUP1 PUSH4 0xB1CA49A EQ PUSH2 0x156C JUMPI DUP1 PUSH4 0x215809CA EQ PUSH2 0x154E JUMPI DUP1 PUSH4 0x43859632 EQ PUSH2 0x1501 JUMPI DUP1 PUSH4 0x54BC823D EQ PUSH2 0x1371 JUMPI DUP1 PUSH4 0x6D2B7D96 EQ PUSH2 0xCE3 JUMPI DUP1 PUSH4 0x715018A6 EQ PUSH2 0xC8A JUMPI DUP1 PUSH4 0x8DA5CB5B EQ PUSH2 0xC61 JUMPI DUP1 PUSH4 0x94ABB8CD EQ PUSH2 0xC45 JUMPI DUP1 PUSH4 0xA230C524 EQ PUSH2 0xC06 JUMPI DUP1 PUSH4 0xA33903E7 EQ PUSH2 0xAF9 JUMPI DUP1 PUSH4 0xA64E024A EQ PUSH2 0xADB JUMPI DUP1 PUSH4 0xA9D6921B EQ PUSH2 0x923 JUMPI DUP1 PUSH4 0xAF96F37B EQ PUSH2 0x86F JUMPI DUP1 PUSH4 0xC6E36A32 EQ PUSH2 0x80B JUMPI DUP1 PUSH4 0xC9D27AFE EQ PUSH2 0x54F JUMPI DUP1 PUSH4 0xCA6D56DC EQ PUSH2 0x48C JUMPI DUP1 PUSH4 0xD8D9292E EQ PUSH2 0x46E JUMPI DUP1 PUSH4 0xDC296AE1 EQ PUSH2 0x403 JUMPI DUP1 PUSH4 0xE58D4527 EQ PUSH2 0x2B5 JUMPI DUP1 PUSH4 0xF2FDE38B EQ PUSH2 0x227 JUMPI PUSH4 0xFE83BECE EQ PUSH2 0x118 JUMPI PUSH1 0x0 DUP1 REVERT JUMPDEST CALLVALUE PUSH2 0x222 JUMPI PUSH1 0x20 CALLDATASIZE PUSH1 0x3 NOT ADD SLT PUSH2 0x222 JUMPI PUSH1 0x4 CALLDATALOAD PUSH2 0x134 PUSH2 0x1CE4 JUMP JUMPDEST POP DUP1 ISZERO ISZERO DUP1 PUSH2 0x217 JUMPI JUMPDEST PUSH2 0x147 SWAP1 PUSH2 0x1B9D JUMP JUMPDEST PUSH1 0x0 MSTORE PUSH1 0x3 PUSH1 0x20 MSTORE PUSH2 0x213 PUSH1 0x40 PUSH1 0x0 KECCAK256 PUSH1 0xA PUSH1 0x40 MLOAD SWAP2 PUSH2 0x166 DUP4 PUSH2 0x17CE JUMP JUMPDEST DUP1 SLOAD DUP4 MSTORE PUSH1 0x1 DUP2 ADD SLOAD PUSH1 0x1 PUSH1 0x1 PUSH1 0xA0 SHL SUB AND PUSH1 0x20 DUP5 ADD MSTORE PUSH2 0x189 PUSH1 0x2 DUP3 ADD PUSH2 0x1829 JUMP JUMPDEST PUSH1 0x40 DUP5 ADD MSTORE PUSH2 0x19A PUSH1 0x3 DUP3 ADD PUSH2 0x1829 JUMP JUMPDEST PUSH1 0x60 DUP5 ADD MSTORE PUSH2 0x1AB PUSH1 0x4 DUP3 ADD PUSH2 0x1829 JUMP JUMPDEST PUSH1 0x80 DUP5 ADD MSTORE PUSH1 0x5 DUP2 ADD SLOAD PUSH1 0xA0 DUP5 ADD MSTORE PUSH1 0xFF PUSH1 0x6 DUP3 ADD SLOAD DUP2 DUP2 AND ISZERO ISZERO PUSH1 0xC0 DUP7 ADD MSTORE PUSH1 0x8 SHR AND ISZERO ISZERO PUSH1 0xE0 DUP5 ADD MSTORE PUSH1 0x7 DUP2 ADD SLOAD PUSH2 0x100 DUP5 ADD MSTORE PUSH1 0x8 DUP2 ADD SLOAD PUSH2 0x120 DUP5 ADD MSTORE PUSH1 0x9 DUP2 ADD SLOAD PUSH2 0x140 DUP5 ADD MSTORE ADD SLOAD PUSH2 0x160 DUP3 ADD MSTORE PUSH1 0x40 MLOAD SWAP2 DUP3 SWAP2 PUSH1 0x20 DUP4 MSTORE PUSH1 0x20 DUP4 ADD SWAP1 PUSH2 0x193B JUMP JUMPDEST SUB SWAP1 RETURN JUMPDEST POP PUSH1 0x2 SLOAD DUP2 LT PUSH2 0x13E JUMP JUMPDEST PUSH1 0x0 DUP1 REVERT JUMPDEST CALLVALUE PUSH2 0x222 JUMPI PUSH1 0x20 CALLDATASIZE PUSH1 0x3 NOT ADD SLT PUSH2 0x222 JUMPI PUSH2 0x240 PUSH2 0x190F JUMP JUMPDEST PUSH2 0x248 PUSH2 0x1AD1 JUMP JUMPDEST PUSH1 0x1 PUSH1 0x1 PUSH1 0xA0 SHL SUB SWAP1 DUP2 AND SWAP1 DUP2 ISZERO PUSH2 0x29C JUMPI PUSH1 0x0 SLOAD DUP3 PUSH12 0xFFFFFFFFFFFFFFFFFFFFFFFF PUSH1 0xA0 SHL DUP3 AND OR PUSH1 0x0 SSTORE AND PUSH32 0x8BE0079C531659141344CD1FD0A4F28419497F9722A3DAAFE3B4186F6B6457E0 PUSH1 0x0 DUP1 LOG3 STOP JUMPDEST PUSH1 0x40 MLOAD PUSH4 0x1E4FBDF7 PUSH1 0xE0 SHL DUP2 MSTORE PUSH1 0x0 PUSH1 0x4 DUP3 ADD MSTORE PUSH1 0x24 SWAP1 REVERT JUMPDEST CALLVALUE PUSH2 0x222 JUMPI PUSH1 0x20 CALLDATASIZE PUSH1 0x3 NOT ADD SLT PUSH2 0x222 JUMPI PUSH1 0x4 CALLDATALOAD DUP1 ISZERO ISZERO DUP1 PUSH2 0x3F8 JUMPI JUMPDEST PUSH2 0x2DB SWAP1 PUSH2 0x1B9D JUMP JUMPDEST PUSH1 0x0 MSTORE PUSH1 0x3 PUSH1 0x20 MSTORE PUSH1 0x40 PUSH1 0x0 KECCAK256 PUSH1 0x40 MLOAD PUSH2 0x2F4 DUP2 PUSH2 0x17CE JUMP JUMPDEST DUP2 SLOAD DUP2 MSTORE PUSH1 0x1 DUP3 ADD SLOAD PUSH1 0x1 PUSH1 0x1 PUSH1 0xA0 SHL SUB AND PUSH1 0x20 DUP3 ADD MSTORE PUSH2 0x317 PUSH1 0x2 DUP4 ADD PUSH2 0x1829 JUMP JUMPDEST PUSH1 0x40 DUP3 ADD MSTORE PUSH2 0x328 PUSH1 0x3 DUP4 ADD PUSH2 0x1829 JUMP JUMPDEST PUSH1 0x60 DUP3 ADD MSTORE PUSH2 0x339 PUSH1 0x4 DUP4 ADD PUSH2 0x1829 JUMP JUMPDEST PUSH1 0x80 DUP3 ADD MSTORE PUSH1 0x5 DUP3 ADD SLOAD PUSH1 0xA0 DUP3 ADD MSTORE PUSH1 0xFF PUSH1 0x6 DUP4 ADD SLOAD DUP2 DUP2 AND ISZERO ISZERO PUSH1 0xC0 DUP5 ADD MSTORE PUSH1 0x8 SHR AND ISZERO ISZERO PUSH1 0xE0 DUP3 ADD MSTORE PUSH1 0x7 DUP3 ADD SLOAD SWAP2 DUP3 PUSH2 0x100 DUP4 ADD MSTORE PUSH1 0x8 DUP2 ADD SLOAD SWAP2 DUP3 PUSH2 0x120 DUP3 ADD MSTORE PUSH2 0x160 PUSH1 0xA PUSH1 0x9 DUP5 ADD SLOAD SWAP4 DUP5 PUSH2 0x140 DUP6 ADD MSTORE ADD SLOAD SWAP2 ADD MSTORE DUP3 ISZERO ISZERO PUSH1 0x0 EQ PUSH2 0x3ED JUMPI PUSH1 0x64 DUP3 MUL SWAP3 DUP3 DUP5 DIV PUSH1 0x64 EQ DUP4 ISZERO OR ISZERO PUSH2 0x3D7 JUMPI PUSH2 0x3BE DUP2 PUSH1 0x80 SWAP6 PUSH2 0x1C2D JUMP JUMPDEST SWAP2 JUMPDEST PUSH1 0x40 MLOAD SWAP4 DUP5 MSTORE PUSH1 0x20 DUP5 ADD MSTORE PUSH1 0x40 DUP4 ADD MSTORE PUSH1 0x60 DUP3 ADD MSTORE RETURN JUMPDEST PUSH4 0x4E487B71 PUSH1 0xE0 SHL PUSH1 0x0 MSTORE PUSH1 0x11 PUSH1 0x4 MSTORE PUSH1 0x24 PUSH1 0x0 REVERT JUMPDEST PUSH1 0x80 SWAP3 PUSH1 0x0 SWAP2 PUSH2 0x3C0 JUMP JUMPDEST POP PUSH1 0x2 SLOAD DUP2 LT PUSH2 0x2D2 JUMP JUMPDEST CALLVALUE PUSH2 0x222 JUMPI PUSH1 0x40 CALLDATASIZE PUSH1 0x3 NOT ADD SLT PUSH2 0x222 JUMPI PUSH1 0x4 CALLDATALOAD PUSH2 0x41F PUSH2 0x1925 JUMP JUMPDEST SWAP1 DUP1 ISZERO ISZERO DUP1 PUSH2 0x463 JUMPI JUMPDEST PUSH2 0x432 SWAP1 PUSH2 0x1B9D JUMP JUMPDEST PUSH1 0x0 MSTORE PUSH1 0x4 PUSH1 0x20 MSTORE PUSH1 0x40 PUSH1 0x0 KECCAK256 SWAP1 PUSH1 0x1 DUP1 PUSH1 0xA0 SHL SUB AND PUSH1 0x0 MSTORE PUSH1 0x20 MSTORE PUSH1 0x20 PUSH1 0xFF PUSH1 0x40 PUSH1 0x0 KECCAK256 SLOAD AND PUSH1 0x40 MLOAD SWAP1 ISZERO ISZERO DUP2 MSTORE RETURN JUMPDEST POP PUSH1 0x2 SLOAD DUP2 LT PUSH2 0x429 JUMP JUMPDEST CALLVALUE PUSH2 0x222 JUMPI PUSH1 0x0 CALLDATASIZE PUSH1 0x3 NOT ADD SLT PUSH2 0x222 JUMPI PUSH1 0x20 PUSH1 0x2 SLOAD PUSH1 0x40 MLOAD SWAP1 DUP2 MSTORE RETURN JUMPDEST CALLVALUE PUSH2 0x222 JUMPI PUSH1 0x20 CALLDATASIZE PUSH1 0x3 NOT ADD SLT PUSH2 0x222 JUMPI PUSH2 0x4A5 PUSH2 0x190F JUMP JUMPDEST PUSH2 0x4AD PUSH2 0x1AD1 JUMP JUMPDEST PUSH1 0x1 PUSH1 0x1 PUSH1 0xA0 SHL SUB AND PUSH2 0x4C1 DUP2 ISZERO ISZERO PUSH2 0x1AFD JUMP JUMPDEST DUP1 PUSH1 0x0 MSTORE PUSH1 0x6 PUSH1 0x20 MSTORE PUSH1 0xFF PUSH1 0x40 PUSH1 0x0 KECCAK256 SLOAD AND PUSH2 0x517 JUMPI DUP1 PUSH1 0x0 MSTORE PUSH1 0x6 PUSH1 0x20 MSTORE PUSH1 0x40 PUSH1 0x0 KECCAK256 PUSH1 0x1 PUSH1 0xFF NOT DUP3 SLOAD AND OR SWAP1 SSTORE PUSH32 0xB251EB052AFC73FFD02FFE85AD79990A8B3FED60D76DBC2FA2FDD7123DFFD914 PUSH1 0x0 DUP1 LOG2 STOP JUMPDEST PUSH1 0x40 MLOAD PUSH3 0x461BCD PUSH1 0xE5 SHL DUP2 MSTORE PUSH1 0x20 PUSH1 0x4 DUP3 ADD MSTORE PUSH1 0x10 PUSH1 0x24 DUP3 ADD MSTORE PUSH16 0x20B63932B0B23C90309036B2B6B132B9 PUSH1 0x81 SHL PUSH1 0x44 DUP3 ADD MSTORE PUSH1 0x64 SWAP1 REVERT JUMPDEST CALLVALUE PUSH2 0x222 JUMPI PUSH1 0x40 CALLDATASIZE PUSH1 0x3 NOT ADD SLT PUSH2 0x222 JUMPI PUSH1 0x24 DUP1 CALLDATALOAD PUSH1 0x4 CALLDATALOAD DUP2 ISZERO ISZERO DUP1 DUP4 SUB PUSH2 0x222 JUMPI CALLER PUSH1 0x0 MSTORE PUSH1 0x20 SWAP4 PUSH1 0x6 DUP6 MSTORE PUSH1 0xFF PUSH1 0x40 PUSH1 0x0 KECCAK256 SLOAD AND DUP1 ISZERO PUSH2 0x7F7 JUMPI JUMPDEST PUSH2 0x595 SWAP1 PUSH2 0x1B3B JUMP JUMPDEST DUP3 ISZERO ISZERO DUP1 PUSH2 0x7EC JUMPI JUMPDEST PUSH2 0x5A7 SWAP1 PUSH2 0x1B9D JUMP JUMPDEST PUSH2 0x5AF PUSH2 0x1B7A JUMP JUMPDEST DUP3 PUSH1 0x0 MSTORE PUSH1 0x3 DUP6 MSTORE PUSH1 0x40 PUSH1 0x0 KECCAK256 PUSH2 0x5CC PUSH1 0xFF PUSH1 0x6 DUP4 ADD SLOAD AND PUSH2 0x1BE1 JUMP JUMPDEST PUSH1 0x5 DUP2 ADD SLOAD TIMESTAMP GT PUSH2 0x7A8 JUMPI DUP4 PUSH1 0x0 MSTORE PUSH1 0x4 DUP7 MSTORE PUSH1 0x40 PUSH1 0x0 KECCAK256 CALLER PUSH1 0x0 MSTORE DUP7 MSTORE PUSH1 0xFF PUSH1 0x40 PUSH1 0x0 KECCAK256 SLOAD AND PUSH2 0x774 JUMPI DUP4 PUSH1 0x0 MSTORE PUSH1 0x4 DUP7 MSTORE PUSH1 0x40 PUSH1 0x0 KECCAK256 CALLER PUSH1 0x0 MSTORE DUP7 MSTORE PUSH1 0x40 PUSH1 0x0 KECCAK256 SWAP5 PUSH1 0x1 SWAP6 DUP7 PUSH1 0xFF NOT DUP3 SLOAD AND OR SWAP1 SSTORE PUSH1 0x7 DUP3 ADD DUP1 SLOAD SWAP1 DUP8 DUP3 ADD DUP1 SWAP3 GT PUSH2 0x75F JUMPI SSTORE ISZERO PUSH2 0x749 JUMPI PUSH1 0x8 ADD DUP1 SLOAD SWAP1 DUP6 DUP3 ADD DUP1 SWAP3 GT PUSH2 0x734 JUMPI SSTORE JUMPDEST DUP3 PUSH1 0x0 MSTORE PUSH1 0x5 DUP6 MSTORE PUSH1 0x40 PUSH1 0x0 KECCAK256 PUSH1 0x40 MLOAD PUSH2 0x65F DUP2 PUSH2 0x17EB JUMP JUMPDEST CALLER DUP2 MSTORE DUP7 DUP2 ADD SWAP1 DUP5 DUP3 MSTORE PUSH1 0x40 DUP2 ADD SWAP3 TIMESTAMP DUP5 MSTORE DUP1 SLOAD SWAP1 PUSH9 0x10000000000000000 DUP3 LT ISZERO PUSH2 0x71F JUMPI SWAP1 PUSH2 0x694 SWAP2 DUP10 DUP3 ADD DUP2 SSTORE PUSH2 0x1A9F JUMP JUMPDEST SWAP5 SWAP1 SWAP5 PUSH2 0x70B JUMPI POP MLOAD DUP4 SLOAD SWAP2 MLOAD PUSH1 0x1 PUSH1 0x1 PUSH1 0xA8 SHL SUB NOT SWAP1 SWAP3 AND PUSH1 0x1 PUSH1 0x1 PUSH1 0xA0 SHL SUB SWAP2 SWAP1 SWAP2 AND OR SWAP1 ISZERO ISZERO PUSH1 0xA0 SHL PUSH1 0xFF PUSH1 0xA0 SHL AND OR DUP3 SSTORE MLOAD SWAP1 DUP5 ADD SSTORE PUSH1 0x40 MLOAD SWAP1 DUP2 MSTORE SWAP2 SWAP3 PUSH2 0x707 SWAP3 CALLER SWAP2 DUP4 SWAP2 PUSH32 0xE71FCDAC32DF1877C1700E7BDA2A03157E20993363A28FC35AC495CEFC76E4D4 SWAP2 SWAP1 LOG3 PUSH2 0x1C4D JUMP JUMPDEST DUP1 SSTORE STOP JUMPDEST PUSH4 0x4E487B71 PUSH1 0xE0 SHL PUSH1 0x0 MSTORE PUSH1 0x0 PUSH1 0x4 MSTORE PUSH1 0x0 REVERT JUMPDEST DUP6 PUSH4 0x4E487B71 PUSH1 0xE0 SHL PUSH1 0x0 MSTORE PUSH1 0x41 PUSH1 0x4 MSTORE PUSH1 0x0 REVERT JUMPDEST DUP3 PUSH4 0x4E487B71 PUSH1 0xE0 SHL PUSH1 0x0 MSTORE PUSH1 0x11 PUSH1 0x4 MSTORE PUSH1 0x0 REVERT JUMPDEST PUSH1 0x9 ADD DUP1 SLOAD SWAP1 DUP6 DUP3 ADD DUP1 SWAP3 GT PUSH2 0x734 JUMPI SSTORE PUSH2 0x646 JUMP JUMPDEST DUP5 PUSH4 0x4E487B71 PUSH1 0xE0 SHL PUSH1 0x0 MSTORE PUSH1 0x11 PUSH1 0x4 MSTORE PUSH1 0x0 REVERT JUMPDEST PUSH1 0x40 MLOAD PUSH3 0x461BCD PUSH1 0xE5 SHL DUP2 MSTORE PUSH1 0x4 DUP2 ADD DUP8 SWAP1 MSTORE PUSH1 0xD DUP2 DUP5 ADD MSTORE PUSH13 0x105B1C9958591E481D9BDD1959 PUSH1 0x9A SHL PUSH1 0x44 DUP3 ADD MSTORE PUSH1 0x64 SWAP1 REVERT JUMPDEST PUSH1 0x40 MLOAD PUSH3 0x461BCD PUSH1 0xE5 SHL DUP2 MSTORE PUSH1 0x4 DUP2 ADD DUP8 SWAP1 MSTORE PUSH1 0x17 DUP2 DUP5 ADD MSTORE PUSH32 0x566F74696E6720706572696F642068617320656E646564000000000000000000 PUSH1 0x44 DUP3 ADD MSTORE PUSH1 0x64 SWAP1 REVERT JUMPDEST POP PUSH1 0x2 SLOAD DUP4 LT PUSH2 0x59E JUMP JUMPDEST POP PUSH1 0x0 SLOAD PUSH1 0x1 PUSH1 0x1 PUSH1 0xA0 SHL SUB AND CALLER EQ PUSH2 0x58C JUMP JUMPDEST CALLVALUE PUSH2 0x222 JUMPI PUSH1 0x40 CALLDATASIZE PUSH1 0x3 NOT ADD SLT PUSH2 0x222 JUMPI PUSH1 0x24 CALLDATALOAD PUSH1 0x4 CALLDATALOAD PUSH1 0x0 MSTORE PUSH1 0x5 PUSH1 0x20 MSTORE PUSH1 0x40 PUSH1 0x0 KECCAK256 DUP1 SLOAD DUP3 LT ISZERO PUSH2 0x222 JUMPI PUSH1 0x60 SWAP2 PUSH2 0x844 SWAP2 PUSH2 0x1A9F JUMP JUMPDEST POP PUSH1 0x1 DUP2 SLOAD SWAP2 ADD SLOAD PUSH1 0xFF PUSH1 0x40 MLOAD SWAP3 PUSH1 0x1 DUP1 PUSH1 0xA0 SHL SUB DUP2 AND DUP5 MSTORE PUSH1 0xA0 SHR AND ISZERO ISZERO PUSH1 0x20 DUP4 ADD MSTORE PUSH1 0x40 DUP3 ADD MSTORE RETURN JUMPDEST CALLVALUE PUSH2 0x222 JUMPI PUSH1 0x20 CALLDATASIZE PUSH1 0x3 NOT ADD SLT PUSH2 0x222 JUMPI PUSH1 0x4 CALLDATALOAD DUP1 ISZERO ISZERO DUP1 PUSH2 0x918 JUMPI JUMPDEST PUSH2 0x895 SWAP1 PUSH2 0x1B9D JUMP JUMPDEST DUP1 PUSH1 0x0 MSTORE PUSH1 0x3 PUSH1 0x20 MSTORE PUSH1 0x40 PUSH1 0x0 KECCAK256 SWAP1 PUSH1 0x6 DUP3 ADD PUSH1 0x5 DUP2 SLOAD SWAP4 PUSH2 0x8B9 PUSH1 0xFF DUP7 AND PUSH2 0x1BE1 JUMP JUMPDEST ADD SLOAD TIMESTAMP GT ISZERO PUSH2 0x8D3 JUMPI PUSH2 0x8D1 SWAP3 PUSH1 0xFF NOT AND SWAP1 SSTORE PUSH2 0x1C4D JUMP JUMPDEST STOP JUMPDEST PUSH1 0x40 MLOAD PUSH3 0x461BCD PUSH1 0xE5 SHL DUP2 MSTORE PUSH1 0x20 PUSH1 0x4 DUP3 ADD MSTORE PUSH1 0x17 PUSH1 0x24 DUP3 ADD MSTORE PUSH32 0x566F74696E6720706572696F64206E6F7420656E646564000000000000000000 PUSH1 0x44 DUP3 ADD MSTORE PUSH1 0x64 SWAP1 REVERT JUMPDEST POP PUSH1 0x2 SLOAD DUP2 LT PUSH2 0x88C JUMP JUMPDEST CALLVALUE PUSH2 0x222 JUMPI PUSH1 0x0 CALLDATASIZE PUSH1 0x3 NOT ADD SLT PUSH2 0x222 JUMPI PUSH1 0x2 DUP1 SLOAD PUSH1 0x0 PUSH1 0x1 JUMPDEST DUP3 DUP2 LT PUSH2 0xA89 JUMPI POP PUSH2 0x94E SWAP1 PUSH2 0x1D67 JUMP JUMPDEST SWAP1 PUSH1 0x0 SWAP3 PUSH1 0x1 JUMPDEST DUP3 DUP2 LT PUSH2 0x96A JUMPI PUSH1 0x40 MLOAD DUP1 PUSH2 0x213 DUP7 DUP3 PUSH2 0x19E6 JUMP JUMPDEST DUP1 PUSH1 0x0 MSTORE PUSH1 0x3 PUSH1 0x20 SWAP1 DUP1 DUP3 MSTORE PUSH1 0x40 PUSH1 0x0 KECCAK256 SWAP1 PUSH1 0x6 DUP3 ADD SLOAD SWAP1 PUSH1 0xFF SWAP1 DUP2 DUP4 AND SWAP1 DUP2 DUP1 SWAP3 PUSH2 0xA7B JUMPI JUMPDEST PUSH2 0x9AA JUMPI JUMPDEST POP POP POP POP POP POP PUSH2 0x9A5 SWAP1 PUSH2 0x1D58 JUMP JUMPDEST PUSH2 0x955 JUMP JUMPDEST SWAP1 PUSH2 0x9F1 PUSH1 0xA SWAP6 SWAP5 SWAP4 SWAP3 PUSH1 0x40 SWAP13 SWAP9 SWAP13 MLOAD SWAP8 PUSH2 0x9C4 DUP10 PUSH2 0x17CE JUMP JUMPDEST DUP7 SLOAD DUP10 MSTORE PUSH1 0x1 DUP8 ADD SLOAD PUSH1 0x1 PUSH1 0x1 PUSH1 0xA0 SHL SUB AND SWAP1 DUP10 ADD MSTORE PUSH2 0x9E5 DUP11 DUP8 ADD PUSH2 0x1829 JUMP JUMPDEST PUSH1 0x40 DUP10 ADD MSTORE DUP6 ADD PUSH2 0x1829 JUMP JUMPDEST PUSH1 0x60 DUP8 ADD MSTORE PUSH2 0xA02 PUSH1 0x4 DUP6 ADD PUSH2 0x1829 JUMP JUMPDEST PUSH1 0x80 DUP8 ADD MSTORE PUSH1 0x5 DUP5 ADD SLOAD PUSH1 0xA0 DUP8 ADD MSTORE ISZERO ISZERO PUSH1 0xC0 DUP7 ADD MSTORE PUSH1 0x8 SWAP2 DUP3 SHR AND ISZERO ISZERO PUSH1 0xE0 DUP6 ADD MSTORE PUSH1 0x7 DUP3 ADD SLOAD PUSH2 0x100 DUP6 ADD MSTORE DUP2 ADD SLOAD PUSH2 0x120 DUP5 ADD MSTORE PUSH1 0x9 DUP2 ADD SLOAD PUSH2 0x140 DUP5 ADD MSTORE ADD SLOAD PUSH2 0x160 DUP3 ADD MSTORE PUSH2 0xA56 DUP3 DUP7 PUSH2 0x1DB7 JUMP JUMPDEST MSTORE PUSH2 0xA61 DUP2 DUP6 PUSH2 0x1DB7 JUMP JUMPDEST POP PUSH1 0x1 DUP2 ADD DUP1 SWAP2 GT PUSH2 0x3D7 JUMPI SWAP4 PUSH2 0x9A5 DUP7 DUP1 DUP1 DUP1 DUP1 PUSH2 0x996 JUMP JUMPDEST POP PUSH1 0x5 DUP6 ADD SLOAD TIMESTAMP GT ISZERO PUSH2 0x991 JUMP JUMPDEST DUP1 PUSH1 0x0 MSTORE PUSH1 0x3 PUSH1 0x20 MSTORE PUSH1 0x40 PUSH1 0x0 KECCAK256 PUSH1 0xFF PUSH1 0x6 DUP3 ADD SLOAD AND SWAP1 DUP2 PUSH2 0xACC JUMPI JUMPDEST POP PUSH2 0xABA JUMPI JUMPDEST PUSH2 0xAB5 SWAP1 PUSH2 0x1D58 JUMP JUMPDEST PUSH2 0x93D JUMP JUMPDEST SWAP1 PUSH1 0x1 DUP2 ADD DUP1 SWAP2 GT PUSH2 0x3D7 JUMPI SWAP1 PUSH2 0xAAC JUMP JUMPDEST PUSH1 0x5 SWAP2 POP ADD SLOAD TIMESTAMP GT ISZERO DUP6 PUSH2 0xAA6 JUMP JUMPDEST CALLVALUE PUSH2 0x222 JUMPI PUSH1 0x0 CALLDATASIZE PUSH1 0x3 NOT ADD SLT PUSH2 0x222 JUMPI PUSH1 0x20 PUSH1 0x40 MLOAD PUSH3 0x93A80 DUP2 MSTORE RETURN JUMPDEST CALLVALUE PUSH2 0x222 JUMPI PUSH1 0x20 DUP1 PUSH1 0x3 NOT CALLDATASIZE ADD SLT PUSH2 0x222 JUMPI PUSH1 0x4 CALLDATALOAD DUP1 ISZERO ISZERO DUP1 PUSH2 0xBFB JUMPI JUMPDEST PUSH2 0xB20 SWAP1 PUSH2 0x1B9D JUMP JUMPDEST PUSH1 0x0 MSTORE PUSH1 0x5 DUP2 MSTORE PUSH1 0x40 PUSH1 0x0 KECCAK256 SWAP1 DUP2 SLOAD PUSH2 0xB38 DUP2 PUSH2 0x1D40 JUMP JUMPDEST SWAP1 PUSH2 0xB46 PUSH1 0x40 MLOAD SWAP3 DUP4 PUSH2 0x1807 JUMP JUMPDEST DUP1 DUP3 MSTORE DUP3 DUP3 ADD DUP1 SWAP5 PUSH1 0x0 MSTORE DUP4 PUSH1 0x0 KECCAK256 PUSH1 0x0 SWAP2 JUMPDEST DUP4 DUP4 LT PUSH2 0xBBA JUMPI PUSH1 0x40 DUP1 MLOAD DUP8 DUP2 MSTORE DUP7 MLOAD DUP2 DUP10 ADD DUP2 SWAP1 MSTORE DUP10 SWAP3 DUP3 ADD SWAP1 DUP10 PUSH1 0x0 JUMPDEST DUP3 DUP2 LT PUSH2 0xB85 JUMPI DUP5 DUP5 SUB DUP6 RETURN JUMPDEST DUP6 MLOAD DUP1 MLOAD PUSH1 0x1 PUSH1 0x1 PUSH1 0xA0 SHL SUB AND DUP6 MSTORE DUP1 DUP4 ADD MLOAD ISZERO ISZERO DUP6 DUP5 ADD MSTORE PUSH1 0x40 SWAP1 DUP2 ADD MLOAD SWAP1 DUP6 ADD MSTORE SWAP5 DUP2 ADD SWAP5 PUSH1 0x60 SWAP1 SWAP4 ADD SWAP3 PUSH1 0x1 ADD PUSH2 0xB78 JUMP JUMPDEST PUSH1 0x2 DUP7 PUSH1 0x1 SWAP3 PUSH1 0x40 MLOAD PUSH2 0xBCC DUP2 PUSH2 0x17EB JUMP JUMPDEST PUSH1 0xFF DUP7 SLOAD DUP7 DUP1 PUSH1 0xA0 SHL SUB DUP2 AND DUP4 MSTORE PUSH1 0xA0 SHR AND ISZERO ISZERO DUP4 DUP3 ADD MSTORE DUP5 DUP7 ADD SLOAD PUSH1 0x40 DUP3 ADD MSTORE DUP2 MSTORE ADD SWAP3 ADD SWAP3 ADD SWAP2 SWAP1 PUSH2 0xB59 JUMP JUMPDEST POP PUSH1 0x2 SLOAD DUP2 LT PUSH2 0xB17 JUMP JUMPDEST CALLVALUE PUSH2 0x222 JUMPI PUSH1 0x20 CALLDATASIZE PUSH1 0x3 NOT ADD SLT PUSH2 0x222 JUMPI PUSH1 0x1 PUSH1 0x1 PUSH1 0xA0 SHL SUB PUSH2 0xC27 PUSH2 0x190F JUMP JUMPDEST AND PUSH1 0x0 MSTORE PUSH1 0x6 PUSH1 0x20 MSTORE PUSH1 0x20 PUSH1 0xFF PUSH1 0x40 PUSH1 0x0 KECCAK256 SLOAD AND PUSH1 0x40 MLOAD SWAP1 ISZERO ISZERO DUP2 MSTORE RETURN JUMPDEST CALLVALUE PUSH2 0x222 JUMPI PUSH1 0x0 CALLDATASIZE PUSH1 0x3 NOT ADD SLT PUSH2 0x222 JUMPI PUSH1 0x20 PUSH1 0x40 MLOAD PUSH1 0x46 DUP2 MSTORE RETURN JUMPDEST CALLVALUE PUSH2 0x222 JUMPI PUSH1 0x0 CALLDATASIZE PUSH1 0x3 NOT ADD SLT PUSH2 0x222 JUMPI PUSH1 0x0 SLOAD PUSH1 0x40 MLOAD PUSH1 0x1 PUSH1 0x1 PUSH1 0xA0 SHL SUB SWAP1 SWAP2 AND DUP2 MSTORE PUSH1 0x20 SWAP1 RETURN JUMPDEST CALLVALUE PUSH2 0x222 JUMPI PUSH1 0x0 CALLDATASIZE PUSH1 0x3 NOT ADD SLT PUSH2 0x222 JUMPI PUSH2 0xCA3 PUSH2 0x1AD1 JUMP JUMPDEST PUSH1 0x0 DUP1 SLOAD PUSH1 0x1 PUSH1 0x1 PUSH1 0xA0 SHL SUB NOT DUP2 AND DUP3 SSTORE PUSH1 0x1 PUSH1 0x1 PUSH1 0xA0 SHL SUB AND PUSH32 0x8BE0079C531659141344CD1FD0A4F28419497F9722A3DAAFE3B4186F6B6457E0 DUP3 DUP1 LOG3 STOP JUMPDEST CALLVALUE PUSH2 0x222 JUMPI PUSH1 0x80 CALLDATASIZE PUSH1 0x3 NOT ADD SLT PUSH2 0x222 JUMPI PUSH1 0x4 CALLDATALOAD PUSH8 0xFFFFFFFFFFFFFFFF DUP2 GT PUSH2 0x222 JUMPI PUSH2 0xD14 SWAP1 CALLDATASIZE SWAP1 PUSH1 0x4 ADD PUSH2 0x1A48 JUMP JUMPDEST PUSH1 0x24 CALLDATALOAD PUSH8 0xFFFFFFFFFFFFFFFF DUP2 GT PUSH2 0x222 JUMPI PUSH2 0xD34 SWAP1 CALLDATASIZE SWAP1 PUSH1 0x4 ADD PUSH2 0x1A48 JUMP JUMPDEST SWAP1 PUSH1 0x44 CALLDATALOAD PUSH8 0xFFFFFFFFFFFFFFFF DUP2 GT PUSH2 0x222 JUMPI PUSH2 0xD55 SWAP1 CALLDATASIZE SWAP1 PUSH1 0x4 ADD PUSH2 0x1A48 JUMP JUMPDEST SWAP1 PUSH1 0x64 CALLDATALOAD CALLER PUSH1 0x0 MSTORE PUSH1 0x6 PUSH1 0x20 MSTORE PUSH1 0xFF PUSH1 0x40 PUSH1 0x0 KECCAK256 SLOAD AND DUP1 ISZERO PUSH2 0x135D JUMPI JUMPDEST PUSH2 0xD7B SWAP1 PUSH2 0x1B3B JUMP JUMPDEST PUSH2 0xD83 PUSH2 0x1B7A JUMP JUMPDEST DUP2 MLOAD ISZERO PUSH2 0x1320 JUMPI DUP4 MLOAD ISZERO PUSH2 0x12DB JUMPI PUSH3 0x15180 DUP2 LT ISZERO DUP1 PUSH2 0x12CE JUMPI JUMPDEST ISZERO PUSH2 0x1291 JUMPI PUSH1 0x2 SLOAD SWAP3 PUSH1 0x1 DUP5 ADD DUP1 DUP6 GT PUSH2 0x3D7 JUMPI PUSH1 0x2 SSTORE DUP2 TIMESTAMP ADD TIMESTAMP GT PUSH2 0x3D7 JUMPI PUSH1 0x40 MLOAD SWAP5 PUSH2 0xDCB DUP7 PUSH2 0x17CE JUMP JUMPDEST DUP5 DUP7 MSTORE CALLER PUSH1 0x20 DUP8 ADD MSTORE DUP4 PUSH1 0x40 DUP8 ADD MSTORE PUSH1 0x60 DUP7 ADD MSTORE PUSH1 0x80 DUP6 ADD MSTORE TIMESTAMP ADD PUSH1 0xA0 DUP5 ADD MSTORE PUSH1 0x1 PUSH1 0xC0 DUP5 ADD MSTORE PUSH1 0x0 PUSH1 0xE0 DUP5 ADD MSTORE PUSH1 0x0 PUSH2 0x100 DUP5 ADD MSTORE PUSH1 0x0 PUSH2 0x120 DUP5 ADD MSTORE PUSH1 0x0 PUSH2 0x140 DUP5 ADD MSTORE TIMESTAMP PUSH2 0x160 DUP5 ADD MSTORE DUP2 PUSH1 0x0 MSTORE PUSH1 0x3 PUSH1 0x20 MSTORE PUSH1 0x40 PUSH1 0x0 KECCAK256 DUP4 MLOAD DUP2 SSTORE PUSH1 0x1 DUP2 ADD PUSH1 0x1 DUP1 PUSH1 0xA0 SHL SUB PUSH1 0x20 DUP7 ADD MLOAD AND PUSH12 0xFFFFFFFFFFFFFFFFFFFFFFFF PUSH1 0xA0 SHL DUP3 SLOAD AND OR SWAP1 SSTORE PUSH1 0x40 DUP5 ADD MLOAD DUP1 MLOAD SWAP1 PUSH8 0xFFFFFFFFFFFFFFFF DUP3 GT PUSH2 0x10DB JUMPI DUP2 SWAP1 PUSH2 0xE77 PUSH1 0x2 DUP6 ADD SLOAD PUSH2 0x1794 JUMP JUMPDEST PUSH1 0x1F DUP2 GT PUSH2 0x123E JUMPI JUMPDEST POP PUSH1 0x20 SWAP1 PUSH1 0x1F DUP4 GT PUSH1 0x1 EQ PUSH2 0x11CC JUMPI PUSH1 0x0 SWAP3 PUSH2 0x11C1 JUMPI JUMPDEST POP POP DUP2 PUSH1 0x1 SHL SWAP2 PUSH1 0x0 NOT SWAP1 PUSH1 0x3 SHL SHR NOT AND OR PUSH1 0x2 DUP3 ADD SSTORE JUMPDEST PUSH1 0x60 DUP5 ADD MLOAD DUP1 MLOAD SWAP1 PUSH8 0xFFFFFFFFFFFFFFFF DUP3 GT PUSH2 0x10DB JUMPI DUP2 SWAP1 PUSH2 0xED5 PUSH1 0x3 DUP6 ADD SLOAD PUSH2 0x1794 JUMP JUMPDEST PUSH1 0x1F DUP2 GT PUSH2 0x116E JUMPI JUMPDEST POP PUSH1 0x20 SWAP1 PUSH1 0x1F DUP4 GT PUSH1 0x1 EQ PUSH2 0x10FC JUMPI PUSH1 0x0 SWAP3 PUSH2 0x10F1 JUMPI JUMPDEST POP POP DUP2 PUSH1 0x1 SHL SWAP2 PUSH1 0x0 NOT SWAP1 PUSH1 0x3 SHL SHR NOT AND OR PUSH1 0x3 DUP3 ADD SSTORE JUMPDEST PUSH1 0x80 DUP5 ADD MLOAD SWAP4 DUP5 MLOAD PUSH8 0xFFFFFFFFFFFFFFFF DUP2 GT PUSH2 0x10DB JUMPI PUSH2 0xF31 PUSH1 0x4 DUP5 ADD SLOAD PUSH2 0x1794 JUMP JUMPDEST SWAP6 PUSH1 0x1F DUP8 GT PUSH2 0x1094 JUMPI JUMPDEST PUSH1 0x20 SWAP7 POP DUP7 SWAP1 PUSH1 0x1F DUP4 GT PUSH1 0x1 EQ PUSH2 0x1020 JUMPI SWAP2 DUP1 PUSH1 0xA SWAP5 SWAP3 PUSH2 0x160 SWAP5 PUSH1 0x0 SWAP3 PUSH2 0x1015 JUMPI JUMPDEST POP POP DUP2 PUSH1 0x1 SHL SWAP2 PUSH1 0x0 NOT SWAP1 PUSH1 0x3 SHL SHR NOT AND OR PUSH1 0x4 DUP6 ADD SSTORE JUMPDEST PUSH1 0xA0 DUP2 ADD MLOAD PUSH1 0x5 DUP6 ADD SSTORE PUSH1 0x6 DUP5 ADD PUSH1 0xC0 DUP3 ADD MLOAD ISZERO ISZERO DUP2 SLOAD PUSH1 0xFF PUSH2 0xFF00 PUSH1 0xE0 DUP7 ADD MLOAD ISZERO ISZERO PUSH1 0x8 SHL AND SWAP3 AND SWAP1 PUSH2 0xFFFF NOT AND OR OR SWAP1 SSTORE PUSH2 0x100 DUP2 ADD MLOAD PUSH1 0x7 DUP6 ADD SSTORE PUSH2 0x120 DUP2 ADD MLOAD PUSH1 0x8 DUP6 ADD SSTORE PUSH2 0x140 DUP2 ADD MLOAD PUSH1 0x9 DUP6 ADD SSTORE ADD MLOAD SWAP2 ADD SSTORE DUP2 PUSH32 0xB27F720AF6461D0BE27747A73BAC3D718715B46E346E9731759E215E8A17D9A1 PUSH1 0x40 MLOAD DUP6 DUP2 MSTORE DUP1 PUSH2 0x1006 CALLER SWAP6 DUP9 DUP4 ADD SWAP1 PUSH2 0x18CF JUMP JUMPDEST SUB SWAP1 LOG3 PUSH1 0x1 DUP1 SSTORE PUSH1 0x40 MLOAD SWAP1 DUP2 MSTORE RETURN JUMPDEST ADD MLOAD SWAP1 POP DUP10 DUP1 PUSH2 0xF5E JUMP JUMPDEST SWAP1 PUSH1 0x4 DUP6 ADD PUSH1 0x0 MSTORE DUP8 PUSH1 0x0 KECCAK256 SWAP2 PUSH1 0x0 JUMPDEST PUSH1 0x1F NOT DUP6 AND DUP2 LT PUSH2 0x107D JUMPI POP SWAP3 PUSH1 0xA SWAP5 SWAP3 PUSH1 0x1 SWAP3 PUSH2 0x160 SWAP6 DUP4 PUSH1 0x1F NOT DUP2 AND LT PUSH2 0x1064 JUMPI JUMPDEST POP POP POP DUP2 SHL ADD PUSH1 0x4 DUP6 ADD SSTORE PUSH2 0xF76 JUMP JUMPDEST ADD MLOAD PUSH1 0x0 NOT PUSH1 0xF8 DUP5 PUSH1 0x3 SHL AND SHR NOT AND SWAP1 SSTORE DUP10 DUP1 DUP1 PUSH2 0x1054 JUMP JUMPDEST SWAP2 SWAP3 DUP10 PUSH1 0x1 DUP2 SWAP3 DUP7 DUP6 ADD MLOAD DUP2 SSTORE ADD SWAP5 ADD SWAP3 ADD PUSH2 0x1030 JUMP JUMPDEST PUSH1 0x4 DUP5 ADD PUSH1 0x0 MSTORE PUSH1 0x20 PUSH1 0x0 KECCAK256 PUSH1 0x1F DUP4 ADD PUSH1 0x5 SHR DUP2 ADD PUSH1 0x20 DUP5 LT PUSH2 0x10D4 JUMPI JUMPDEST PUSH1 0x1F DUP10 ADD PUSH1 0x5 SHR DUP3 ADD DUP2 LT PUSH2 0x10C8 JUMPI POP POP PUSH2 0xF3B JUMP JUMPDEST PUSH1 0x0 DUP2 SSTORE PUSH1 0x1 ADD PUSH2 0x10B2 JUMP JUMPDEST POP DUP1 PUSH2 0x10B2 JUMP JUMPDEST PUSH4 0x4E487B71 PUSH1 0xE0 SHL PUSH1 0x0 MSTORE PUSH1 0x41 PUSH1 0x4 MSTORE PUSH1 0x24 PUSH1 0x0 REVERT JUMPDEST ADD MLOAD SWAP1 POP DUP7 DUP1 PUSH2 0xEF5 JUMP JUMPDEST SWAP3 POP PUSH1 0x3 DUP5 ADD PUSH1 0x0 MSTORE PUSH1 0x20 PUSH1 0x0 KECCAK256 SWAP1 PUSH1 0x0 SWAP4 JUMPDEST PUSH1 0x1F NOT DUP5 AND DUP6 LT PUSH2 0x1153 JUMPI PUSH1 0x1 SWAP5 POP DUP4 PUSH1 0x1F NOT DUP2 AND LT PUSH2 0x113A JUMPI JUMPDEST POP POP POP DUP2 SHL ADD PUSH1 0x3 DUP3 ADD SSTORE PUSH2 0xF0D JUMP JUMPDEST ADD MLOAD PUSH1 0x0 NOT PUSH1 0xF8 DUP5 PUSH1 0x3 SHL AND SHR NOT AND SWAP1 SSTORE DUP7 DUP1 DUP1 PUSH2 0x112A JUMP JUMPDEST DUP2 DUP2 ADD MLOAD DUP4 SSTORE PUSH1 0x20 SWAP5 DUP6 ADD SWAP5 PUSH1 0x1 SWAP1 SWAP4 ADD SWAP3 SWAP1 SWAP2 ADD SWAP1 PUSH2 0x110F JUMP JUMPDEST SWAP1 SWAP2 POP PUSH1 0x3 DUP5 ADD PUSH1 0x0 MSTORE PUSH1 0x20 PUSH1 0x0 KECCAK256 PUSH1 0x1F DUP5 ADD PUSH1 0x5 SHR DUP2 ADD PUSH1 0x20 DUP6 LT PUSH2 0x11BA JUMPI JUMPDEST SWAP1 DUP5 SWAP4 SWAP3 SWAP2 JUMPDEST PUSH1 0x1F DUP4 ADD PUSH1 0x5 SHR DUP3 ADD DUP2 LT PUSH2 0x11AB JUMPI POP POP PUSH2 0xEDE JUMP JUMPDEST PUSH1 0x0 DUP2 SSTORE DUP6 SWAP5 POP PUSH1 0x1 ADD PUSH2 0x1195 JUMP JUMPDEST POP DUP1 PUSH2 0x118F JUMP JUMPDEST ADD MLOAD SWAP1 POP DUP7 DUP1 PUSH2 0xE97 JUMP JUMPDEST SWAP3 POP PUSH1 0x2 DUP5 ADD PUSH1 0x0 MSTORE PUSH1 0x20 PUSH1 0x0 KECCAK256 SWAP1 PUSH1 0x0 SWAP4 JUMPDEST PUSH1 0x1F NOT DUP5 AND DUP6 LT PUSH2 0x1223 JUMPI PUSH1 0x1 SWAP5 POP DUP4 PUSH1 0x1F NOT DUP2 AND LT PUSH2 0x120A JUMPI JUMPDEST POP POP POP DUP2 SHL ADD PUSH1 0x2 DUP3 ADD SSTORE PUSH2 0xEAF JUMP JUMPDEST ADD MLOAD PUSH1 0x0 NOT PUSH1 0xF8 DUP5 PUSH1 0x3 SHL AND SHR NOT AND SWAP1 SSTORE DUP7 DUP1 DUP1 PUSH2 0x11FA JUMP JUMPDEST DUP2 DUP2 ADD MLOAD DUP4 SSTORE PUSH1 0x20 SWAP5 DUP6 ADD SWAP5 PUSH1 0x1 SWAP1 SWAP4 ADD SWAP3 SWAP1 SWAP2 ADD SWAP1 PUSH2 0x11DF JUMP JUMPDEST SWAP1 SWAP2 POP PUSH1 0x2 DUP5 ADD PUSH1 0x0 MSTORE PUSH1 0x20 PUSH1 0x0 KECCAK256 PUSH1 0x1F DUP5 ADD PUSH1 0x5 SHR DUP2 ADD PUSH1 0x20 DUP6 LT PUSH2 0x128A JUMPI JUMPDEST SWAP1 DUP5 SWAP4 SWAP3 SWAP2 JUMPDEST PUSH1 0x1F DUP4 ADD PUSH1 0x5 SHR DUP3 ADD DUP2 LT PUSH2 0x127B JUMPI POP POP PUSH2 0xE80 JUMP JUMPDEST PUSH1 0x0 DUP2 SSTORE DUP6 SWAP5 POP PUSH1 0x1 ADD PUSH2 0x1265 JUMP JUMPDEST POP DUP1 PUSH2 0x125F JUMP JUMPDEST PUSH1 0x40 MLOAD PUSH3 0x461BCD PUSH1 0xE5 SHL DUP2 MSTORE PUSH1 0x20 PUSH1 0x4 DUP3 ADD MSTORE PUSH1 0x15 PUSH1 0x24 DUP3 ADD MSTORE PUSH21 0x125B9D985B1A59081D9BDD1A5B99C81C195C9A5BD9 PUSH1 0x5A SHL PUSH1 0x44 DUP3 ADD MSTORE PUSH1 0x64 SWAP1 REVERT JUMPDEST POP PUSH3 0x93A80 DUP2 GT ISZERO PUSH2 0xD9E JUMP JUMPDEST PUSH1 0x40 MLOAD PUSH3 0x461BCD PUSH1 0xE5 SHL DUP2 MSTORE PUSH1 0x20 PUSH1 0x4 DUP3 ADD MSTORE PUSH1 0x1B PUSH1 0x24 DUP3 ADD MSTORE PUSH32 0x4465736372697074696F6E2063616E6E6F7420626520656D7074790000000000 PUSH1 0x44 DUP3 ADD MSTORE PUSH1 0x64 SWAP1 REVERT JUMPDEST PUSH1 0x40 MLOAD PUSH3 0x461BCD PUSH1 0xE5 SHL DUP2 MSTORE PUSH1 0x20 PUSH1 0x4 DUP3 ADD MSTORE PUSH1 0x15 PUSH1 0x24 DUP3 ADD MSTORE PUSH21 0x5469746C652063616E6E6F7420626520656D707479 PUSH1 0x58 SHL PUSH1 0x44 DUP3 ADD MSTORE PUSH1 0x64 SWAP1 REVERT JUMPDEST POP PUSH1 0x0 SLOAD PUSH1 0x1 PUSH1 0x1 PUSH1 0xA0 SHL SUB AND CALLER EQ PUSH2 0xD72 JUMP JUMPDEST CALLVALUE PUSH2 0x222 JUMPI PUSH1 0x0 CALLDATASIZE PUSH1 0x3 NOT ADD SLT PUSH2 0x222 JUMPI PUSH1 0x2 DUP1 SLOAD PUSH1 0x0 PUSH1 0x1 JUMPDEST DUP3 DUP2 LT PUSH2 0x14C4 JUMPI POP PUSH2 0x139C SWAP1 PUSH2 0x1D67 JUMP JUMPDEST SWAP1 PUSH1 0x0 SWAP3 PUSH1 0x1 JUMPDEST DUP3 DUP2 LT PUSH2 0x13B8 JUMPI PUSH1 0x40 MLOAD DUP1 PUSH2 0x213 DUP7 DUP3 PUSH2 0x19E6 JUMP JUMPDEST DUP1 PUSH1 0x0 MSTORE PUSH1 0x3 PUSH1 0x20 SWAP1 DUP1 DUP3 MSTORE PUSH1 0x40 PUSH1 0x0 KECCAK256 SWAP1 PUSH1 0x6 DUP3 ADD SLOAD SWAP1 PUSH1 0xFF PUSH1 0x8 SWAP3 DUP2 DUP2 DUP6 SHR AND SWAP3 DUP4 PUSH2 0x13F6 JUMPI JUMPDEST POP POP POP POP POP POP POP PUSH2 0x13F1 SWAP1 PUSH2 0x1D58 JUMP JUMPDEST PUSH2 0x13A3 JUMP JUMPDEST SWAP1 PUSH2 0x143E PUSH1 0xA SWAP7 SWAP6 SWAP5 SWAP4 SWAP3 PUSH1 0x40 SWAP14 SWAP10 SWAP14 MLOAD SWAP9 PUSH2 0x1411 DUP11 PUSH2 0x17CE JUMP JUMPDEST DUP8 SLOAD DUP11 MSTORE PUSH1 0x1 DUP9 ADD SLOAD PUSH1 0x1 PUSH1 0x1 PUSH1 0xA0 SHL SUB AND SWAP1 DUP11 ADD MSTORE PUSH2 0x1432 DUP12 DUP9 ADD PUSH2 0x1829 JUMP JUMPDEST PUSH1 0x40 DUP11 ADD MSTORE DUP7 ADD PUSH2 0x1829 JUMP JUMPDEST PUSH1 0x60 DUP9 ADD MSTORE PUSH2 0x144F PUSH1 0x4 DUP7 ADD PUSH2 0x1829 JUMP JUMPDEST PUSH1 0x80 DUP9 ADD MSTORE PUSH1 0x5 DUP6 ADD SLOAD PUSH1 0xA0 DUP9 ADD MSTORE AND ISZERO ISZERO PUSH1 0xC0 DUP7 ADD MSTORE ISZERO ISZERO PUSH1 0xE0 DUP6 ADD MSTORE PUSH1 0x7 DUP3 ADD SLOAD PUSH2 0x100 DUP6 ADD MSTORE DUP2 ADD SLOAD PUSH2 0x120 DUP5 ADD MSTORE PUSH1 0x9 DUP2 ADD SLOAD PUSH2 0x140 DUP5 ADD MSTORE ADD SLOAD PUSH2 0x160 DUP3 ADD MSTORE PUSH2 0x149E DUP3 DUP7 PUSH2 0x1DB7 JUMP JUMPDEST MSTORE PUSH2 0x14A9 DUP2 DUP6 PUSH2 0x1DB7 JUMP JUMPDEST POP PUSH1 0x1 DUP2 ADD DUP1 SWAP2 GT PUSH2 0x3D7 JUMPI SWAP4 PUSH2 0x13F1 DUP7 DUP1 DUP1 DUP1 DUP1 DUP1 PUSH2 0x13E1 JUMP JUMPDEST DUP1 PUSH1 0x0 MSTORE PUSH1 0x3 PUSH1 0x20 MSTORE PUSH1 0xFF PUSH1 0x6 PUSH1 0x40 PUSH1 0x0 KECCAK256 ADD SLOAD PUSH1 0x8 SHR AND PUSH2 0x14EF JUMPI JUMPDEST PUSH2 0x14EA SWAP1 PUSH2 0x1D58 JUMP JUMPDEST PUSH2 0x138B JUMP JUMPDEST SWAP1 PUSH1 0x1 DUP2 ADD DUP1 SWAP2 GT PUSH2 0x3D7 JUMPI SWAP1 PUSH2 0x14E1 JUMP JUMPDEST CALLVALUE PUSH2 0x222 JUMPI PUSH1 0x40 CALLDATASIZE PUSH1 0x3 NOT ADD SLT PUSH2 0x222 JUMPI PUSH2 0x151A PUSH2 0x1925 JUMP JUMPDEST PUSH1 0x4 CALLDATALOAD PUSH1 0x0 MSTORE PUSH1 0x4 PUSH1 0x20 MSTORE PUSH1 0x40 PUSH1 0x0 KECCAK256 SWAP1 PUSH1 0x1 DUP1 PUSH1 0xA0 SHL SUB AND PUSH1 0x0 MSTORE PUSH1 0x20 MSTORE PUSH1 0x20 PUSH1 0xFF PUSH1 0x40 PUSH1 0x0 KECCAK256 SLOAD AND PUSH1 0x40 MLOAD SWAP1 ISZERO ISZERO DUP2 MSTORE RETURN JUMPDEST CALLVALUE PUSH2 0x222 JUMPI PUSH1 0x0 CALLDATASIZE PUSH1 0x3 NOT ADD SLT PUSH2 0x222 JUMPI PUSH1 0x20 PUSH1 0x40 MLOAD PUSH3 0x15180 DUP2 MSTORE RETURN JUMPDEST CALLVALUE PUSH2 0x222 JUMPI PUSH1 0x20 CALLDATASIZE PUSH1 0x3 NOT ADD SLT PUSH2 0x222 JUMPI PUSH2 0x1585 PUSH2 0x190F JUMP JUMPDEST PUSH2 0x158D PUSH2 0x1AD1 JUMP JUMPDEST PUSH1 0x1 PUSH1 0x1 PUSH1 0xA0 SHL SUB SWAP1 DUP2 AND SWAP1 PUSH2 0x15A4 DUP3 ISZERO ISZERO PUSH2 0x1AFD JUMP JUMPDEST DUP2 PUSH1 0x0 MSTORE PUSH1 0x6 PUSH1 0x20 MSTORE PUSH1 0xFF PUSH1 0x40 PUSH1 0x0 KECCAK256 SLOAD AND ISZERO PUSH2 0x163D JUMPI PUSH1 0x0 SLOAD AND DUP2 EQ PUSH2 0x1602 JUMPI DUP1 PUSH1 0x0 MSTORE PUSH1 0x6 PUSH1 0x20 MSTORE PUSH1 0x40 PUSH1 0x0 KECCAK256 PUSH1 0xFF NOT DUP2 SLOAD AND SWAP1 SSTORE PUSH32 0x6E76FB4C77256006D9C38EC7D82B45A8C8F3C27B1D6766FFFC42DFB8DE684492 PUSH1 0x0 DUP1 LOG2 STOP JUMPDEST PUSH1 0x40 MLOAD PUSH3 0x461BCD PUSH1 0xE5 SHL DUP2 MSTORE PUSH1 0x20 PUSH1 0x4 DUP3 ADD MSTORE PUSH1 0x13 PUSH1 0x24 DUP3 ADD MSTORE PUSH19 0x21B0B73737BA103932B6B7BB329037BBB732B9 PUSH1 0x69 SHL PUSH1 0x44 DUP3 ADD MSTORE PUSH1 0x64 SWAP1 REVERT JUMPDEST PUSH1 0x40 MLOAD PUSH3 0x461BCD PUSH1 0xE5 SHL DUP2 MSTORE PUSH1 0x20 PUSH1 0x4 DUP3 ADD MSTORE PUSH1 0xC PUSH1 0x24 DUP3 ADD MSTORE PUSH12 0x2737BA10309036B2B6B132B9 PUSH1 0xA1 SHL PUSH1 0x44 DUP3 ADD MSTORE PUSH1 0x64 SWAP1 REVERT JUMPDEST CALLVALUE PUSH2 0x222 JUMPI PUSH1 0x0 CALLDATASIZE PUSH1 0x3 NOT ADD SLT PUSH2 0x222 JUMPI PUSH1 0x2 SLOAD PUSH1 0x0 NOT DUP2 ADD SWAP1 DUP2 GT PUSH2 0x3D7 JUMPI PUSH1 0x20 SWAP1 PUSH1 0x40 MLOAD SWAP1 DUP2 MSTORE RETURN JUMPDEST CALLVALUE PUSH2 0x222 JUMPI PUSH1 0x20 CALLDATASIZE PUSH1 0x3 NOT ADD SLT PUSH2 0x222 JUMPI PUSH1 0x4 CALLDATALOAD PUSH1 0x0 SWAP1 DUP2 MSTORE PUSH1 0x3 PUSH1 0x20 MSTORE PUSH1 0x40 SWAP1 KECCAK256 DUP1 SLOAD PUSH1 0x1 DUP3 ADD SLOAD PUSH1 0x1 PUSH1 0x1 PUSH1 0xA0 SHL SUB AND SWAP2 PUSH2 0x16DB PUSH1 0x2 DUP3 ADD PUSH2 0x1829 JUMP JUMPDEST PUSH2 0x16E7 PUSH1 0x3 DUP4 ADD PUSH2 0x1829 JUMP JUMPDEST SWAP2 PUSH2 0x16F4 PUSH1 0x4 DUP3 ADD PUSH2 0x1829 JUMP JUMPDEST SWAP3 PUSH1 0x5 DUP3 ADD SLOAD SWAP4 PUSH1 0x6 DUP4 ADD SLOAD PUSH1 0x7 DUP5 ADD SLOAD SWAP2 PUSH1 0x8 DUP6 ADD SLOAD SWAP4 PUSH1 0x9 DUP7 ADD SLOAD SWAP6 PUSH1 0xA ADD SLOAD SWAP7 PUSH1 0x40 MLOAD SWAP11 DUP12 SWAP11 DUP12 MSTORE PUSH1 0x20 DUP12 ADD MSTORE PUSH2 0x180 DUP1 PUSH1 0x40 DUP13 ADD MSTORE DUP11 ADD PUSH2 0x1738 SWAP2 PUSH2 0x18CF JUMP JUMPDEST DUP10 DUP2 SUB PUSH1 0x60 DUP12 ADD MSTORE PUSH2 0x1749 SWAP2 PUSH2 0x18CF JUMP JUMPDEST DUP9 DUP2 SUB PUSH1 0x80 DUP11 ADD MSTORE PUSH2 0x175A SWAP2 PUSH2 0x18CF JUMP JUMPDEST SWAP6 PUSH1 0xA0 DUP9 ADD MSTORE PUSH1 0xFF DUP2 AND ISZERO ISZERO PUSH1 0xC0 DUP9 ADD MSTORE PUSH1 0x8 SHR PUSH1 0xFF AND ISZERO ISZERO PUSH1 0xE0 DUP8 ADD MSTORE PUSH2 0x100 DUP7 ADD MSTORE PUSH2 0x120 DUP6 ADD MSTORE PUSH2 0x140 DUP5 ADD MSTORE PUSH2 0x160 DUP4 ADD MSTORE SUB SWAP1 RETURN JUMPDEST SWAP1 PUSH1 0x1 DUP3 DUP2 SHR SWAP3 AND DUP1 ISZERO PUSH2 0x17C4 JUMPI JUMPDEST PUSH1 0x20 DUP4 LT EQ PUSH2 0x17AE JUMPI JUMP JUMPDEST PUSH4 0x4E487B71 PUSH1 0xE0 SHL PUSH1 0x0 MSTORE PUSH1 0x22 PUSH1 0x4 MSTORE PUSH1 0x24 PUSH1 0x0 REVERT JUMPDEST SWAP2 PUSH1 0x7F AND SWAP2 PUSH2 0x17A3 JUMP JUMPDEST PUSH2 0x180 DUP2 ADD SWAP1 DUP2 LT PUSH8 0xFFFFFFFFFFFFFFFF DUP3 GT OR PUSH2 0x10DB JUMPI PUSH1 0x40 MSTORE JUMP JUMPDEST PUSH1 0x60 DUP2 ADD SWAP1 DUP2 LT PUSH8 0xFFFFFFFFFFFFFFFF DUP3 GT OR PUSH2 0x10DB JUMPI PUSH1 0x40 MSTORE JUMP JUMPDEST SWAP1 PUSH1 0x1F DUP1 NOT SWAP2 ADD AND DUP2 ADD SWAP1 DUP2 LT PUSH8 0xFFFFFFFFFFFFFFFF DUP3 GT OR PUSH2 0x10DB JUMPI PUSH1 0x40 MSTORE JUMP JUMPDEST SWAP1 PUSH1 0x40 MLOAD SWAP2 DUP3 PUSH1 0x0 DUP3 SLOAD SWAP3 PUSH2 0x183D DUP5 PUSH2 0x1794 JUMP JUMPDEST SWAP1 DUP2 DUP5 MSTORE PUSH1 0x1 SWAP5 DUP6 DUP2 AND SWAP1 DUP2 PUSH1 0x0 EQ PUSH2 0x18AC JUMPI POP PUSH1 0x1 EQ PUSH2 0x1869 JUMPI JUMPDEST POP POP PUSH2 0x1867 SWAP3 POP SUB DUP4 PUSH2 0x1807 JUMP JUMPDEST JUMP JUMPDEST SWAP1 SWAP4 SWAP2 POP PUSH1 0x0 MSTORE PUSH1 0x20 SWAP1 DUP2 PUSH1 0x0 KECCAK256 SWAP4 PUSH1 0x0 SWAP2 JUMPDEST DUP2 DUP4 LT PUSH2 0x1894 JUMPI POP POP PUSH2 0x1867 SWAP4 POP DUP3 ADD ADD CODESIZE DUP1 PUSH2 0x1859 JUMP JUMPDEST DUP6 SLOAD DUP9 DUP5 ADD DUP6 ADD MSTORE SWAP5 DUP6 ADD SWAP5 DUP8 SWAP5 POP SWAP2 DUP4 ADD SWAP2 PUSH2 0x187C JUMP JUMPDEST SWAP2 POP POP PUSH2 0x1867 SWAP5 POP PUSH1 0x20 SWAP3 POP PUSH1 0xFF NOT AND DUP3 DUP5 ADD MSTORE ISZERO ISZERO PUSH1 0x5 SHL DUP3 ADD ADD CODESIZE DUP1 PUSH2 0x1859 JUMP JUMPDEST SWAP2 SWAP1 DUP3 MLOAD SWAP3 DUP4 DUP3 MSTORE PUSH1 0x0 JUMPDEST DUP5 DUP2 LT PUSH2 0x18FB JUMPI POP POP DUP3 PUSH1 0x0 PUSH1 0x20 DUP1 SWAP5 SWAP6 DUP5 ADD ADD MSTORE PUSH1 0x1F DUP1 NOT SWAP2 ADD AND ADD ADD SWAP1 JUMP JUMPDEST PUSH1 0x20 DUP2 DUP4 ADD DUP2 ADD MLOAD DUP5 DUP4 ADD DUP3 ADD MSTORE ADD PUSH2 0x18DA JUMP JUMPDEST PUSH1 0x4 CALLDATALOAD SWAP1 PUSH1 0x1 PUSH1 0x1 PUSH1 0xA0 SHL SUB DUP3 AND DUP3 SUB PUSH2 0x222 JUMPI JUMP JUMPDEST PUSH1 0x24 CALLDATALOAD SWAP1 PUSH1 0x1 PUSH1 0x1 PUSH1 0xA0 SHL SUB DUP3 AND DUP3 SUB PUSH2 0x222 JUMPI JUMP JUMPDEST SWAP1 DUP2 MLOAD DUP2 MSTORE PUSH1 0x1 DUP1 PUSH1 0xA0 SHL SUB PUSH1 0x20 DUP4 ADD MLOAD AND PUSH1 0x20 DUP3 ADD MSTORE PUSH2 0x1995 PUSH2 0x1983 PUSH2 0x1971 PUSH1 0x40 DUP6 ADD MLOAD PUSH2 0x180 DUP1 PUSH1 0x40 DUP8 ADD MSTORE DUP6 ADD SWAP1 PUSH2 0x18CF JUMP JUMPDEST PUSH1 0x60 DUP6 ADD MLOAD DUP5 DUP3 SUB PUSH1 0x60 DUP7 ADD MSTORE PUSH2 0x18CF JUMP JUMPDEST PUSH1 0x80 DUP5 ADD MLOAD DUP4 DUP3 SUB PUSH1 0x80 DUP6 ADD MSTORE PUSH2 0x18CF JUMP JUMPDEST SWAP2 PUSH1 0xA0 DUP2 ADD MLOAD PUSH1 0xA0 DUP4 ADD MSTORE PUSH1 0xC0 DUP2 ADD MLOAD ISZERO ISZERO PUSH1 0xC0 DUP4 ADD MSTORE PUSH1 0xE0 DUP2 ADD MLOAD ISZERO ISZERO PUSH1 0xE0 DUP4 ADD MSTORE PUSH2 0x100 DUP1 DUP3 ADD MLOAD SWAP1 DUP4 ADD MSTORE PUSH2 0x120 DUP1 DUP3 ADD MLOAD SWAP1 DUP4 ADD MSTORE PUSH2 0x140 DUP1 DUP3 ADD MLOAD SWAP1 DUP4 ADD MSTORE PUSH2 0x160 DUP1 SWAP2 ADD MLOAD SWAP2 ADD MSTORE SWAP1 JUMP JUMPDEST PUSH1 0x20 DUP1 DUP3 ADD SWAP1 DUP1 DUP4 MSTORE DUP4 MLOAD DUP1 SWAP3 MSTORE PUSH1 0x40 DUP4 ADD SWAP3 DUP2 PUSH1 0x40 DUP5 PUSH1 0x5 SHL DUP4 ADD ADD SWAP6 ADD SWAP4 PUSH1 0x0 SWAP2 JUMPDEST DUP5 DUP4 LT PUSH2 0x1A1A JUMPI POP POP POP POP POP POP SWAP1 JUMP JUMPDEST SWAP1 SWAP2 SWAP3 SWAP4 SWAP5 SWAP6 DUP5 DUP1 PUSH2 0x1A38 PUSH1 0x1 SWAP4 PUSH1 0x3F NOT DUP7 DUP3 SUB ADD DUP8 MSTORE DUP11 MLOAD PUSH2 0x193B JUMP JUMPDEST SWAP9 ADD SWAP4 ADD SWAP4 ADD SWAP2 SWAP5 SWAP4 SWAP3 SWAP1 PUSH2 0x1A0A JUMP JUMPDEST DUP2 PUSH1 0x1F DUP3 ADD SLT ISZERO PUSH2 0x222 JUMPI DUP1 CALLDATALOAD SWAP1 PUSH8 0xFFFFFFFFFFFFFFFF DUP3 GT PUSH2 0x10DB JUMPI PUSH1 0x40 MLOAD SWAP3 PUSH2 0x1A7D PUSH1 0x1F DUP5 ADD PUSH1 0x1F NOT AND PUSH1 0x20 ADD DUP6 PUSH2 0x1807 JUMP JUMPDEST DUP3 DUP5 MSTORE PUSH1 0x20 DUP4 DUP4 ADD ADD GT PUSH2 0x222 JUMPI DUP2 PUSH1 0x0 SWAP3 PUSH1 0x20 DUP1 SWAP4 ADD DUP4 DUP7 ADD CALLDATACOPY DUP4 ADD ADD MSTORE SWAP1 JUMP JUMPDEST DUP1 SLOAD DUP3 LT ISZERO PUSH2 0x1ABB JUMPI PUSH1 0x0 MSTORE PUSH1 0x20 PUSH1 0x0 KECCAK256 SWAP1 PUSH1 0x1 SHL ADD SWAP1 PUSH1 0x0 SWAP1 JUMP JUMPDEST PUSH4 0x4E487B71 PUSH1 0xE0 SHL PUSH1 0x0 MSTORE PUSH1 0x32 PUSH1 0x4 MSTORE PUSH1 0x24 PUSH1 0x0 REVERT JUMPDEST PUSH1 0x0 SLOAD PUSH1 0x1 PUSH1 0x1 PUSH1 0xA0 SHL SUB AND CALLER SUB PUSH2 0x1AE5 JUMPI JUMP JUMPDEST PUSH1 0x40 MLOAD PUSH4 0x118CDAA7 PUSH1 0xE0 SHL DUP2 MSTORE CALLER PUSH1 0x4 DUP3 ADD MSTORE PUSH1 0x24 SWAP1 REVERT JUMPDEST ISZERO PUSH2 0x1B04 JUMPI JUMP JUMPDEST PUSH1 0x40 MLOAD PUSH3 0x461BCD PUSH1 0xE5 SHL DUP2 MSTORE PUSH1 0x20 PUSH1 0x4 DUP3 ADD MSTORE PUSH1 0xF PUSH1 0x24 DUP3 ADD MSTORE PUSH15 0x496E76616C69642061646472657373 PUSH1 0x88 SHL PUSH1 0x44 DUP3 ADD MSTORE PUSH1 0x64 SWAP1 REVERT JUMPDEST ISZERO PUSH2 0x1B42 JUMPI JUMP JUMPDEST PUSH1 0x40 MLOAD PUSH3 0x461BCD PUSH1 0xE5 SHL DUP2 MSTORE PUSH1 0x20 PUSH1 0x4 DUP3 ADD MSTORE PUSH1 0x10 PUSH1 0x24 DUP3 ADD MSTORE PUSH16 0x2737BA1030902220A79036B2B6B132B9 PUSH1 0x81 SHL PUSH1 0x44 DUP3 ADD MSTORE PUSH1 0x64 SWAP1 REVERT JUMPDEST PUSH1 0x2 PUSH1 0x1 SLOAD EQ PUSH2 0x1B8B JUMPI PUSH1 0x2 PUSH1 0x1 SSTORE JUMP JUMPDEST PUSH1 0x40 MLOAD PUSH4 0x3EE5AEB5 PUSH1 0xE0 SHL DUP2 MSTORE PUSH1 0x4 SWAP1 REVERT JUMPDEST ISZERO PUSH2 0x1BA4 JUMPI JUMP JUMPDEST PUSH1 0x40 MLOAD PUSH3 0x461BCD PUSH1 0xE5 SHL DUP2 MSTORE PUSH1 0x20 PUSH1 0x4 DUP3 ADD MSTORE PUSH1 0x15 PUSH1 0x24 DUP3 ADD MSTORE PUSH21 0x125B9D985B1A59081C1C99591A58DD1A5BDB881251 PUSH1 0x5A SHL PUSH1 0x44 DUP3 ADD MSTORE PUSH1 0x64 SWAP1 REVERT JUMPDEST ISZERO PUSH2 0x1BE8 JUMPI JUMP JUMPDEST PUSH1 0x40 MLOAD PUSH3 0x461BCD PUSH1 0xE5 SHL DUP2 MSTORE PUSH1 0x20 PUSH1 0x4 DUP3 ADD MSTORE PUSH1 0x18 PUSH1 0x24 DUP3 ADD MSTORE PUSH32 0x50726564696374696F6E206973206E6F74206163746976650000000000000000 PUSH1 0x44 DUP3 ADD MSTORE PUSH1 0x64 SWAP1 REVERT JUMPDEST DUP2 ISZERO PUSH2 0x1C37 JUMPI DIV SWAP1 JUMP JUMPDEST PUSH4 0x4E487B71 PUSH1 0xE0 SHL PUSH1 0x0 MSTORE PUSH1 0x12 PUSH1 0x4 MSTORE PUSH1 0x24 PUSH1 0x0 REVERT JUMPDEST DUP1 PUSH1 0x0 MSTORE PUSH1 0x3 PUSH1 0x20 MSTORE PUSH1 0x40 PUSH1 0x0 KECCAK256 PUSH1 0x7 DUP2 ADD SLOAD SWAP1 DUP2 PUSH2 0x1C6B JUMPI POP POP POP JUMP JUMPDEST PUSH1 0x8 DUP2 ADD SLOAD PUSH1 0x64 DUP2 MUL DUP2 DUP2 DIV PUSH1 0x64 EQ DUP3 ISZERO OR ISZERO PUSH2 0x3D7 JUMPI PUSH2 0x1C8E DUP5 PUSH1 0x46 SWAP3 PUSH2 0x1C2D JUMP JUMPDEST LT ISZERO PUSH2 0x1C9B JUMPI JUMPDEST POP POP POP POP JUMP JUMPDEST PUSH32 0xFF2BF007EA94C88312B7AA52F9C827197917A6FD36ABCE6D4B727A14840FED6C SWAP3 PUSH1 0x6 PUSH1 0x40 SWAP4 ADD PUSH2 0x100 PUSH2 0xFFFF NOT DUP3 SLOAD AND OR SWAP1 SSTORE DUP3 MLOAD SWAP2 DUP3 MSTORE PUSH1 0x20 DUP3 ADD MSTORE LOG2 CODESIZE DUP1 DUP1 DUP1 PUSH2 0x1C95 JUMP JUMPDEST PUSH1 0x40 MLOAD SWAP1 PUSH2 0x1CF1 DUP3 PUSH2 0x17CE JUMP JUMPDEST DUP2 PUSH2 0x160 PUSH1 0x0 SWAP2 DUP3 DUP2 MSTORE DUP3 PUSH1 0x20 DUP3 ADD MSTORE PUSH1 0x60 PUSH1 0x40 DUP3 ADD MSTORE PUSH1 0x60 DUP1 DUP3 ADD MSTORE PUSH1 0x60 PUSH1 0x80 DUP3 ADD MSTORE DUP3 PUSH1 0xA0 DUP3 ADD MSTORE DUP3 PUSH1 0xC0 DUP3 ADD MSTORE DUP3 PUSH1 0xE0 DUP3 ADD MSTORE DUP3 PUSH2 0x100 DUP3 ADD MSTORE DUP3 PUSH2 0x120 DUP3 ADD MSTORE DUP3 PUSH2 0x140 DUP3 ADD MSTORE ADD MSTORE JUMP JUMPDEST PUSH8 0xFFFFFFFFFFFFFFFF DUP2 GT PUSH2 0x10DB JUMPI PUSH1 0x5 SHL PUSH1 0x20 ADD SWAP1 JUMP JUMPDEST PUSH1 0x0 NOT DUP2 EQ PUSH2 0x3D7 JUMPI PUSH1 0x1 ADD SWAP1 JUMP JUMPDEST SWAP1 PUSH2 0x1D71 DUP3 PUSH2 0x1D40 JUMP JUMPDEST PUSH2 0x1D7E PUSH1 0x40 MLOAD SWAP2 DUP3 PUSH2 0x1807 JUMP JUMPDEST DUP3 DUP2 MSTORE DUP1 SWAP3 PUSH2 0x1D8F PUSH1 0x1F NOT SWAP2 PUSH2 0x1D40 JUMP JUMPDEST ADD SWAP1 PUSH1 0x0 JUMPDEST DUP3 DUP2 LT PUSH2 0x1DA0 JUMPI POP POP POP JUMP JUMPDEST PUSH1 0x20 SWAP1 PUSH2 0x1DAB PUSH2 0x1CE4 JUMP JUMPDEST DUP3 DUP3 DUP6 ADD ADD MSTORE ADD PUSH2 0x1D94 JUMP JUMPDEST DUP1 MLOAD DUP3 LT ISZERO PUSH2 0x1ABB JUMPI PUSH1 0x20 SWAP2 PUSH1 0x5 SHL ADD ADD SWAP1 JUMP INVALID LOG2 PUSH5 0x6970667358 0x22 SLT KECCAK256 CHAINID DUP8 0xBD 0xCB 0x23 0xD3 0xA8 STATICCALL 0xF 0xB0 0xA7 PUSH30 0x9F35A996657C8D00EA716DF9097D1B344688473F64736F6C634300081400 CALLER "},"methodIdentifiers":{"MAX_VOTING_PERIOD()":"a64e024a","MIN_VOTING_PERIOD()":"215809ca","VOTING_THRESHOLD()":"94abb8cd","addMember(address)":"ca6d56dc","createPrediction(string,string,string,uint256)":"6d2b7d96","finalizePrediction(uint256)":"af96f37b","getActivePredictions()":"a9d6921b","getApprovedPredictions()":"54bc823d","getPrediction(uint256)":"fe83bece","getPredictionCount()":"01668096","getPredictionVotes(uint256)":"a33903e7","getVotingStats(uint256)":"e58d4527","hasUserVoted(uint256,address)":"dc296ae1","hasVoted(uint256,address)":"43859632","isMember(address)":"a230c524","nextPredictionId()":"d8d9292e","owner()":"8da5cb5b","predictions(uint256)":"004fbbb0","removeMember(address)":"0b1ca49a","renounceOwnership()":"715018a6","transferOwnership(address)":"f2fde38b","vote(uint256,bool)":"c9d27afe","votes(uint256,uint256)":"c6e36a32"}}}}}