{"contracts/PredictionDAOWithFlare.sol":{"PredictionDAOWithFlare":{"abi":[{"inputs":[],"stateMutability":"nonpayable","type":"constructor"},{"inputs":[{"internalType":"address","name":"owner","type":"address"}],"name":"OwnableInvalidOwner","type":"error"},{"inputs":[{"internalType":"address","name":"account","type":"address"}],"name":"OwnableUnauthorizedAccount","type":"error"},{"inputs":[],"name":"ReentrancyGuardReentrantCall","type":"error"},{"anonymous":false,"inputs":[{"indexed":true,"internalType":"string","name":"assetSymbol","type":"string"},{"indexed":false,"internalType":"address","name":"ftsoAddress","type":"address"}],"name":"FTSOContractSet","type":"event"},{"anonymous":false,"inputs":[{"indexed":true,"internalType":"address","name":"member","type":"address"}],"name":"MemberAdded","type":"event"},{"anonymous":false,"inputs":[{"indexed":true,"internalType":"address","name":"member","type":"address"}],"name":"MemberRemoved","type":"event"},{"anonymous":false,"inputs":[{"indexed":true,"internalType":"address","name":"previousOwner","type":"address"},{"indexed":true,"internalType":"address","name":"newOwner","type":"address"}],"name":"OwnershipTransferred","type":"event"},{"anonymous":false,"inputs":[{"indexed":true,"internalType":"uint256","name":"predictionId","type":"uint256"},{"indexed":false,"internalType":"uint256","name":"yesVotes","type":"uint256"},{"indexed":false,"internalType":"uint256","name":"totalVotes","type":"uint256"}],"name":"PredictionApproved","type":"event"},{"anonymous":false,"inputs":[{"indexed":true,"internalType":"uint256","name":"predictionId","type":"uint256"},{"indexed":true,"internalType":"address","name":"creator","type":"address"},{"indexed":false,"internalType":"string","name":"title","type":"string"},{"indexed":false,"internalType":"uint256","name":"refPrice","type":"uint256"},{"indexed":false,"internalType":"uint256","name":"stakedAmount","type":"uint256"}],"name":"PredictionCreated","type":"event"},{"anonymous":false,"inputs":[{"indexed":true,"internalType":"uint256","name":"predictionId","type":"uint256"},{"indexed":true,"internalType":"address","name":"creator","type":"address"},{"indexed":false,"internalType":"uint256","name":"amount","type":"uint256"}],"name":"StakeWithdrawn","type":"event"},{"anonymous":false,"inputs":[{"indexed":true,"internalType":"uint256","name":"predictionId","type":"uint256"},{"indexed":true,"internalType":"address","name":"voter","type":"address"},{"indexed":false,"internalType":"bool","name":"support","type":"bool"}],"name":"VoteCast","type":"event"},{"inputs":[],"name":"FXRP_TOKEN_ADDRESS","outputs":[{"internalType":"address","name":"","type":"address"}],"stateMutability":"view","type":"function"},{"inputs":[],"name":"MAX_VOTING_PERIOD","outputs":[{"internalType":"uint256","name":"","type":"uint256"}],"stateMutability":"view","type":"function"},{"inputs":[],"name":"MIN_STAKE","outputs":[{"internalType":"uint256","name":"","type":"uint256"}],"stateMutability":"view","type":"function"},{"inputs":[],"name":"MIN_VOTING_PERIOD","outputs":[{"internalType":"uint256","name":"","type":"uint256"}],"stateMutability":"view","type":"function"},{"inputs":[],"name":"VOTING_THRESHOLD","outputs":[{"internalType":"uint256","name":"","type":"uint256"}],"stateMutability":"view","type":"function"},{"inputs":[{"internalType":"address","name":"_member","type":"address"}],"name":"addMember","outputs":[],"stateMutability":"nonpayable","type":"function"},{"inputs":[{"internalType":"address","name":"_user","type":"address"},{"internalType":"uint256","name":"_amount","type":"uint256"}],"name":"checkFXRPAllowance","outputs":[{"internalType":"bool","name":"","type":"bool"}],"stateMutability":"view","type":"function"},{"inputs":[{"internalType":"string","name":"_title","type":"string"},{"internalType":"string","name":"_description","type":"string"},{"internalType":"string","name":"_category","type":"string"},{"internalType":"string","name":"_assetSymbol","type":"string"},{"internalType":"uint256","name":"_votingPeriod","type":"uint256"},{"internalType":"uint256","name":"_stakeAmount","type":"uint256"}],"name":"createPrediction","outputs":[{"internalType":"uint256","name":"","type":"uint256"}],"stateMutability":"nonpayable","type":"function"},{"inputs":[{"internalType":"uint256","name":"_predictionId","type":"uint256"}],"name":"finalizePrediction","outputs":[],"stateMutability":"nonpayable","type":"function"},{"inputs":[{"internalType":"string","name":"","type":"string"}],"name":"ftsoContracts","outputs":[{"internalType":"address","name":"","type":"address"}],"stateMutability":"view","type":"function"},{"inputs":[],"name":"getActivePredictions","outputs":[{"components":[{"internalType":"uint256","name":"id","type":"uint256"},{"internalType":"address","name":"creator","type":"address"},{"internalType":"string","name":"title","type":"string"},{"internalType":"string","name":"description","type":"string"},{"internalType":"string","name":"category","type":"string"},{"internalType":"string","name":"assetSymbol","type":"string"},{"internalType":"uint256","name":"endTime","type":"uint256"},{"internalType":"bool","name":"isActive","type":"bool"},{"internalType":"bool","name":"isApproved","type":"bool"},{"internalType":"uint256","name":"totalVotes","type":"uint256"},{"internalType":"uint256","name":"yesVotes","type":"uint256"},{"internalType":"uint256","name":"noVotes","type":"uint256"},{"internalType":"uint256","name":"createdAt","type":"uint256"},{"internalType":"uint256","name":"refPriceAtSubmission","type":"uint256"},{"internalType":"uint256","name":"priceTimestamp","type":"uint256"},{"internalType":"uint8","name":"priceDecimals","type":"uint8"},{"internalType":"bool","name":"priceSourceIsFTSO","type":"bool"},{"internalType":"uint256","name":"stakedAmount","type":"uint256"},{"internalType":"address","name":"stakeTokenAddress","type":"address"}],"internalType":"struct PredictionDAOWithFlare.Prediction[]","name":"","type":"tuple[]"}],"stateMutability":"view","type":"function"},{"inputs":[],"name":"getApprovedPredictions","outputs":[{"components":[{"internalType":"uint256","name":"id","type":"uint256"},{"internalType":"address","name":"creator","type":"address"},{"internalType":"string","name":"title","type":"string"},{"internalType":"string","name":"description","type":"string"},{"internalType":"string","name":"category","type":"string"},{"internalType":"string","name":"assetSymbol","type":"string"},{"internalType":"uint256","name":"endTime","type":"uint256"},{"internalType":"bool","name":"isActive","type":"bool"},{"internalType":"bool","name":"isApproved","type":"bool"},{"internalType":"uint256","name":"totalVotes","type":"uint256"},{"internalType":"uint256","name":"yesVotes","type":"uint256"},{"internalType":"uint256","name":"noVotes","type":"uint256"},{"internalType":"uint256","name":"createdAt","type":"uint256"},{"internalType":"uint256","name":"refPriceAtSubmission","type":"uint256"},{"internalType":"uint256","name":"priceTimestamp","type":"uint256"},{"internalType":"uint8","name":"priceDecimals","type":"uint8"},{"internalType":"bool","name":"priceSourceIsFTSO","type":"bool"},{"internalType":"uint256","name":"stakedAmount","type":"uint256"},{"internalType":"address","name":"stakeTokenAddress","type":"address"}],"internalType":"struct PredictionDAOWithFlare.Prediction[]","name":"","type":"tuple[]"}],"stateMutability":"view","type":"function"},{"inputs":[{"internalType":"address","name":"_account","type":"address"}],"name":"getFXRPBalance","outputs":[{"internalType":"uint256","name":"","type":"uint256"}],"stateMutability":"view","type":"function"},{"inputs":[{"internalType":"string","name":"_assetSymbol","type":"string"}],"name":"getLatestAssetPrice","outputs":[{"internalType":"uint256","name":"price","type":"uint256"},{"internalType":"uint8","name":"decimals","type":"uint8"},{"internalType":"uint256","name":"timestamp","type":"uint256"}],"stateMutability":"view","type":"function"},{"inputs":[{"internalType":"uint256","name":"_predictionId","type":"uint256"}],"name":"getPrediction","outputs":[{"components":[{"internalType":"uint256","name":"id","type":"uint256"},{"internalType":"address","name":"creator","type":"address"},{"internalType":"string","name":"title","type":"string"},{"internalType":"string","name":"description","type":"string"},{"internalType":"string","name":"category","type":"string"},{"internalType":"string","name":"assetSymbol","type":"string"},{"internalType":"uint256","name":"endTime","type":"uint256"},{"internalType":"bool","name":"isActive","type":"bool"},{"internalType":"bool","name":"isApproved","type":"bool"},{"internalType":"uint256","name":"totalVotes","type":"uint256"},{"internalType":"uint256","name":"yesVotes","type":"uint256"},{"internalType":"uint256","name":"noVotes","type":"uint256"},{"internalType":"uint256","name":"createdAt","type":"uint256"},{"internalType":"uint256","name":"refPriceAtSubmission","type":"uint256"},{"internalType":"uint256","name":"priceTimestamp","type":"uint256"},{"internalType":"uint8","name":"priceDecimals","type":"uint8"},{"internalType":"bool","name":"priceSourceIsFTSO","type":"bool"},{"internalType":"uint256","name":"stakedAmount","type":"uint256"},{"internalType":"address","name":"stakeTokenAddress","type":"address"}],"internalType":"struct PredictionDAOWithFlare.Prediction","name":"","type":"tuple"}],"stateMutability":"view","type":"function"},{"inputs":[],"name":"getPredictionCount","outputs":[{"internalType":"uint256","name":"","type":"uint256"}],"stateMutability":"view","type":"function"},{"inputs":[{"internalType":"uint256","name":"_predictionId","type":"uint256"}],"name":"getPredictionVotes","outputs":[{"components":[{"internalType":"address","name":"voter","type":"address"},{"internalType":"bool","name":"support","type":"bool"},{"internalType":"uint256","name":"timestamp","type":"uint256"}],"internalType":"struct PredictionDAOWithFlare.Vote[]","name":"","type":"tuple[]"}],"stateMutability":"view","type":"function"},{"inputs":[{"internalType":"uint256","name":"_predictionId","type":"uint256"}],"name":"getVotingStats","outputs":[{"internalType":"uint256","name":"yesVotes","type":"uint256"},{"internalType":"uint256","name":"noVotes","type":"uint256"},{"internalType":"uint256","name":"totalVotes","type":"uint256"},{"internalType":"uint256","name":"approvalPercentage","type":"uint256"}],"stateMutability":"view","type":"function"},{"inputs":[{"internalType":"uint256","name":"_predictionId","type":"uint256"},{"internalType":"address","name":"_user","type":"address"}],"name":"hasUserVoted","outputs":[{"internalType":"bool","name":"","type":"bool"}],"stateMutability":"view","type":"function"},{"inputs":[{"internalType":"uint256","name":"","type":"uint256"},{"internalType":"address","name":"","type":"address"}],"name":"hasVoted","outputs":[{"internalType":"bool","name":"","type":"bool"}],"stateMutability":"view","type":"function"},{"inputs":[{"internalType":"address","name":"","type":"address"}],"name":"isMember","outputs":[{"internalType":"bool","name":"","type":"bool"}],"stateMutability":"view","type":"function"},{"inputs":[],"name":"nextPredictionId","outputs":[{"internalType":"uint256","name":"","type":"uint256"}],"stateMutability":"view","type":"function"},{"inputs":[],"name":"owner","outputs":[{"internalType":"address","name":"","type":"address"}],"stateMutability":"view","type":"function"},{"inputs":[{"internalType":"uint256","name":"","type":"uint256"}],"name":"predictions","outputs":[{"internalType":"uint256","name":"id","type":"uint256"},{"internalType":"address","name":"creator","type":"address"},{"internalType":"string","name":"title","type":"string"},{"internalType":"string","name":"description","type":"string"},{"internalType":"string","name":"category","type":"string"},{"internalType":"string","name":"assetSymbol","type":"string"},{"internalType":"uint256","name":"endTime","type":"uint256"},{"internalType":"bool","name":"isActive","type":"bool"},{"internalType":"bool","name":"isApproved","type":"bool"},{"internalType":"uint256","name":"totalVotes","type":"uint256"},{"internalType":"uint256","name":"yesVotes","type":"uint256"},{"internalType":"uint256","name":"noVotes","type":"uint256"},{"internalType":"uint256","name":"createdAt","type":"uint256"},{"internalType":"uint256","name":"refPriceAtSubmission","type":"uint256"},{"internalType":"uint256","name":"priceTimestamp","type":"uint256"},{"internalType":"uint8","name":"priceDecimals","type":"uint8"},{"internalType":"bool","name":"priceSourceIsFTSO","type":"bool"},{"internalType":"uint256","name":"stakedAmount","type":"uint256"},{"internalType":"address","name":"stakeTokenAddress","type":"address"}],"stateMutability":"view","type":"function"},{"inputs":[{"internalType":"address","name":"_member","type":"address"}],"name":"removeMember","outputs":[],"stateMutability":"nonpayable","type":"function"},{"inputs":[],"name":"renounceOwnership","outputs":[],"stateMutability":"nonpayable","type":"function"},{"inputs":[{"internalType":"string","name":"_assetSymbol","type":"string"},{"internalType":"address","name":"_ftsoAddress","type":"address"}],"name":"setFTSOContract","outputs":[],"stateMutability":"nonpayable","type":"function"},{"inputs":[{"internalType":"address","name":"newOwner","type":"address"}],"name":"transferOwnership","outputs":[],"stateMutability":"nonpayable","type":"function"},{"inputs":[{"internalType":"uint256","name":"_predictionId","type":"uint256"},{"internalType":"bool","name":"_support","type":"bool"}],"name":"vote","outputs":[],"stateMutability":"nonpayable","type":"function"},{"inputs":[{"internalType":"uint256","name":"","type":"uint256"},{"internalType":"uint256","name":"","type":"uint256"}],"name":"votes","outputs":[{"internalType":"address","name":"voter","type":"address"},{"internalType":"bool","name":"support","type":"bool"},{"internalType":"uint256","name":"timestamp","type":"uint256"}],"stateMutability":"view","type":"function"},{"inputs":[{"internalType":"uint256","name":"_predictionId","type":"uint256"}],"name":"withdrawStake","outputs":[],"stateMutability":"nonpayable","type":"function"}],"evm":{"bytecode":{"linkReferences":{},"object":"6080604090808252346101005733156100ea5750600080546001600160a01b0319808216339081178455845191936023938692906001600160a01b03167f8be0079c531659141344cd1fd0a4f28419497f9722a3daafe3b4186f6b6457e08380a3600180556001600255338152600760205220600160ff198254161790556242544360e81b8152816003918280820152208381541690558184516208aa8960eb1b81528280820152208381541690558184516223262960e91b81528280820152208381541690558351906205852560ec1b82528082015220908154169055516123af90816101068239f35b631e4fbdf760e01b815260006004820152602490fd5b600080fdfe6040610100815260048036101561001557600080fd5b600091823560e01c80624fbbb014611ad25780630166809614611a9257806302796ed814611a775780630b1ca49a1461197c57806312a25089146118d8578063213bb75a14611707578063215809ca146116e957806325d5971f146114d35780633142208f1461143c57806343859632146113f557806354bc823d146111f1578063647b2916146110e4578063715018a61461108a5780638da5cb5b1461106257806394abb8cd146110465780639530c8b214610fdd578063a230c52414610f9f578063a33903e714610e91578063a64e024a14610e73578063a9d6921b14610c43578063af96f37b14610b8e578063b306c5be14610969578063c6e36a3214610904578063c9d27afe1461066a578063ca6d56dc146105ae578063cb1c2b5c1461058b578063d8d9292e1461056c578063dc296ae114610508578063e58d45271461035f578063f2fde38b146102d85763fe83bece1461017557600080fd5b346102d45760203660031901126102d457806102c5938335610195612222565b50801515806102c9575b6101a8906120fb565b815283602052209160108251936101be85611c75565b8054855260018101546001600160a01b03908116602087015292610204906101e860028401611ce6565b868801526101f860038401611ce6565b60608801528201611ce6565b608086015261021560058201611ce6565b60a0860152600681015460c086015260ff6007820154818116151560e088015260081c16151561010086015260088101546101208601526009810154610140860152600a810154610160860152600b810154610180860152600c8101546101a0860152600d8101546101c086015260ff600e8201548181166101e088015260081c161515610200860152600f81015461022086015201541661024083015251918291602083526020830190611e87565b0390f35b50600254811061019f565b8280fd5b5090346102d45760203660031901126102d4576102f3611dff565b906102fc612026565b6001600160a01b0391821692831561034957505082546001600160a01b0319811683178455167f8be0079c531659141344cd1fd0a4f28419497f9722a3daafe3b4186f6b6457e08380a380f35b51631e4fbdf760e01b8152908101849052602490fd5b50829034610504576020366003190112610504578235801515806104f9575b610387906120fb565b8252826020528082209080519061039d82611c75565b8254825260018301546001600160a01b039081166020840152936103c360028501611ce6565b828401526103d360038501611ce6565b60608401526103e3868501611ce6565b60808401526103f460058501611ce6565b60a0840152600684015460c084015260ff6007850154818116151560e086015260081c16151561010084015260088401549283610120820152610240600986015496876101408401526010600a8801549788610160860152600b810154610180860152600c8101546101a0860152600d8101546101c086015260ff600e8201548181166101e088015260081c161515610200860152600f8101546102208601520154169101528215156000146104ef576064850290858204606414861517156104dc575060809550826104c691612079565b925b815194855260208501528301526060820152f35b634e487b7160e01b815260118752602490fd5b60809550926104c8565b50600254811061037e565b5080fd5b5090346102d457816003193601126102d4578160209360ff923561052a611e1a565b9080151580610561575b61053d906120fb565b8252600586528282206001600160a01b039091168252855220549151911615158152f35b506002548110610534565b8382346105045781600319360112610504576020906002549051908152f35b83823461050457816003193601126105045760209051670de0b6b3a76400008152f35b50346102d45760203660031901126102d4576105c8611dff565b6105d0612026565b6001600160a01b0316916105e583151561233b565b828452600760205260ff8285205416610635575081835260076020528220805460ff191660011790557fb251eb052afc73ffd02ffe85ad79990a8b3fed60d76dbc2fa2fdd7123dffd9148280a280f35b6020606492519162461bcd60e51b8352820152601060248201526f20b63932b0b23c90309036b2b6b132b960811b6044820152fd5b50829034610504578060031936011261050457823560249384359283151591828503610900573386526020966007885260ff838820541680156108ed575b6106b190612099565b841515806108e2575b6106c3906120fb565b6106cb6120d8565b8487528188528287206106e460ff60078301541661213f565b600681015442116108a15785885260058952838820338952895260ff848920541661087057858852600589528388203389528952838820966001978860ff198254161790556008820180549089820180921161085e5755156108485760090180549087820180921161083657555b8487526006885282872090835161076881611ca8565b338152898101918683528582019342855280549068010000000000000000821015610824579061079c918b82018155611ff4565b95909561081457505051835491516001600160a81b03199092166001600160a01b03919091161790151560a01b60ff60a01b161782555190850155519081529293919261080f92339183917fe71fcdac32df1877c1700e7bda2a03157e20993363a28fc35ac495cefc76e4d491a361218b565b805580f35b634e487b7160e01b8b528a905289fd5b634e487b7160e01b8c5260418752828cfd5b634e487b7160e01b8952601184528289fd5b600a018054908782018092116108365755610752565b634e487b7160e01b8b5260118652848bfd5b50600d9088606494519362461bcd60e51b85528401528201526c105b1c9958591e481d9bdd1959609a1b6044820152fd5b5060179088606494519362461bcd60e51b85528401528201527f566f74696e6720706572696f642068617320656e6465640000000000000000006044820152fd5b5060025485106106ba565b5086546001600160a01b031633146106a8565b8580fd5b508234610966578160031936011261096657602435923581526006602052818120908154841015610966575060609261093c91611ff4565b5090600182549201549060ff81519360018060a01b038116855260a01c1615156020840152820152f35b80fd5b50346102d45760c03660031901126102d45767ffffffffffffffff9282358481116105045761099b9036908501611e30565b9060249283358681116102d4576109b59036908701611e30565b926044938435888111610b8a576109cf9036908901611e30565b506064978835908111610b8a576109e99036908901611e30565b5060843591338552610a106020956007875260ff8682205416908115610b76575b50612099565b610a186120d8565b5115610b40575115610b0357620151808110159081610af5575b5015610ac157670de0b6b3a764000060a43510610a855792601a917f4658525020746f6b656e2061646472657373206e6f742073657400000000000094519562461bcd60e51b8752860152840152820152fd5b92601a917f5374616b6520616d6f756e742062656c6f77206d696e696d756d00000000000094519562461bcd60e51b8752860152840152820152fd5b9260159174125b9d985b1a59081d9bdd1a5b99c81c195c9a5bd9605a1b94519562461bcd60e51b8752860152840152820152fd5b62093a809150111538610a32565b5092601b917f4465736372697074696f6e2063616e6e6f7420626520656d707479000000000094519562461bcd60e51b8752860152840152820152fd5b505092601591745469746c652063616e6e6f7420626520656d70747960581b94519562461bcd60e51b8752860152840152820152fd5b546001600160a01b03163314905038610a0a565b8480fd5b509190346105045760203660031901126105045780359081151580610c38575b610bb7906120fb565b8183528060205283832060078101916006835492610bd760ff851661213f565b0154421115610bf55750610bf293945060ff1916905561218b565b80f35b606490602087519162461bcd60e51b8352820152601760248201527f566f74696e6720706572696f64206e6f7420656e6465640000000000000000006044820152fd5b506002548210610bae565b5082903461050457816003193601126105045760028054908360015b838110610e125750610c70906122d7565b93809160015b848110610c8a578551806102c58982611f92565b808352856020898152818520600781015460ff908181168d818092610e04575b610cc4575b50505050505050610cbf906122c8565b610c76565b90610d1f601095949392889c999c5198610cdd8a611c75565b86548a5260018701546001600160a01b03908116998b0199909952610d038c8801611ce6565b908a0152610d1360038701611ce6565b60608a01528501611ce6565b6080880152610d3060058501611ce6565b60a0880152600684015460c0880152151560e087015281600891821c161515610100870152808301546101208701526009830154610140870152600a830154610160870152600b830154610180870152600c8301546101a0870152600d8301546101c0870152600e830154908282166101e08801521c161515610200850152600f810154610220850152015416610240820152610dcd8289612327565b52610dd88188612327565b5060018101809111610df157928589808080808d610caf565b634e487b7160e01b835260118852602483fd5b506006850154421115610caa565b8086528660205284862060ff6007820154169081610e64575b50610e3f575b610e3a906122c8565b610c5f565b9060018101809111610e515790610e31565b634e487b7160e01b865260118752602486fd5b60069150015442111588610e2b565b8382346105045781600319360112610504576020905162093a808152f35b5091903461050457602090816003193601126102d4573580151580610f94575b610ebd909392936120fb565b815260068252828120908154610ed2816122b0565b90610edf86519283611cc4565b8082528482018094845285842084915b838310610f4d5750505050845193808501918186525180925285850193925b828110610f1b5785850386f35b835180516001600160a01b03168652808301511515868401528701518786015260609094019392810192600101610f0e565b6002886001928b9a97989a51610f6281611ca8565b60ff8654868060a01b038116835260a01c16151583820152848601548d82015281520192019201919096949396610eef565b506002548110610eb1565b8382346105045760203660031901126105045760209160ff9082906001600160a01b03610fca611dff565b1681526007855220541690519015158152f35b5082346109665760203660031901126109665782359067ffffffffffffffff8211610966575060209261101291369101611e30565b8261102583519283815193849201611db7565b6003908201908152819003830190205490516001600160a01b039091168152f35b8382346105045781600319360112610504576020905160468152f35b838234610504578160031936011261050457905490516001600160a01b039091168152602090f35b83346109665780600319360112610966576110a3612026565b80546001600160a01b03198116825581906001600160a01b03167f8be0079c531659141344cd1fd0a4f28419497f9722a3daafe3b4186f6b6457e08280a380f35b5090346102d457816003193601126102d457803567ffffffffffffffff81116111ed576111149036908301611e30565b61111c611e1a565b611124612026565b6001600160a01b03169182156111b357507faf6142d3bb5a4d6bb306cc8e5a7e3753c96285fc9587dff01b6e44c306075fa1916111a5602092855190805191858181840194611174818388611db7565b81016003815203019020846bffffffffffffffffffffffff60a01b8254161790558651928392839251928391611db7565b81010390209351908152a280f35b606490602085519162461bcd60e51b83528201526014602482015273496e76616c6964204654534f206164647265737360601b6044820152fd5b8380fd5b509190346105045781600319360112610504576002805491908360015b8481106113a9575061121f906122d7565b93809160015b858110611239578751806102c58982611f92565b808352876020868152818520600781015460ff906008908281831c169081611271575b5050505050505061126c906122c8565b611225565b8390879b989b519761128289611c75565b8654895260018701546001600160a01b03908116988a01989098526112a88b8801611ce6565b908901526112b860038701611ce6565b60608901526112c8868e01611ce6565b60808901526112d960058701611ce6565b60a0890152600686015460c089015216151560e08701521515610100860152808301546101208601526009830154610140860152600a830154610160860152600b830154610180860152600c8301546101a0860152600d8301546101c0860152600e830154908282166101e08701521c161515610200840152600f81015461022084015260100154166102408201526113728289612327565b5261137d8188612327565b506001810180911161139657928738808080808061125c565b634e487b7160e01b835260118552602483fd5b8086528360205260ff6007888820015460081c166113d0575b6113cb906122c8565b61120e565b90600181018091116113e257906113c2565b634e487b7160e01b865260118452602486fd5b5090346102d457816003193601126102d4578160209360ff92611416611e1a565b90358252600586528282206001600160a01b039091168252855220549151911615158152f35b5082903461050457602092836003193601126102d45761145a611dff565b82516370a0823160e01b81526001600160a01b03909116918101919091528381602481865afa9283156114c8578093611496575b505051908152f35b909192508382813d83116114c1575b6114af8183611cc4565b8101031261096657505190838061148e565b503d6114a5565b8251903d90823e3d90fd5b50346102d4576020806003193601126111ed57823591821515806116de575b6114fb906120fb565b6115036120d8565b82855283825280852060018101546001600160a01b0316330361169b5760ff60078201541661165857600f0193845494851561161f57869055815163a9059cbb60e01b815233828201526024810186905283816044818a805af19081156116155787916115db575b50156115a35750907f459d5aef2c549903c1eeb1736f5728845d5ccf82537ddd5bf8035795eee8926391519384523393a36001805580f35b82606492519162461bcd60e51b8352820152601460248201527311961494081d1c985b9cd9995c8819985a5b195960621b6044820152fd5b90508381813d831161160e575b6115f28183611cc4565b8101031261160a5751801515810361160a573861156b565b8680fd5b503d6115e8565b83513d89823e3d90fd5b5082606492519162461bcd60e51b835282015260146024820152734e6f207374616b6520746f20776974686472617760601b6044820152fd5b815162461bcd60e51b8152808601849052601760248201527f50726564696374696f6e207374696c6c206163746976650000000000000000006044820152606490fd5b815162461bcd60e51b8152808601849052601960248201527f4f6e6c792063726561746f722063616e207769746864726177000000000000006044820152606490fd5b5060025483106114f2565b83823461050457816003193601126105045760209051620151808152f35b50346102d457602090816003193601126111ed57823567ffffffffffffffff8111610b8a576117399036908501611e30565b8261174c83519283815193849201611db7565b600390820190815281900383019020546001600160a01b031693841561188a5781516375c8e9bf60e11b815291906060838681895afa801561187e57819082948391611841575b5060ff169160088310156117ee578260080360ff81116117db576117b690612052565b918281029281840414901517156104dc575060609550935b8251948552840152820152f35b634e487b7160e01b825260118852602482fd5b60088311156118365760071983019060ff82116118235750606096509061181761181d92612052565b90612079565b936117ce565b634e487b7160e01b815260118852602490fd5b5060609550936117ce565b945050506060833d8211611876575b8161185d60609383611cc4565b81010312610966578251848401519383015160ff611793565b3d9150611850565b509051903d90823e3d90fd5b505162461bcd60e51b8152918201526024808201527f4654534f20636f6e7472616374206e6f742073657420666f72207468697320616044820152631cdcd95d60e21b606482015260849150fd5b50346102d457806003193601126102d4576118f1611dff565b8151636eb1769f60e11b81526001600160a01b0390911692810192909252306024830152602082604481865afa91821561197257839261193b575b60208383519060243511158152f35b9091506020813d821161196a575b8161195660209383611cc4565b810103126102d4576020925051903861192c565b3d9150611949565b81513d85823e3d90fd5b50346102d45760203660031901126102d457611996611dff565b9161199f612026565b6001600160a01b03928316926119b684151561233b565b838552600760205260ff838620541615611a45578454168314611a0d575081835260076020528220805460ff191690557f6e76fb4c77256006d9c38ec7d82b45a8c8f3c27b1d6766fffc42dfb8de6844928280a280f35b6020606492519162461bcd60e51b8352820152601360248201527221b0b73737ba103932b6b7bb329037bbb732b960691b6044820152fd5b506020606492519162461bcd60e51b8352820152600c60248201526b2737ba10309036b2b6b132b960a11b6044820152fd5b83823461050457816003193601126105045751908152602090f35b50829034610504578160031936011261050457600254600019810192908311611abf576020838351908152f35b634e487b7160e01b815260118452602490fd5b50823461096657602036600319011261096657823581526020839052819020805460e05260018101546001600160a01b0390811692611b1360028401611ce6565b60c052611b2260038401611ce6565b948301611b2e90611ce6565b94611b3b60058501611ce6565b9560068501546080526007850154966008860154600987015490600a88015492600b89015494600c8a015496600d8b015498600e8c01549a600f8d01549c60100154169c81518060a05260e051905260a05160200152610260809160a051015260a0510160c05190611bac91611dda565b60a0518082039060600152611bc091611dda565b60a0518082039060800152611bd491611dda565b60a0518082039060a00152611be891611dda565b9960805160a05160c0015260ff8116151560a05160e0015260081c60ff16151560a051610100015260a051610120015260a051610140015260a051610160015260a051610180015260a0516101a0015260a0516101c0015260ff811660a0516101e0015260081c60ff16151560a051610200015260a051610220015260a051610240015260a05180910390f35b610260810190811067ffffffffffffffff821117611c9257604052565b634e487b7160e01b600052604160045260246000fd5b6060810190811067ffffffffffffffff821117611c9257604052565b90601f8019910116810190811067ffffffffffffffff821117611c9257604052565b90604051906000835490600182811c90808416968715611dad575b6020948584108914611d995787988489979899529081600014611d775750600114611d38575b505050611d3692500383611cc4565b565b600090815285812095935091905b818310611d5f575050611d369350820101388080611d27565b85548884018501529485019487945091830191611d46565b92505050611d3694925060ff191682840152151560051b820101388080611d27565b634e487b7160e01b85526022600452602485fd5b91607f1691611d01565b60005b838110611dca5750506000910152565b8181015183820152602001611dba565b90602091611df381518092818552858086019101611db7565b601f01601f1916010190565b600435906001600160a01b0382168203611e1557565b600080fd5b602435906001600160a01b0382168203611e1557565b81601f82011215611e155780359067ffffffffffffffff8211611c925760405192611e65601f8401601f191660200185611cc4565b82845260208383010111611e1557816000926020809301838601378301015290565b908151815260018060a01b0391826020820151166020830152611ef8611ee6611ed4611ec26040850151610260806040890152870190611dda565b60608501518682036060880152611dda565b60808401518582036080870152611dda565b60a083015184820360a0860152611dda565b9260c082015160c084015260e0820151151560e08401526101008083015115159084015261012080830151908401526101408083015190840152610160808301519084015261018080830151908401526101a080830151908401526101c080830151908401526101e060ff818401511690840152610200808301511515908401526102208083015190840152610240809201511691015290565b602080820190808352835180925260408301928160408460051b8301019501936000915b848310611fc65750505050505090565b9091929394958480611fe4600193603f198682030187528a51611e87565b9801930193019194939290611fb6565b80548210156120105760005260206000209060011b0190600090565b634e487b7160e01b600052603260045260246000fd5b6000546001600160a01b0316330361203a57565b60405163118cdaa760e01b8152336004820152602490fd5b60ff16604d811161206357600a0a90565b634e487b7160e01b600052601160045260246000fd5b8115612083570490565b634e487b7160e01b600052601260045260246000fd5b156120a057565b60405162461bcd60e51b815260206004820152601060248201526f2737ba1030902220a79036b2b6b132b960811b6044820152606490fd5b6002600154146120e9576002600155565b604051633ee5aeb560e01b8152600490fd5b1561210257565b60405162461bcd60e51b8152602060048201526015602482015274125b9d985b1a59081c1c99591a58dd1a5bdb881251605a1b6044820152606490fd5b1561214657565b60405162461bcd60e51b815260206004820152601860248201527f50726564696374696f6e206973206e6f742061637469766500000000000000006044820152606490fd5b8060005260046020526040600020600881015490816121a957505050565b60098101546064810281810460641482151715612063576121cc84604692612079565b10156121d9575b50505050565b7fff2bf007ea94c88312b7aa52f9c827197917a6fd36abce6d4b727a14840fed6c9260076040930161010061ffff1982541617905582519182526020820152a2388080806121d3565b6040519061222f82611c75565b816102406000918281528260208201526060604082015260608082015260606080820152606060a08201528260c08201528260e08201528261010082015282610120820152826101408201528261016082015282610180820152826101a0820152826101c0820152826101e082015282610200820152826102208201520152565b67ffffffffffffffff8111611c925760051b60200190565b60001981146120635760010190565b906122e1826122b0565b6122ee6040519182611cc4565b82815280926122ff601f19916122b0565b019060005b82811061231057505050565b60209061231b612222565b82828501015201612304565b80518210156120105760209160051b010190565b1561234257565b60405162461bcd60e51b815260206004820152600f60248201526e496e76616c6964206164647265737360881b6044820152606490fdfea26469706673582212209b3963029139c46323b606a4ffc4e35f4051931b1a408510423f359e03bbb73064736f6c63430008140033","opcodes":"PUSH1 0x80 PUSH1 0x40 SWAP1 DUP1 DUP3 MSTORE CALLVALUE PUSH2 0x100 JUMPI CALLER ISZERO PUSH2 0xEA JUMPI POP PUSH1 0x0 DUP1 SLOAD PUSH1 0x1 PUSH1 0x1 PUSH1 0xA0 SHL SUB NOT DUP1 DUP3 AND CALLER SWAP1 DUP2 OR DUP5 SSTORE DUP5 MLOAD SWAP2 SWAP4 PUSH1 0x23 SWAP4 DUP7 SWAP3 SWAP1 PUSH1 0x1 PUSH1 0x1 PUSH1 0xA0 SHL SUB AND PUSH32 0x8BE0079C531659141344CD1FD0A4F28419497F9722A3DAAFE3B4186F6B6457E0 DUP4 DUP1 LOG3 PUSH1 0x1 DUP1 SSTORE PUSH1 0x1 PUSH1 0x2 SSTORE CALLER DUP2 MSTORE PUSH1 0x7 PUSH1 0x20 MSTORE KECCAK256 PUSH1 0x1 PUSH1 0xFF NOT DUP3 SLOAD AND OR SWAP1 SSTORE PUSH3 0x425443 PUSH1 0xE8 SHL DUP2 MSTORE DUP2 PUSH1 0x3 SWAP2 DUP3 DUP1 DUP3 ADD MSTORE KECCAK256 DUP4 DUP2 SLOAD AND SWAP1 SSTORE DUP2 DUP5 MLOAD PUSH3 0x8AA89 PUSH1 0xEB SHL DUP2 MSTORE DUP3 DUP1 DUP3 ADD MSTORE KECCAK256 DUP4 DUP2 SLOAD AND SWAP1 SSTORE DUP2 DUP5 MLOAD PUSH3 0x232629 PUSH1 0xE9 SHL DUP2 MSTORE DUP3 DUP1 DUP3 ADD MSTORE KECCAK256 DUP4 DUP2 SLOAD AND SWAP1 SSTORE DUP4 MLOAD SWAP1 PUSH3 0x58525 PUSH1 0xEC SHL DUP3 MSTORE DUP1 DUP3 ADD MSTORE KECCAK256 SWAP1 DUP2 SLOAD AND SWAP1 SSTORE MLOAD PUSH2 0x23AF SWAP1 DUP2 PUSH2 0x106 DUP3 CODECOPY RETURN JUMPDEST PUSH4 0x1E4FBDF7 PUSH1 0xE0 SHL DUP2 MSTORE PUSH1 0x0 PUSH1 0x4 DUP3 ADD MSTORE PUSH1 0x24 SWAP1 REVERT JUMPDEST PUSH1 0x0 DUP1 REVERT INVALID PUSH1 0x40 PUSH2 0x100 DUP2 MSTORE PUSH1 0x4 DUP1 CALLDATASIZE LT ISZERO PUSH2 0x15 JUMPI PUSH1 0x0 DUP1 REVERT JUMPDEST PUSH1 0x0 SWAP2 DUP3 CALLDATALOAD PUSH1 0xE0 SHR DUP1 PUSH3 0x4FBBB0 EQ PUSH2 0x1AD2 JUMPI DUP1 PUSH4 0x1668096 EQ PUSH2 0x1A92 JUMPI DUP1 PUSH4 0x2796ED8 EQ PUSH2 0x1A77 JUMPI DUP1 PUSH4 0xB1CA49A EQ PUSH2 0x197C JUMPI DUP1 PUSH4 0x12A25089 EQ PUSH2 0x18D8 JUMPI DUP1 PUSH4 0x213BB75A EQ PUSH2 0x1707 JUMPI DUP1 PUSH4 0x215809CA EQ PUSH2 0x16E9 JUMPI DUP1 PUSH4 0x25D5971F EQ PUSH2 0x14D3 JUMPI DUP1 PUSH4 0x3142208F EQ PUSH2 0x143C JUMPI DUP1 PUSH4 0x43859632 EQ PUSH2 0x13F5 JUMPI DUP1 PUSH4 0x54BC823D EQ PUSH2 0x11F1 JUMPI DUP1 PUSH4 0x647B2916 EQ PUSH2 0x10E4 JUMPI DUP1 PUSH4 0x715018A6 EQ PUSH2 0x108A JUMPI DUP1 PUSH4 0x8DA5CB5B EQ PUSH2 0x1062 JUMPI DUP1 PUSH4 0x94ABB8CD EQ PUSH2 0x1046 JUMPI DUP1 PUSH4 0x9530C8B2 EQ PUSH2 0xFDD JUMPI DUP1 PUSH4 0xA230C524 EQ PUSH2 0xF9F JUMPI DUP1 PUSH4 0xA33903E7 EQ PUSH2 0xE91 JUMPI DUP1 PUSH4 0xA64E024A EQ PUSH2 0xE73 JUMPI DUP1 PUSH4 0xA9D6921B EQ PUSH2 0xC43 JUMPI DUP1 PUSH4 0xAF96F37B EQ PUSH2 0xB8E JUMPI DUP1 PUSH4 0xB306C5BE EQ PUSH2 0x969 JUMPI DUP1 PUSH4 0xC6E36A32 EQ PUSH2 0x904 JUMPI DUP1 PUSH4 0xC9D27AFE EQ PUSH2 0x66A JUMPI DUP1 PUSH4 0xCA6D56DC EQ PUSH2 0x5AE JUMPI DUP1 PUSH4 0xCB1C2B5C EQ PUSH2 0x58B JUMPI DUP1 PUSH4 0xD8D9292E EQ PUSH2 0x56C JUMPI DUP1 PUSH4 0xDC296AE1 EQ PUSH2 0x508 JUMPI DUP1 PUSH4 0xE58D4527 EQ PUSH2 0x35F JUMPI DUP1 PUSH4 0xF2FDE38B EQ PUSH2 0x2D8 JUMPI PUSH4 0xFE83BECE EQ PUSH2 0x175 JUMPI PUSH1 0x0 DUP1 REVERT JUMPDEST CALLVALUE PUSH2 0x2D4 JUMPI PUSH1 0x20 CALLDATASIZE PUSH1 0x3 NOT ADD SLT PUSH2 0x2D4 JUMPI DUP1 PUSH2 0x2C5 SWAP4 DUP4 CALLDATALOAD PUSH2 0x195 PUSH2 0x2222 JUMP JUMPDEST POP DUP1 ISZERO ISZERO DUP1 PUSH2 0x2C9 JUMPI JUMPDEST PUSH2 0x1A8 SWAP1 PUSH2 0x20FB JUMP JUMPDEST DUP2 MSTORE DUP4 PUSH1 0x20 MSTORE KECCAK256 SWAP2 PUSH1 0x10 DUP3 MLOAD SWAP4 PUSH2 0x1BE DUP6 PUSH2 0x1C75 JUMP JUMPDEST DUP1 SLOAD DUP6 MSTORE PUSH1 0x1 DUP2 ADD SLOAD PUSH1 0x1 PUSH1 0x1 PUSH1 0xA0 SHL SUB SWAP1 DUP2 AND PUSH1 0x20 DUP8 ADD MSTORE SWAP3 PUSH2 0x204 SWAP1 PUSH2 0x1E8 PUSH1 0x2 DUP5 ADD PUSH2 0x1CE6 JUMP JUMPDEST DUP7 DUP9 ADD MSTORE PUSH2 0x1F8 PUSH1 0x3 DUP5 ADD PUSH2 0x1CE6 JUMP JUMPDEST PUSH1 0x60 DUP9 ADD MSTORE DUP3 ADD PUSH2 0x1CE6 JUMP JUMPDEST PUSH1 0x80 DUP7 ADD MSTORE PUSH2 0x215 PUSH1 0x5 DUP3 ADD PUSH2 0x1CE6 JUMP JUMPDEST PUSH1 0xA0 DUP7 ADD MSTORE PUSH1 0x6 DUP2 ADD SLOAD PUSH1 0xC0 DUP7 ADD MSTORE PUSH1 0xFF PUSH1 0x7 DUP3 ADD SLOAD DUP2 DUP2 AND ISZERO ISZERO PUSH1 0xE0 DUP9 ADD MSTORE PUSH1 0x8 SHR AND ISZERO ISZERO PUSH2 0x100 DUP7 ADD MSTORE PUSH1 0x8 DUP2 ADD SLOAD PUSH2 0x120 DUP7 ADD MSTORE PUSH1 0x9 DUP2 ADD SLOAD PUSH2 0x140 DUP7 ADD MSTORE PUSH1 0xA DUP2 ADD SLOAD PUSH2 0x160 DUP7 ADD MSTORE PUSH1 0xB DUP2 ADD SLOAD PUSH2 0x180 DUP7 ADD MSTORE PUSH1 0xC DUP2 ADD SLOAD PUSH2 0x1A0 DUP7 ADD MSTORE PUSH1 0xD DUP2 ADD SLOAD PUSH2 0x1C0 DUP7 ADD MSTORE PUSH1 0xFF PUSH1 0xE DUP3 ADD SLOAD DUP2 DUP2 AND PUSH2 0x1E0 DUP9 ADD MSTORE PUSH1 0x8 SHR AND ISZERO ISZERO PUSH2 0x200 DUP7 ADD MSTORE PUSH1 0xF DUP2 ADD SLOAD PUSH2 0x220 DUP7 ADD MSTORE ADD SLOAD AND PUSH2 0x240 DUP4 ADD MSTORE MLOAD SWAP2 DUP3 SWAP2 PUSH1 0x20 DUP4 MSTORE PUSH1 0x20 DUP4 ADD SWAP1 PUSH2 0x1E87 JUMP JUMPDEST SUB SWAP1 RETURN JUMPDEST POP PUSH1 0x2 SLOAD DUP2 LT PUSH2 0x19F JUMP JUMPDEST DUP3 DUP1 REVERT JUMPDEST POP SWAP1 CALLVALUE PUSH2 0x2D4 JUMPI PUSH1 0x20 CALLDATASIZE PUSH1 0x3 NOT ADD SLT PUSH2 0x2D4 JUMPI PUSH2 0x2F3 PUSH2 0x1DFF JUMP JUMPDEST SWAP1 PUSH2 0x2FC PUSH2 0x2026 JUMP JUMPDEST PUSH1 0x1 PUSH1 0x1 PUSH1 0xA0 SHL SUB SWAP2 DUP3 AND SWAP3 DUP4 ISZERO PUSH2 0x349 JUMPI POP POP DUP3 SLOAD PUSH1 0x1 PUSH1 0x1 PUSH1 0xA0 SHL SUB NOT DUP2 AND DUP4 OR DUP5 SSTORE AND PUSH32 0x8BE0079C531659141344CD1FD0A4F28419497F9722A3DAAFE3B4186F6B6457E0 DUP4 DUP1 LOG3 DUP1 RETURN JUMPDEST MLOAD PUSH4 0x1E4FBDF7 PUSH1 0xE0 SHL DUP2 MSTORE SWAP1 DUP2 ADD DUP5 SWAP1 MSTORE PUSH1 0x24 SWAP1 REVERT JUMPDEST POP DUP3 SWAP1 CALLVALUE PUSH2 0x504 JUMPI PUSH1 0x20 CALLDATASIZE PUSH1 0x3 NOT ADD SLT PUSH2 0x504 JUMPI DUP3 CALLDATALOAD DUP1 ISZERO ISZERO DUP1 PUSH2 0x4F9 JUMPI JUMPDEST PUSH2 0x387 SWAP1 PUSH2 0x20FB JUMP JUMPDEST DUP3 MSTORE DUP3 PUSH1 0x20 MSTORE DUP1 DUP3 KECCAK256 SWAP1 DUP1 MLOAD SWAP1 PUSH2 0x39D DUP3 PUSH2 0x1C75 JUMP JUMPDEST DUP3 SLOAD DUP3 MSTORE PUSH1 0x1 DUP4 ADD SLOAD PUSH1 0x1 PUSH1 0x1 PUSH1 0xA0 SHL SUB SWAP1 DUP2 AND PUSH1 0x20 DUP5 ADD MSTORE SWAP4 PUSH2 0x3C3 PUSH1 0x2 DUP6 ADD PUSH2 0x1CE6 JUMP JUMPDEST DUP3 DUP5 ADD MSTORE PUSH2 0x3D3 PUSH1 0x3 DUP6 ADD PUSH2 0x1CE6 JUMP JUMPDEST PUSH1 0x60 DUP5 ADD MSTORE PUSH2 0x3E3 DUP7 DUP6 ADD PUSH2 0x1CE6 JUMP JUMPDEST PUSH1 0x80 DUP5 ADD MSTORE PUSH2 0x3F4 PUSH1 0x5 DUP6 ADD PUSH2 0x1CE6 JUMP JUMPDEST PUSH1 0xA0 DUP5 ADD MSTORE PUSH1 0x6 DUP5 ADD SLOAD PUSH1 0xC0 DUP5 ADD MSTORE PUSH1 0xFF PUSH1 0x7 DUP6 ADD SLOAD DUP2 DUP2 AND ISZERO ISZERO PUSH1 0xE0 DUP7 ADD MSTORE PUSH1 0x8 SHR AND ISZERO ISZERO PUSH2 0x100 DUP5 ADD MSTORE PUSH1 0x8 DUP5 ADD SLOAD SWAP3 DUP4 PUSH2 0x120 DUP3 ADD MSTORE PUSH2 0x240 PUSH1 0x9 DUP7 ADD SLOAD SWAP7 DUP8 PUSH2 0x140 DUP5 ADD MSTORE PUSH1 0x10 PUSH1 0xA DUP9 ADD SLOAD SWAP8 DUP9 PUSH2 0x160 DUP7 ADD MSTORE PUSH1 0xB DUP2 ADD SLOAD PUSH2 0x180 DUP7 ADD MSTORE PUSH1 0xC DUP2 ADD SLOAD PUSH2 0x1A0 DUP7 ADD MSTORE PUSH1 0xD DUP2 ADD SLOAD PUSH2 0x1C0 DUP7 ADD MSTORE PUSH1 0xFF PUSH1 0xE DUP3 ADD SLOAD DUP2 DUP2 AND PUSH2 0x1E0 DUP9 ADD MSTORE PUSH1 0x8 SHR AND ISZERO ISZERO PUSH2 0x200 DUP7 ADD MSTORE PUSH1 0xF DUP2 ADD SLOAD PUSH2 0x220 DUP7 ADD MSTORE ADD SLOAD AND SWAP2 ADD MSTORE DUP3 ISZERO ISZERO PUSH1 0x0 EQ PUSH2 0x4EF JUMPI PUSH1 0x64 DUP6 MUL SWAP1 DUP6 DUP3 DIV PUSH1 0x64 EQ DUP7 ISZERO OR ISZERO PUSH2 0x4DC JUMPI POP PUSH1 0x80 SWAP6 POP DUP3 PUSH2 0x4C6 SWAP2 PUSH2 0x2079 JUMP JUMPDEST SWAP3 JUMPDEST DUP2 MLOAD SWAP5 DUP6 MSTORE PUSH1 0x20 DUP6 ADD MSTORE DUP4 ADD MSTORE PUSH1 0x60 DUP3 ADD MSTORE RETURN JUMPDEST PUSH4 0x4E487B71 PUSH1 0xE0 SHL DUP2 MSTORE PUSH1 0x11 DUP8 MSTORE PUSH1 0x24 SWAP1 REVERT JUMPDEST PUSH1 0x80 SWAP6 POP SWAP3 PUSH2 0x4C8 JUMP JUMPDEST POP PUSH1 0x2 SLOAD DUP2 LT PUSH2 0x37E JUMP JUMPDEST POP DUP1 REVERT JUMPDEST POP SWAP1 CALLVALUE PUSH2 0x2D4 JUMPI DUP2 PUSH1 0x3 NOT CALLDATASIZE ADD SLT PUSH2 0x2D4 JUMPI DUP2 PUSH1 0x20 SWAP4 PUSH1 0xFF SWAP3 CALLDATALOAD PUSH2 0x52A PUSH2 0x1E1A JUMP JUMPDEST SWAP1 DUP1 ISZERO ISZERO DUP1 PUSH2 0x561 JUMPI JUMPDEST PUSH2 0x53D SWAP1 PUSH2 0x20FB JUMP JUMPDEST DUP3 MSTORE PUSH1 0x5 DUP7 MSTORE DUP3 DUP3 KECCAK256 PUSH1 0x1 PUSH1 0x1 PUSH1 0xA0 SHL SUB SWAP1 SWAP2 AND DUP3 MSTORE DUP6 MSTORE KECCAK256 SLOAD SWAP2 MLOAD SWAP2 AND ISZERO ISZERO DUP2 MSTORE RETURN JUMPDEST POP PUSH1 0x2 SLOAD DUP2 LT PUSH2 0x534 JUMP JUMPDEST DUP4 DUP3 CALLVALUE PUSH2 0x504 JUMPI DUP2 PUSH1 0x3 NOT CALLDATASIZE ADD SLT PUSH2 0x504 JUMPI PUSH1 0x20 SWAP1 PUSH1 0x2 SLOAD SWAP1 MLOAD SWAP1 DUP2 MSTORE RETURN JUMPDEST DUP4 DUP3 CALLVALUE PUSH2 0x504 JUMPI DUP2 PUSH1 0x3 NOT CALLDATASIZE ADD SLT PUSH2 0x504 JUMPI PUSH1 0x20 SWAP1 MLOAD PUSH8 0xDE0B6B3A7640000 DUP2 MSTORE RETURN JUMPDEST POP CALLVALUE PUSH2 0x2D4 JUMPI PUSH1 0x20 CALLDATASIZE PUSH1 0x3 NOT ADD SLT PUSH2 0x2D4 JUMPI PUSH2 0x5C8 PUSH2 0x1DFF JUMP JUMPDEST PUSH2 0x5D0 PUSH2 0x2026 JUMP JUMPDEST PUSH1 0x1 PUSH1 0x1 PUSH1 0xA0 SHL SUB AND SWAP2 PUSH2 0x5E5 DUP4 ISZERO ISZERO PUSH2 0x233B JUMP JUMPDEST DUP3 DUP5 MSTORE PUSH1 0x7 PUSH1 0x20 MSTORE PUSH1 0xFF DUP3 DUP6 KECCAK256 SLOAD AND PUSH2 0x635 JUMPI POP DUP2 DUP4 MSTORE PUSH1 0x7 PUSH1 0x20 MSTORE DUP3 KECCAK256 DUP1 SLOAD PUSH1 0xFF NOT AND PUSH1 0x1 OR SWAP1 SSTORE PUSH32 0xB251EB052AFC73FFD02FFE85AD79990A8B3FED60D76DBC2FA2FDD7123DFFD914 DUP3 DUP1 LOG2 DUP1 RETURN JUMPDEST PUSH1 0x20 PUSH1 0x64 SWAP3 MLOAD SWAP2 PUSH3 0x461BCD PUSH1 0xE5 SHL DUP4 MSTORE DUP3 ADD MSTORE PUSH1 0x10 PUSH1 0x24 DUP3 ADD MSTORE PUSH16 0x20B63932B0B23C90309036B2B6B132B9 PUSH1 0x81 SHL PUSH1 0x44 DUP3 ADD MSTORE REVERT JUMPDEST POP DUP3 SWAP1 CALLVALUE PUSH2 0x504 JUMPI DUP1 PUSH1 0x3 NOT CALLDATASIZE ADD SLT PUSH2 0x504 JUMPI DUP3 CALLDATALOAD PUSH1 0x24 SWAP4 DUP5 CALLDATALOAD SWAP3 DUP4 ISZERO ISZERO SWAP2 DUP3 DUP6 SUB PUSH2 0x900 JUMPI CALLER DUP7 MSTORE PUSH1 0x20 SWAP7 PUSH1 0x7 DUP9 MSTORE PUSH1 0xFF DUP4 DUP9 KECCAK256 SLOAD AND DUP1 ISZERO PUSH2 0x8ED JUMPI JUMPDEST PUSH2 0x6B1 SWAP1 PUSH2 0x2099 JUMP JUMPDEST DUP5 ISZERO ISZERO DUP1 PUSH2 0x8E2 JUMPI JUMPDEST PUSH2 0x6C3 SWAP1 PUSH2 0x20FB JUMP JUMPDEST PUSH2 0x6CB PUSH2 0x20D8 JUMP JUMPDEST DUP5 DUP8 MSTORE DUP2 DUP9 MSTORE DUP3 DUP8 KECCAK256 PUSH2 0x6E4 PUSH1 0xFF PUSH1 0x7 DUP4 ADD SLOAD AND PUSH2 0x213F JUMP JUMPDEST PUSH1 0x6 DUP2 ADD SLOAD TIMESTAMP GT PUSH2 0x8A1 JUMPI DUP6 DUP9 MSTORE PUSH1 0x5 DUP10 MSTORE DUP4 DUP9 KECCAK256 CALLER DUP10 MSTORE DUP10 MSTORE PUSH1 0xFF DUP5 DUP10 KECCAK256 SLOAD AND PUSH2 0x870 JUMPI DUP6 DUP9 MSTORE PUSH1 0x5 DUP10 MSTORE DUP4 DUP9 KECCAK256 CALLER DUP10 MSTORE DUP10 MSTORE DUP4 DUP9 KECCAK256 SWAP7 PUSH1 0x1 SWAP8 DUP9 PUSH1 0xFF NOT DUP3 SLOAD AND OR SWAP1 SSTORE PUSH1 0x8 DUP3 ADD DUP1 SLOAD SWAP1 DUP10 DUP3 ADD DUP1 SWAP3 GT PUSH2 0x85E JUMPI SSTORE ISZERO PUSH2 0x848 JUMPI PUSH1 0x9 ADD DUP1 SLOAD SWAP1 DUP8 DUP3 ADD DUP1 SWAP3 GT PUSH2 0x836 JUMPI SSTORE JUMPDEST DUP5 DUP8 MSTORE PUSH1 0x6 DUP9 MSTORE DUP3 DUP8 KECCAK256 SWAP1 DUP4 MLOAD PUSH2 0x768 DUP2 PUSH2 0x1CA8 JUMP JUMPDEST CALLER DUP2 MSTORE DUP10 DUP2 ADD SWAP2 DUP7 DUP4 MSTORE DUP6 DUP3 ADD SWAP4 TIMESTAMP DUP6 MSTORE DUP1 SLOAD SWAP1 PUSH9 0x10000000000000000 DUP3 LT ISZERO PUSH2 0x824 JUMPI SWAP1 PUSH2 0x79C SWAP2 DUP12 DUP3 ADD DUP2 SSTORE PUSH2 0x1FF4 JUMP JUMPDEST SWAP6 SWAP1 SWAP6 PUSH2 0x814 JUMPI POP POP MLOAD DUP4 SLOAD SWAP2 MLOAD PUSH1 0x1 PUSH1 0x1 PUSH1 0xA8 SHL SUB NOT SWAP1 SWAP3 AND PUSH1 0x1 PUSH1 0x1 PUSH1 0xA0 SHL SUB SWAP2 SWAP1 SWAP2 AND OR SWAP1 ISZERO ISZERO PUSH1 0xA0 SHL PUSH1 0xFF PUSH1 0xA0 SHL AND OR DUP3 SSTORE MLOAD SWAP1 DUP6 ADD SSTORE MLOAD SWAP1 DUP2 MSTORE SWAP3 SWAP4 SWAP2 SWAP3 PUSH2 0x80F SWAP3 CALLER SWAP2 DUP4 SWAP2 PUSH32 0xE71FCDAC32DF1877C1700E7BDA2A03157E20993363A28FC35AC495CEFC76E4D4 SWAP2 LOG3 PUSH2 0x218B JUMP JUMPDEST DUP1 SSTORE DUP1 RETURN JUMPDEST PUSH4 0x4E487B71 PUSH1 0xE0 SHL DUP12 MSTORE DUP11 SWAP1 MSTORE DUP10 REVERT JUMPDEST PUSH4 0x4E487B71 PUSH1 0xE0 SHL DUP13 MSTORE PUSH1 0x41 DUP8 MSTORE DUP3 DUP13 REVERT JUMPDEST PUSH4 0x4E487B71 PUSH1 0xE0 SHL DUP10 MSTORE PUSH1 0x11 DUP5 MSTORE DUP3 DUP10 REVERT JUMPDEST PUSH1 0xA ADD DUP1 SLOAD SWAP1 DUP8 DUP3 ADD DUP1 SWAP3 GT PUSH2 0x836 JUMPI SSTORE PUSH2 0x752 JUMP JUMPDEST PUSH4 0x4E487B71 PUSH1 0xE0 SHL DUP12 MSTORE PUSH1 0x11 DUP7 MSTORE DUP5 DUP12 REVERT JUMPDEST POP PUSH1 0xD SWAP1 DUP9 PUSH1 0x64 SWAP5 MLOAD SWAP4 PUSH3 0x461BCD PUSH1 0xE5 SHL DUP6 MSTORE DUP5 ADD MSTORE DUP3 ADD MSTORE PUSH13 0x105B1C9958591E481D9BDD1959 PUSH1 0x9A SHL PUSH1 0x44 DUP3 ADD MSTORE REVERT JUMPDEST POP PUSH1 0x17 SWAP1 DUP9 PUSH1 0x64 SWAP5 MLOAD SWAP4 PUSH3 0x461BCD PUSH1 0xE5 SHL DUP6 MSTORE DUP5 ADD MSTORE DUP3 ADD MSTORE PUSH32 0x566F74696E6720706572696F642068617320656E646564000000000000000000 PUSH1 0x44 DUP3 ADD MSTORE REVERT JUMPDEST POP PUSH1 0x2 SLOAD DUP6 LT PUSH2 0x6BA JUMP JUMPDEST POP DUP7 SLOAD PUSH1 0x1 PUSH1 0x1 PUSH1 0xA0 SHL SUB AND CALLER EQ PUSH2 0x6A8 JUMP JUMPDEST DUP6 DUP1 REVERT JUMPDEST POP DUP3 CALLVALUE PUSH2 0x966 JUMPI DUP2 PUSH1 0x3 NOT CALLDATASIZE ADD SLT PUSH2 0x966 JUMPI PUSH1 0x24 CALLDATALOAD SWAP3 CALLDATALOAD DUP2 MSTORE PUSH1 0x6 PUSH1 0x20 MSTORE DUP2 DUP2 KECCAK256 SWAP1 DUP2 SLOAD DUP5 LT ISZERO PUSH2 0x966 JUMPI POP PUSH1 0x60 SWAP3 PUSH2 0x93C SWAP2 PUSH2 0x1FF4 JUMP JUMPDEST POP SWAP1 PUSH1 0x1 DUP3 SLOAD SWAP3 ADD SLOAD SWAP1 PUSH1 0xFF DUP2 MLOAD SWAP4 PUSH1 0x1 DUP1 PUSH1 0xA0 SHL SUB DUP2 AND DUP6 MSTORE PUSH1 0xA0 SHR AND ISZERO ISZERO PUSH1 0x20 DUP5 ADD MSTORE DUP3 ADD MSTORE RETURN JUMPDEST DUP1 REVERT JUMPDEST POP CALLVALUE PUSH2 0x2D4 JUMPI PUSH1 0xC0 CALLDATASIZE PUSH1 0x3 NOT ADD SLT PUSH2 0x2D4 JUMPI PUSH8 0xFFFFFFFFFFFFFFFF SWAP3 DUP3 CALLDATALOAD DUP5 DUP2 GT PUSH2 0x504 JUMPI PUSH2 0x99B SWAP1 CALLDATASIZE SWAP1 DUP6 ADD PUSH2 0x1E30 JUMP JUMPDEST SWAP1 PUSH1 0x24 SWAP3 DUP4 CALLDATALOAD DUP7 DUP2 GT PUSH2 0x2D4 JUMPI PUSH2 0x9B5 SWAP1 CALLDATASIZE SWAP1 DUP8 ADD PUSH2 0x1E30 JUMP JUMPDEST SWAP3 PUSH1 0x44 SWAP4 DUP5 CALLDATALOAD DUP9 DUP2 GT PUSH2 0xB8A JUMPI PUSH2 0x9CF SWAP1 CALLDATASIZE SWAP1 DUP10 ADD PUSH2 0x1E30 JUMP JUMPDEST POP PUSH1 0x64 SWAP8 DUP9 CALLDATALOAD SWAP1 DUP2 GT PUSH2 0xB8A JUMPI PUSH2 0x9E9 SWAP1 CALLDATASIZE SWAP1 DUP10 ADD PUSH2 0x1E30 JUMP JUMPDEST POP PUSH1 0x84 CALLDATALOAD SWAP2 CALLER DUP6 MSTORE PUSH2 0xA10 PUSH1 0x20 SWAP6 PUSH1 0x7 DUP8 MSTORE PUSH1 0xFF DUP7 DUP3 KECCAK256 SLOAD AND SWAP1 DUP2 ISZERO PUSH2 0xB76 JUMPI JUMPDEST POP PUSH2 0x2099 JUMP JUMPDEST PUSH2 0xA18 PUSH2 0x20D8 JUMP JUMPDEST MLOAD ISZERO PUSH2 0xB40 JUMPI MLOAD ISZERO PUSH2 0xB03 JUMPI PUSH3 0x15180 DUP2 LT ISZERO SWAP1 DUP2 PUSH2 0xAF5 JUMPI JUMPDEST POP ISZERO PUSH2 0xAC1 JUMPI PUSH8 0xDE0B6B3A7640000 PUSH1 0xA4 CALLDATALOAD LT PUSH2 0xA85 JUMPI SWAP3 PUSH1 0x1A SWAP2 PUSH32 0x4658525020746F6B656E2061646472657373206E6F7420736574000000000000 SWAP5 MLOAD SWAP6 PUSH3 0x461BCD PUSH1 0xE5 SHL DUP8 MSTORE DUP7 ADD MSTORE DUP5 ADD MSTORE DUP3 ADD MSTORE REVERT JUMPDEST SWAP3 PUSH1 0x1A SWAP2 PUSH32 0x5374616B6520616D6F756E742062656C6F77206D696E696D756D000000000000 SWAP5 MLOAD SWAP6 PUSH3 0x461BCD PUSH1 0xE5 SHL DUP8 MSTORE DUP7 ADD MSTORE DUP5 ADD MSTORE DUP3 ADD MSTORE REVERT JUMPDEST SWAP3 PUSH1 0x15 SWAP2 PUSH21 0x125B9D985B1A59081D9BDD1A5B99C81C195C9A5BD9 PUSH1 0x5A SHL SWAP5 MLOAD SWAP6 PUSH3 0x461BCD PUSH1 0xE5 SHL DUP8 MSTORE DUP7 ADD MSTORE DUP5 ADD MSTORE DUP3 ADD MSTORE REVERT JUMPDEST PUSH3 0x93A80 SWAP2 POP GT ISZERO CODESIZE PUSH2 0xA32 JUMP JUMPDEST POP SWAP3 PUSH1 0x1B SWAP2 PUSH32 0x4465736372697074696F6E2063616E6E6F7420626520656D7074790000000000 SWAP5 MLOAD SWAP6 PUSH3 0x461BCD PUSH1 0xE5 SHL DUP8 MSTORE DUP7 ADD MSTORE DUP5 ADD MSTORE DUP3 ADD MSTORE REVERT JUMPDEST POP POP SWAP3 PUSH1 0x15 SWAP2 PUSH21 0x5469746C652063616E6E6F7420626520656D707479 PUSH1 0x58 SHL SWAP5 MLOAD SWAP6 PUSH3 0x461BCD PUSH1 0xE5 SHL DUP8 MSTORE DUP7 ADD MSTORE DUP5 ADD MSTORE DUP3 ADD MSTORE REVERT JUMPDEST SLOAD PUSH1 0x1 PUSH1 0x1 PUSH1 0xA0 SHL SUB AND CALLER EQ SWAP1 POP CODESIZE PUSH2 0xA0A JUMP JUMPDEST DUP5 DUP1 REVERT JUMPDEST POP SWAP2 SWAP1 CALLVALUE PUSH2 0x504 JUMPI PUSH1 0x20 CALLDATASIZE PUSH1 0x3 NOT ADD SLT PUSH2 0x504 JUMPI DUP1 CALLDATALOAD SWAP1 DUP2 ISZERO ISZERO DUP1 PUSH2 0xC38 JUMPI JUMPDEST PUSH2 0xBB7 SWAP1 PUSH2 0x20FB JUMP JUMPDEST DUP2 DUP4 MSTORE DUP1 PUSH1 0x20 MSTORE DUP4 DUP4 KECCAK256 PUSH1 0x7 DUP2 ADD SWAP2 PUSH1 0x6 DUP4 SLOAD SWAP3 PUSH2 0xBD7 PUSH1 0xFF DUP6 AND PUSH2 0x213F JUMP JUMPDEST ADD SLOAD TIMESTAMP GT ISZERO PUSH2 0xBF5 JUMPI POP PUSH2 0xBF2 SWAP4 SWAP5 POP PUSH1 0xFF NOT AND SWAP1 SSTORE PUSH2 0x218B JUMP JUMPDEST DUP1 RETURN JUMPDEST PUSH1 0x64 SWAP1 PUSH1 0x20 DUP8 MLOAD SWAP2 PUSH3 0x461BCD PUSH1 0xE5 SHL DUP4 MSTORE DUP3 ADD MSTORE PUSH1 0x17 PUSH1 0x24 DUP3 ADD MSTORE PUSH32 0x566F74696E6720706572696F64206E6F7420656E646564000000000000000000 PUSH1 0x44 DUP3 ADD MSTORE REVERT JUMPDEST POP PUSH1 0x2 SLOAD DUP3 LT PUSH2 0xBAE JUMP JUMPDEST POP DUP3 SWAP1 CALLVALUE PUSH2 0x504 JUMPI DUP2 PUSH1 0x3 NOT CALLDATASIZE ADD SLT PUSH2 0x504 JUMPI PUSH1 0x2 DUP1 SLOAD SWAP1 DUP4 PUSH1 0x1 JUMPDEST DUP4 DUP2 LT PUSH2 0xE12 JUMPI POP PUSH2 0xC70 SWAP1 PUSH2 0x22D7 JUMP JUMPDEST SWAP4 DUP1 SWAP2 PUSH1 0x1 JUMPDEST DUP5 DUP2 LT PUSH2 0xC8A JUMPI DUP6 MLOAD DUP1 PUSH2 0x2C5 DUP10 DUP3 PUSH2 0x1F92 JUMP JUMPDEST DUP1 DUP4 MSTORE DUP6 PUSH1 0x20 DUP10 DUP2 MSTORE DUP2 DUP6 KECCAK256 PUSH1 0x7 DUP2 ADD SLOAD PUSH1 0xFF SWAP1 DUP2 DUP2 AND DUP14 DUP2 DUP1 SWAP3 PUSH2 0xE04 JUMPI JUMPDEST PUSH2 0xCC4 JUMPI JUMPDEST POP POP POP POP POP POP POP PUSH2 0xCBF SWAP1 PUSH2 0x22C8 JUMP JUMPDEST PUSH2 0xC76 JUMP JUMPDEST SWAP1 PUSH2 0xD1F PUSH1 0x10 SWAP6 SWAP5 SWAP4 SWAP3 DUP9 SWAP13 SWAP10 SWAP13 MLOAD SWAP9 PUSH2 0xCDD DUP11 PUSH2 0x1C75 JUMP JUMPDEST DUP7 SLOAD DUP11 MSTORE PUSH1 0x1 DUP8 ADD SLOAD PUSH1 0x1 PUSH1 0x1 PUSH1 0xA0 SHL SUB SWAP1 DUP2 AND SWAP10 DUP12 ADD SWAP10 SWAP1 SWAP10 MSTORE PUSH2 0xD03 DUP13 DUP9 ADD PUSH2 0x1CE6 JUMP JUMPDEST SWAP1 DUP11 ADD MSTORE PUSH2 0xD13 PUSH1 0x3 DUP8 ADD PUSH2 0x1CE6 JUMP JUMPDEST PUSH1 0x60 DUP11 ADD MSTORE DUP6 ADD PUSH2 0x1CE6 JUMP JUMPDEST PUSH1 0x80 DUP9 ADD MSTORE PUSH2 0xD30 PUSH1 0x5 DUP6 ADD PUSH2 0x1CE6 JUMP JUMPDEST PUSH1 0xA0 DUP9 ADD MSTORE PUSH1 0x6 DUP5 ADD SLOAD PUSH1 0xC0 DUP9 ADD MSTORE ISZERO ISZERO PUSH1 0xE0 DUP8 ADD MSTORE DUP2 PUSH1 0x8 SWAP2 DUP3 SHR AND ISZERO ISZERO PUSH2 0x100 DUP8 ADD MSTORE DUP1 DUP4 ADD SLOAD PUSH2 0x120 DUP8 ADD MSTORE PUSH1 0x9 DUP4 ADD SLOAD PUSH2 0x140 DUP8 ADD MSTORE PUSH1 0xA DUP4 ADD SLOAD PUSH2 0x160 DUP8 ADD MSTORE PUSH1 0xB DUP4 ADD SLOAD PUSH2 0x180 DUP8 ADD MSTORE PUSH1 0xC DUP4 ADD SLOAD PUSH2 0x1A0 DUP8 ADD MSTORE PUSH1 0xD DUP4 ADD SLOAD PUSH2 0x1C0 DUP8 ADD MSTORE PUSH1 0xE DUP4 ADD SLOAD SWAP1 DUP3 DUP3 AND PUSH2 0x1E0 DUP9 ADD MSTORE SHR AND ISZERO ISZERO PUSH2 0x200 DUP6 ADD MSTORE PUSH1 0xF DUP2 ADD SLOAD PUSH2 0x220 DUP6 ADD MSTORE ADD SLOAD AND PUSH2 0x240 DUP3 ADD MSTORE PUSH2 0xDCD DUP3 DUP10 PUSH2 0x2327 JUMP JUMPDEST MSTORE PUSH2 0xDD8 DUP2 DUP9 PUSH2 0x2327 JUMP JUMPDEST POP PUSH1 0x1 DUP2 ADD DUP1 SWAP2 GT PUSH2 0xDF1 JUMPI SWAP3 DUP6 DUP10 DUP1 DUP1 DUP1 DUP1 DUP14 PUSH2 0xCAF JUMP JUMPDEST PUSH4 0x4E487B71 PUSH1 0xE0 SHL DUP4 MSTORE PUSH1 0x11 DUP9 MSTORE PUSH1 0x24 DUP4 REVERT JUMPDEST POP PUSH1 0x6 DUP6 ADD SLOAD TIMESTAMP GT ISZERO PUSH2 0xCAA JUMP JUMPDEST DUP1 DUP7 MSTORE DUP7 PUSH1 0x20 MSTORE DUP5 DUP7 KECCAK256 PUSH1 0xFF PUSH1 0x7 DUP3 ADD SLOAD AND SWAP1 DUP2 PUSH2 0xE64 JUMPI JUMPDEST POP PUSH2 0xE3F JUMPI JUMPDEST PUSH2 0xE3A SWAP1 PUSH2 0x22C8 JUMP JUMPDEST PUSH2 0xC5F JUMP JUMPDEST SWAP1 PUSH1 0x1 DUP2 ADD DUP1 SWAP2 GT PUSH2 0xE51 JUMPI SWAP1 PUSH2 0xE31 JUMP JUMPDEST PUSH4 0x4E487B71 PUSH1 0xE0 SHL DUP7 MSTORE PUSH1 0x11 DUP8 MSTORE PUSH1 0x24 DUP7 REVERT JUMPDEST PUSH1 0x6 SWAP2 POP ADD SLOAD TIMESTAMP GT ISZERO DUP9 PUSH2 0xE2B JUMP JUMPDEST DUP4 DUP3 CALLVALUE PUSH2 0x504 JUMPI DUP2 PUSH1 0x3 NOT CALLDATASIZE ADD SLT PUSH2 0x504 JUMPI PUSH1 0x20 SWAP1 MLOAD PUSH3 0x93A80 DUP2 MSTORE RETURN JUMPDEST POP SWAP2 SWAP1 CALLVALUE PUSH2 0x504 JUMPI PUSH1 0x20 SWAP1 DUP2 PUSH1 0x3 NOT CALLDATASIZE ADD SLT PUSH2 0x2D4 JUMPI CALLDATALOAD DUP1 ISZERO ISZERO DUP1 PUSH2 0xF94 JUMPI JUMPDEST PUSH2 0xEBD SWAP1 SWAP4 SWAP3 SWAP4 PUSH2 0x20FB JUMP JUMPDEST DUP2 MSTORE PUSH1 0x6 DUP3 MSTORE DUP3 DUP2 KECCAK256 SWAP1 DUP2 SLOAD PUSH2 0xED2 DUP2 PUSH2 0x22B0 JUMP JUMPDEST SWAP1 PUSH2 0xEDF DUP7 MLOAD SWAP3 DUP4 PUSH2 0x1CC4 JUMP JUMPDEST DUP1 DUP3 MSTORE DUP5 DUP3 ADD DUP1 SWAP5 DUP5 MSTORE DUP6 DUP5 KECCAK256 DUP5 SWAP2 JUMPDEST DUP4 DUP4 LT PUSH2 0xF4D JUMPI POP POP POP POP DUP5 MLOAD SWAP4 DUP1 DUP6 ADD SWAP2 DUP2 DUP7 MSTORE MLOAD DUP1 SWAP3 MSTORE DUP6 DUP6 ADD SWAP4 SWAP3 JUMPDEST DUP3 DUP2 LT PUSH2 0xF1B JUMPI DUP6 DUP6 SUB DUP7 RETURN JUMPDEST DUP4 MLOAD DUP1 MLOAD PUSH1 0x1 PUSH1 0x1 PUSH1 0xA0 SHL SUB AND DUP7 MSTORE DUP1 DUP4 ADD MLOAD ISZERO ISZERO DUP7 DUP5 ADD MSTORE DUP8 ADD MLOAD DUP8 DUP7 ADD MSTORE PUSH1 0x60 SWAP1 SWAP5 ADD SWAP4 SWAP3 DUP2 ADD SWAP3 PUSH1 0x1 ADD PUSH2 0xF0E JUMP JUMPDEST PUSH1 0x2 DUP9 PUSH1 0x1 SWAP3 DUP12 SWAP11 SWAP8 SWAP9 SWAP11 MLOAD PUSH2 0xF62 DUP2 PUSH2 0x1CA8 JUMP JUMPDEST PUSH1 0xFF DUP7 SLOAD DUP7 DUP1 PUSH1 0xA0 SHL SUB DUP2 AND DUP4 MSTORE PUSH1 0xA0 SHR AND ISZERO ISZERO DUP4 DUP3 ADD MSTORE DUP5 DUP7 ADD SLOAD DUP14 DUP3 ADD MSTORE DUP2 MSTORE ADD SWAP3 ADD SWAP3 ADD SWAP2 SWAP1 SWAP7 SWAP5 SWAP4 SWAP7 PUSH2 0xEEF JUMP JUMPDEST POP PUSH1 0x2 SLOAD DUP2 LT PUSH2 0xEB1 JUMP JUMPDEST DUP4 DUP3 CALLVALUE PUSH2 0x504 JUMPI PUSH1 0x20 CALLDATASIZE PUSH1 0x3 NOT ADD SLT PUSH2 0x504 JUMPI PUSH1 0x20 SWAP2 PUSH1 0xFF SWAP1 DUP3 SWAP1 PUSH1 0x1 PUSH1 0x1 PUSH1 0xA0 SHL SUB PUSH2 0xFCA PUSH2 0x1DFF JUMP JUMPDEST AND DUP2 MSTORE PUSH1 0x7 DUP6 MSTORE KECCAK256 SLOAD AND SWAP1 MLOAD SWAP1 ISZERO ISZERO DUP2 MSTORE RETURN JUMPDEST POP DUP3 CALLVALUE PUSH2 0x966 JUMPI PUSH1 0x20 CALLDATASIZE PUSH1 0x3 NOT ADD SLT PUSH2 0x966 JUMPI DUP3 CALLDATALOAD SWAP1 PUSH8 0xFFFFFFFFFFFFFFFF DUP3 GT PUSH2 0x966 JUMPI POP PUSH1 0x20 SWAP3 PUSH2 0x1012 SWAP2 CALLDATASIZE SWAP2 ADD PUSH2 0x1E30 JUMP JUMPDEST DUP3 PUSH2 0x1025 DUP4 MLOAD SWAP3 DUP4 DUP2 MLOAD SWAP4 DUP5 SWAP3 ADD PUSH2 0x1DB7 JUMP JUMPDEST PUSH1 0x3 SWAP1 DUP3 ADD SWAP1 DUP2 MSTORE DUP2 SWAP1 SUB DUP4 ADD SWAP1 KECCAK256 SLOAD SWAP1 MLOAD PUSH1 0x1 PUSH1 0x1 PUSH1 0xA0 SHL SUB SWAP1 SWAP2 AND DUP2 MSTORE RETURN JUMPDEST DUP4 DUP3 CALLVALUE PUSH2 0x504 JUMPI DUP2 PUSH1 0x3 NOT CALLDATASIZE ADD SLT PUSH2 0x504 JUMPI PUSH1 0x20 SWAP1 MLOAD PUSH1 0x46 DUP2 MSTORE RETURN JUMPDEST DUP4 DUP3 CALLVALUE PUSH2 0x504 JUMPI DUP2 PUSH1 0x3 NOT CALLDATASIZE ADD SLT PUSH2 0x504 JUMPI SWAP1 SLOAD SWAP1 MLOAD PUSH1 0x1 PUSH1 0x1 PUSH1 0xA0 SHL SUB SWAP1 SWAP2 AND DUP2 MSTORE PUSH1 0x20 SWAP1 RETURN JUMPDEST DUP4 CALLVALUE PUSH2 0x966 JUMPI DUP1 PUSH1 0x3 NOT CALLDATASIZE ADD SLT PUSH2 0x966 JUMPI PUSH2 0x10A3 PUSH2 0x2026 JUMP JUMPDEST DUP1 SLOAD PUSH1 0x1 PUSH1 0x1 PUSH1 0xA0 SHL SUB NOT DUP2 AND DUP3 SSTORE DUP2 SWAP1 PUSH1 0x1 PUSH1 0x1 PUSH1 0xA0 SHL SUB AND PUSH32 0x8BE0079C531659141344CD1FD0A4F28419497F9722A3DAAFE3B4186F6B6457E0 DUP3 DUP1 LOG3 DUP1 RETURN JUMPDEST POP SWAP1 CALLVALUE PUSH2 0x2D4 JUMPI DUP2 PUSH1 0x3 NOT CALLDATASIZE ADD SLT PUSH2 0x2D4 JUMPI DUP1 CALLDATALOAD PUSH8 0xFFFFFFFFFFFFFFFF DUP2 GT PUSH2 0x11ED JUMPI PUSH2 0x1114 SWAP1 CALLDATASIZE SWAP1 DUP4 ADD PUSH2 0x1E30 JUMP JUMPDEST PUSH2 0x111C PUSH2 0x1E1A JUMP JUMPDEST PUSH2 0x1124 PUSH2 0x2026 JUMP JUMPDEST PUSH1 0x1 PUSH1 0x1 PUSH1 0xA0 SHL SUB AND SWAP2 DUP3 ISZERO PUSH2 0x11B3 JUMPI POP PUSH32 0xAF6142D3BB5A4D6BB306CC8E5A7E3753C96285FC9587DFF01B6E44C306075FA1 SWAP2 PUSH2 0x11A5 PUSH1 0x20 SWAP3 DUP6 MLOAD SWAP1 DUP1 MLOAD SWAP2 DUP6 DUP2 DUP2 DUP5 ADD SWAP5 PUSH2 0x1174 DUP2 DUP4 DUP9 PUSH2 0x1DB7 JUMP JUMPDEST DUP2 ADD PUSH1 0x3 DUP2 MSTORE SUB ADD SWAP1 KECCAK256 DUP5 PUSH12 0xFFFFFFFFFFFFFFFFFFFFFFFF PUSH1 0xA0 SHL DUP3 SLOAD AND OR SWAP1 SSTORE DUP7 MLOAD SWAP3 DUP4 SWAP3 DUP4 SWAP3 MLOAD SWAP3 DUP4 SWAP2 PUSH2 0x1DB7 JUMP JUMPDEST DUP2 ADD SUB SWAP1 KECCAK256 SWAP4 MLOAD SWAP1 DUP2 MSTORE LOG2 DUP1 RETURN JUMPDEST PUSH1 0x64 SWAP1 PUSH1 0x20 DUP6 MLOAD SWAP2 PUSH3 0x461BCD PUSH1 0xE5 SHL DUP4 MSTORE DUP3 ADD MSTORE PUSH1 0x14 PUSH1 0x24 DUP3 ADD MSTORE PUSH20 0x496E76616C6964204654534F2061646472657373 PUSH1 0x60 SHL PUSH1 0x44 DUP3 ADD MSTORE REVERT JUMPDEST DUP4 DUP1 REVERT JUMPDEST POP SWAP2 SWAP1 CALLVALUE PUSH2 0x504 JUMPI DUP2 PUSH1 0x3 NOT CALLDATASIZE ADD SLT PUSH2 0x504 JUMPI PUSH1 0x2 DUP1 SLOAD SWAP2 SWAP1 DUP4 PUSH1 0x1 JUMPDEST DUP5 DUP2 LT PUSH2 0x13A9 JUMPI POP PUSH2 0x121F SWAP1 PUSH2 0x22D7 JUMP JUMPDEST SWAP4 DUP1 SWAP2 PUSH1 0x1 JUMPDEST DUP6 DUP2 LT PUSH2 0x1239 JUMPI DUP8 MLOAD DUP1 PUSH2 0x2C5 DUP10 DUP3 PUSH2 0x1F92 JUMP JUMPDEST DUP1 DUP4 MSTORE DUP8 PUSH1 0x20 DUP7 DUP2 MSTORE DUP2 DUP6 KECCAK256 PUSH1 0x7 DUP2 ADD SLOAD PUSH1 0xFF SWAP1 PUSH1 0x8 SWAP1 DUP3 DUP2 DUP4 SHR AND SWAP1 DUP2 PUSH2 0x1271 JUMPI JUMPDEST POP POP POP POP POP POP POP PUSH2 0x126C SWAP1 PUSH2 0x22C8 JUMP JUMPDEST PUSH2 0x1225 JUMP JUMPDEST DUP4 SWAP1 DUP8 SWAP12 SWAP9 SWAP12 MLOAD SWAP8 PUSH2 0x1282 DUP10 PUSH2 0x1C75 JUMP JUMPDEST DUP7 SLOAD DUP10 MSTORE PUSH1 0x1 DUP8 ADD SLOAD PUSH1 0x1 PUSH1 0x1 PUSH1 0xA0 SHL SUB SWAP1 DUP2 AND SWAP9 DUP11 ADD SWAP9 SWAP1 SWAP9 MSTORE PUSH2 0x12A8 DUP12 DUP9 ADD PUSH2 0x1CE6 JUMP JUMPDEST SWAP1 DUP10 ADD MSTORE PUSH2 0x12B8 PUSH1 0x3 DUP8 ADD PUSH2 0x1CE6 JUMP JUMPDEST PUSH1 0x60 DUP10 ADD MSTORE PUSH2 0x12C8 DUP7 DUP15 ADD PUSH2 0x1CE6 JUMP JUMPDEST PUSH1 0x80 DUP10 ADD MSTORE PUSH2 0x12D9 PUSH1 0x5 DUP8 ADD PUSH2 0x1CE6 JUMP JUMPDEST PUSH1 0xA0 DUP10 ADD MSTORE PUSH1 0x6 DUP7 ADD SLOAD PUSH1 0xC0 DUP10 ADD MSTORE AND ISZERO ISZERO PUSH1 0xE0 DUP8 ADD MSTORE ISZERO ISZERO PUSH2 0x100 DUP7 ADD MSTORE DUP1 DUP4 ADD SLOAD PUSH2 0x120 DUP7 ADD MSTORE PUSH1 0x9 DUP4 ADD SLOAD PUSH2 0x140 DUP7 ADD MSTORE PUSH1 0xA DUP4 ADD SLOAD PUSH2 0x160 DUP7 ADD MSTORE PUSH1 0xB DUP4 ADD SLOAD PUSH2 0x180 DUP7 ADD MSTORE PUSH1 0xC DUP4 ADD SLOAD PUSH2 0x1A0 DUP7 ADD MSTORE PUSH1 0xD DUP4 ADD SLOAD PUSH2 0x1C0 DUP7 ADD MSTORE PUSH1 0xE DUP4 ADD SLOAD SWAP1 DUP3 DUP3 AND PUSH2 0x1E0 DUP8 ADD MSTORE SHR AND ISZERO ISZERO PUSH2 0x200 DUP5 ADD MSTORE PUSH1 0xF DUP2 ADD SLOAD PUSH2 0x220 DUP5 ADD MSTORE PUSH1 0x10 ADD SLOAD AND PUSH2 0x240 DUP3 ADD MSTORE PUSH2 0x1372 DUP3 DUP10 PUSH2 0x2327 JUMP JUMPDEST MSTORE PUSH2 0x137D DUP2 DUP9 PUSH2 0x2327 JUMP JUMPDEST POP PUSH1 0x1 DUP2 ADD DUP1 SWAP2 GT PUSH2 0x1396 JUMPI SWAP3 DUP8 CODESIZE DUP1 DUP1 DUP1 DUP1 DUP1 PUSH2 0x125C JUMP JUMPDEST PUSH4 0x4E487B71 PUSH1 0xE0 SHL DUP4 MSTORE PUSH1 0x11 DUP6 MSTORE PUSH1 0x24 DUP4 REVERT JUMPDEST DUP1 DUP7 MSTORE DUP4 PUSH1 0x20 MSTORE PUSH1 0xFF PUSH1 0x7 DUP9 DUP9 KECCAK256 ADD SLOAD PUSH1 0x8 SHR AND PUSH2 0x13D0 JUMPI JUMPDEST PUSH2 0x13CB SWAP1 PUSH2 0x22C8 JUMP JUMPDEST PUSH2 0x120E JUMP JUMPDEST SWAP1 PUSH1 0x1 DUP2 ADD DUP1 SWAP2 GT PUSH2 0x13E2 JUMPI SWAP1 PUSH2 0x13C2 JUMP JUMPDEST PUSH4 0x4E487B71 PUSH1 0xE0 SHL DUP7 MSTORE PUSH1 0x11 DUP5 MSTORE PUSH1 0x24 DUP7 REVERT JUMPDEST POP SWAP1 CALLVALUE PUSH2 0x2D4 JUMPI DUP2 PUSH1 0x3 NOT CALLDATASIZE ADD SLT PUSH2 0x2D4 JUMPI DUP2 PUSH1 0x20 SWAP4 PUSH1 0xFF SWAP3 PUSH2 0x1416 PUSH2 0x1E1A JUMP JUMPDEST SWAP1 CALLDATALOAD DUP3 MSTORE PUSH1 0x5 DUP7 MSTORE DUP3 DUP3 KECCAK256 PUSH1 0x1 PUSH1 0x1 PUSH1 0xA0 SHL SUB SWAP1 SWAP2 AND DUP3 MSTORE DUP6 MSTORE KECCAK256 SLOAD SWAP2 MLOAD SWAP2 AND ISZERO ISZERO DUP2 MSTORE RETURN JUMPDEST POP DUP3 SWAP1 CALLVALUE PUSH2 0x504 JUMPI PUSH1 0x20 SWAP3 DUP4 PUSH1 0x3 NOT CALLDATASIZE ADD SLT PUSH2 0x2D4 JUMPI PUSH2 0x145A PUSH2 0x1DFF JUMP JUMPDEST DUP3 MLOAD PUSH4 0x70A08231 PUSH1 0xE0 SHL DUP2 MSTORE PUSH1 0x1 PUSH1 0x1 PUSH1 0xA0 SHL SUB SWAP1 SWAP2 AND SWAP2 DUP2 ADD SWAP2 SWAP1 SWAP2 MSTORE DUP4 DUP2 PUSH1 0x24 DUP2 DUP7 GAS STATICCALL SWAP3 DUP4 ISZERO PUSH2 0x14C8 JUMPI DUP1 SWAP4 PUSH2 0x1496 JUMPI JUMPDEST POP POP MLOAD SWAP1 DUP2 MSTORE RETURN JUMPDEST SWAP1 SWAP2 SWAP3 POP DUP4 DUP3 DUP2 RETURNDATASIZE DUP4 GT PUSH2 0x14C1 JUMPI JUMPDEST PUSH2 0x14AF DUP2 DUP4 PUSH2 0x1CC4 JUMP JUMPDEST DUP2 ADD SUB SLT PUSH2 0x966 JUMPI POP MLOAD SWAP1 DUP4 DUP1 PUSH2 0x148E JUMP JUMPDEST POP RETURNDATASIZE PUSH2 0x14A5 JUMP JUMPDEST DUP3 MLOAD SWAP1 RETURNDATASIZE SWAP1 DUP3 RETURNDATACOPY RETURNDATASIZE SWAP1 REVERT JUMPDEST POP CALLVALUE PUSH2 0x2D4 JUMPI PUSH1 0x20 DUP1 PUSH1 0x3 NOT CALLDATASIZE ADD SLT PUSH2 0x11ED JUMPI DUP3 CALLDATALOAD SWAP2 DUP3 ISZERO ISZERO DUP1 PUSH2 0x16DE JUMPI JUMPDEST PUSH2 0x14FB SWAP1 PUSH2 0x20FB JUMP JUMPDEST PUSH2 0x1503 PUSH2 0x20D8 JUMP JUMPDEST DUP3 DUP6 MSTORE DUP4 DUP3 MSTORE DUP1 DUP6 KECCAK256 PUSH1 0x1 DUP2 ADD SLOAD PUSH1 0x1 PUSH1 0x1 PUSH1 0xA0 SHL SUB AND CALLER SUB PUSH2 0x169B JUMPI PUSH1 0xFF PUSH1 0x7 DUP3 ADD SLOAD AND PUSH2 0x1658 JUMPI PUSH1 0xF ADD SWAP4 DUP5 SLOAD SWAP5 DUP6 ISZERO PUSH2 0x161F JUMPI DUP7 SWAP1 SSTORE DUP2 MLOAD PUSH4 0xA9059CBB PUSH1 0xE0 SHL DUP2 MSTORE CALLER DUP3 DUP3 ADD MSTORE PUSH1 0x24 DUP2 ADD DUP7 SWAP1 MSTORE DUP4 DUP2 PUSH1 0x44 DUP2 DUP11 DUP1 GAS CALL SWAP1 DUP2 ISZERO PUSH2 0x1615 JUMPI DUP8 SWAP2 PUSH2 0x15DB JUMPI JUMPDEST POP ISZERO PUSH2 0x15A3 JUMPI POP SWAP1 PUSH32 0x459D5AEF2C549903C1EEB1736F5728845D5CCF82537DDD5BF8035795EEE89263 SWAP2 MLOAD SWAP4 DUP5 MSTORE CALLER SWAP4 LOG3 PUSH1 0x1 DUP1 SSTORE DUP1 RETURN JUMPDEST DUP3 PUSH1 0x64 SWAP3 MLOAD SWAP2 PUSH3 0x461BCD PUSH1 0xE5 SHL DUP4 MSTORE DUP3 ADD MSTORE PUSH1 0x14 PUSH1 0x24 DUP3 ADD MSTORE PUSH20 0x11961494081D1C985B9CD9995C8819985A5B1959 PUSH1 0x62 SHL PUSH1 0x44 DUP3 ADD MSTORE REVERT JUMPDEST SWAP1 POP DUP4 DUP2 DUP2 RETURNDATASIZE DUP4 GT PUSH2 0x160E JUMPI JUMPDEST PUSH2 0x15F2 DUP2 DUP4 PUSH2 0x1CC4 JUMP JUMPDEST DUP2 ADD SUB SLT PUSH2 0x160A JUMPI MLOAD DUP1 ISZERO ISZERO DUP2 SUB PUSH2 0x160A JUMPI CODESIZE PUSH2 0x156B JUMP JUMPDEST DUP7 DUP1 REVERT JUMPDEST POP RETURNDATASIZE PUSH2 0x15E8 JUMP JUMPDEST DUP4 MLOAD RETURNDATASIZE DUP10 DUP3 RETURNDATACOPY RETURNDATASIZE SWAP1 REVERT JUMPDEST POP DUP3 PUSH1 0x64 SWAP3 MLOAD SWAP2 PUSH3 0x461BCD PUSH1 0xE5 SHL DUP4 MSTORE DUP3 ADD MSTORE PUSH1 0x14 PUSH1 0x24 DUP3 ADD MSTORE PUSH20 0x4E6F207374616B6520746F207769746864726177 PUSH1 0x60 SHL PUSH1 0x44 DUP3 ADD MSTORE REVERT JUMPDEST DUP2 MLOAD PUSH3 0x461BCD PUSH1 0xE5 SHL DUP2 MSTORE DUP1 DUP7 ADD DUP5 SWAP1 MSTORE PUSH1 0x17 PUSH1 0x24 DUP3 ADD MSTORE PUSH32 0x50726564696374696F6E207374696C6C20616374697665000000000000000000 PUSH1 0x44 DUP3 ADD MSTORE PUSH1 0x64 SWAP1 REVERT JUMPDEST DUP2 MLOAD PUSH3 0x461BCD PUSH1 0xE5 SHL DUP2 MSTORE DUP1 DUP7 ADD DUP5 SWAP1 MSTORE PUSH1 0x19 PUSH1 0x24 DUP3 ADD MSTORE PUSH32 0x4F6E6C792063726561746F722063616E20776974686472617700000000000000 PUSH1 0x44 DUP3 ADD MSTORE PUSH1 0x64 SWAP1 REVERT JUMPDEST POP PUSH1 0x2 SLOAD DUP4 LT PUSH2 0x14F2 JUMP JUMPDEST DUP4 DUP3 CALLVALUE PUSH2 0x504 JUMPI DUP2 PUSH1 0x3 NOT CALLDATASIZE ADD SLT PUSH2 0x504 JUMPI PUSH1 0x20 SWAP1 MLOAD PUSH3 0x15180 DUP2 MSTORE RETURN JUMPDEST POP CALLVALUE PUSH2 0x2D4 JUMPI PUSH1 0x20 SWAP1 DUP2 PUSH1 0x3 NOT CALLDATASIZE ADD SLT PUSH2 0x11ED JUMPI DUP3 CALLDATALOAD PUSH8 0xFFFFFFFFFFFFFFFF DUP2 GT PUSH2 0xB8A JUMPI PUSH2 0x1739 SWAP1 CALLDATASIZE SWAP1 DUP6 ADD PUSH2 0x1E30 JUMP JUMPDEST DUP3 PUSH2 0x174C DUP4 MLOAD SWAP3 DUP4 DUP2 MLOAD SWAP4 DUP5 SWAP3 ADD PUSH2 0x1DB7 JUMP JUMPDEST PUSH1 0x3 SWAP1 DUP3 ADD SWAP1 DUP2 MSTORE DUP2 SWAP1 SUB DUP4 ADD SWAP1 KECCAK256 SLOAD PUSH1 0x1 PUSH1 0x1 PUSH1 0xA0 SHL SUB AND SWAP4 DUP5 ISZERO PUSH2 0x188A JUMPI DUP2 MLOAD PUSH4 0x75C8E9BF PUSH1 0xE1 SHL DUP2 MSTORE SWAP2 SWAP1 PUSH1 0x60 DUP4 DUP7 DUP2 DUP10 GAS STATICCALL DUP1 ISZERO PUSH2 0x187E JUMPI DUP2 SWAP1 DUP3 SWAP5 DUP4 SWAP2 PUSH2 0x1841 JUMPI JUMPDEST POP PUSH1 0xFF AND SWAP2 PUSH1 0x8 DUP4 LT ISZERO PUSH2 0x17EE JUMPI DUP3 PUSH1 0x8 SUB PUSH1 0xFF DUP2 GT PUSH2 0x17DB JUMPI PUSH2 0x17B6 SWAP1 PUSH2 0x2052 JUMP JUMPDEST SWAP2 DUP3 DUP2 MUL SWAP3 DUP2 DUP5 DIV EQ SWAP1 ISZERO OR ISZERO PUSH2 0x4DC JUMPI POP PUSH1 0x60 SWAP6 POP SWAP4 JUMPDEST DUP3 MLOAD SWAP5 DUP6 MSTORE DUP5 ADD MSTORE DUP3 ADD MSTORE RETURN JUMPDEST PUSH4 0x4E487B71 PUSH1 0xE0 SHL DUP3 MSTORE PUSH1 0x11 DUP9 MSTORE PUSH1 0x24 DUP3 REVERT JUMPDEST PUSH1 0x8 DUP4 GT ISZERO PUSH2 0x1836 JUMPI PUSH1 0x7 NOT DUP4 ADD SWAP1 PUSH1 0xFF DUP3 GT PUSH2 0x1823 JUMPI POP PUSH1 0x60 SWAP7 POP SWAP1 PUSH2 0x1817 PUSH2 0x181D SWAP3 PUSH2 0x2052 JUMP JUMPDEST SWAP1 PUSH2 0x2079 JUMP JUMPDEST SWAP4 PUSH2 0x17CE JUMP JUMPDEST PUSH4 0x4E487B71 PUSH1 0xE0 SHL DUP2 MSTORE PUSH1 0x11 DUP9 MSTORE PUSH1 0x24 SWAP1 REVERT JUMPDEST POP PUSH1 0x60 SWAP6 POP SWAP4 PUSH2 0x17CE JUMP JUMPDEST SWAP5 POP POP POP PUSH1 0x60 DUP4 RETURNDATASIZE DUP3 GT PUSH2 0x1876 JUMPI JUMPDEST DUP2 PUSH2 0x185D PUSH1 0x60 SWAP4 DUP4 PUSH2 0x1CC4 JUMP JUMPDEST DUP2 ADD SUB SLT PUSH2 0x966 JUMPI DUP3 MLOAD DUP5 DUP5 ADD MLOAD SWAP4 DUP4 ADD MLOAD PUSH1 0xFF PUSH2 0x1793 JUMP JUMPDEST RETURNDATASIZE SWAP2 POP PUSH2 0x1850 JUMP JUMPDEST POP SWAP1 MLOAD SWAP1 RETURNDATASIZE SWAP1 DUP3 RETURNDATACOPY RETURNDATASIZE SWAP1 REVERT JUMPDEST POP MLOAD PUSH3 0x461BCD PUSH1 0xE5 SHL DUP2 MSTORE SWAP2 DUP3 ADD MSTORE PUSH1 0x24 DUP1 DUP3 ADD MSTORE PUSH32 0x4654534F20636F6E7472616374206E6F742073657420666F7220746869732061 PUSH1 0x44 DUP3 ADD MSTORE PUSH4 0x1CDCD95D PUSH1 0xE2 SHL PUSH1 0x64 DUP3 ADD MSTORE PUSH1 0x84 SWAP2 POP REVERT JUMPDEST POP CALLVALUE PUSH2 0x2D4 JUMPI DUP1 PUSH1 0x3 NOT CALLDATASIZE ADD SLT PUSH2 0x2D4 JUMPI PUSH2 0x18F1 PUSH2 0x1DFF JUMP JUMPDEST DUP2 MLOAD PUSH4 0x6EB1769F PUSH1 0xE1 SHL DUP2 MSTORE PUSH1 0x1 PUSH1 0x1 PUSH1 0xA0 SHL SUB SWAP1 SWAP2 AND SWAP3 DUP2 ADD SWAP3 SWAP1 SWAP3 MSTORE ADDRESS PUSH1 0x24 DUP4 ADD MSTORE PUSH1 0x20 DUP3 PUSH1 0x44 DUP2 DUP7 GAS STATICCALL SWAP2 DUP3 ISZERO PUSH2 0x1972 JUMPI DUP4 SWAP3 PUSH2 0x193B JUMPI JUMPDEST PUSH1 0x20 DUP4 DUP4 MLOAD SWAP1 PUSH1 0x24 CALLDATALOAD GT ISZERO DUP2 MSTORE RETURN JUMPDEST SWAP1 SWAP2 POP PUSH1 0x20 DUP2 RETURNDATASIZE DUP3 GT PUSH2 0x196A JUMPI JUMPDEST DUP2 PUSH2 0x1956 PUSH1 0x20 SWAP4 DUP4 PUSH2 0x1CC4 JUMP JUMPDEST DUP2 ADD SUB SLT PUSH2 0x2D4 JUMPI PUSH1 0x20 SWAP3 POP MLOAD SWAP1 CODESIZE PUSH2 0x192C JUMP JUMPDEST RETURNDATASIZE SWAP2 POP PUSH2 0x1949 JUMP JUMPDEST DUP2 MLOAD RETURNDATASIZE DUP6 DUP3 RETURNDATACOPY RETURNDATASIZE SWAP1 REVERT JUMPDEST POP CALLVALUE PUSH2 0x2D4 JUMPI PUSH1 0x20 CALLDATASIZE PUSH1 0x3 NOT ADD SLT PUSH2 0x2D4 JUMPI PUSH2 0x1996 PUSH2 0x1DFF JUMP JUMPDEST SWAP2 PUSH2 0x199F PUSH2 0x2026 JUMP JUMPDEST PUSH1 0x1 PUSH1 0x1 PUSH1 0xA0 SHL SUB SWAP3 DUP4 AND SWAP3 PUSH2 0x19B6 DUP5 ISZERO ISZERO PUSH2 0x233B JUMP JUMPDEST DUP4 DUP6 MSTORE PUSH1 0x7 PUSH1 0x20 MSTORE PUSH1 0xFF DUP4 DUP7 KECCAK256 SLOAD AND ISZERO PUSH2 0x1A45 JUMPI DUP5 SLOAD AND DUP4 EQ PUSH2 0x1A0D JUMPI POP DUP2 DUP4 MSTORE PUSH1 0x7 PUSH1 0x20 MSTORE DUP3 KECCAK256 DUP1 SLOAD PUSH1 0xFF NOT AND SWAP1 SSTORE PUSH32 0x6E76FB4C77256006D9C38EC7D82B45A8C8F3C27B1D6766FFFC42DFB8DE684492 DUP3 DUP1 LOG2 DUP1 RETURN JUMPDEST PUSH1 0x20 PUSH1 0x64 SWAP3 MLOAD SWAP2 PUSH3 0x461BCD PUSH1 0xE5 SHL DUP4 MSTORE DUP3 ADD MSTORE PUSH1 0x13 PUSH1 0x24 DUP3 ADD MSTORE PUSH19 0x21B0B73737BA103932B6B7BB329037BBB732B9 PUSH1 0x69 SHL PUSH1 0x44 DUP3 ADD MSTORE REVERT JUMPDEST POP PUSH1 0x20 PUSH1 0x64 SWAP3 MLOAD SWAP2 PUSH3 0x461BCD PUSH1 0xE5 SHL DUP4 MSTORE DUP3 ADD MSTORE PUSH1 0xC PUSH1 0x24 DUP3 ADD MSTORE PUSH12 0x2737BA10309036B2B6B132B9 PUSH1 0xA1 SHL PUSH1 0x44 DUP3 ADD MSTORE REVERT JUMPDEST DUP4 DUP3 CALLVALUE PUSH2 0x504 JUMPI DUP2 PUSH1 0x3 NOT CALLDATASIZE ADD SLT PUSH2 0x504 JUMPI MLOAD SWAP1 DUP2 MSTORE PUSH1 0x20 SWAP1 RETURN JUMPDEST POP DUP3 SWAP1 CALLVALUE PUSH2 0x504 JUMPI DUP2 PUSH1 0x3 NOT CALLDATASIZE ADD SLT PUSH2 0x504 JUMPI PUSH1 0x2 SLOAD PUSH1 0x0 NOT DUP2 ADD SWAP3 SWAP1 DUP4 GT PUSH2 0x1ABF JUMPI PUSH1 0x20 DUP4 DUP4 MLOAD SWAP1 DUP2 MSTORE RETURN JUMPDEST PUSH4 0x4E487B71 PUSH1 0xE0 SHL DUP2 MSTORE PUSH1 0x11 DUP5 MSTORE PUSH1 0x24 SWAP1 REVERT JUMPDEST POP DUP3 CALLVALUE PUSH2 0x966 JUMPI PUSH1 0x20 CALLDATASIZE PUSH1 0x3 NOT ADD SLT PUSH2 0x966 JUMPI DUP3 CALLDATALOAD DUP2 MSTORE PUSH1 0x20 DUP4 SWAP1 MSTORE DUP2 SWAP1 KECCAK256 DUP1 SLOAD PUSH1 0xE0 MSTORE PUSH1 0x1 DUP2 ADD SLOAD PUSH1 0x1 PUSH1 0x1 PUSH1 0xA0 SHL SUB SWAP1 DUP2 AND SWAP3 PUSH2 0x1B13 PUSH1 0x2 DUP5 ADD PUSH2 0x1CE6 JUMP JUMPDEST PUSH1 0xC0 MSTORE PUSH2 0x1B22 PUSH1 0x3 DUP5 ADD PUSH2 0x1CE6 JUMP JUMPDEST SWAP5 DUP4 ADD PUSH2 0x1B2E SWAP1 PUSH2 0x1CE6 JUMP JUMPDEST SWAP5 PUSH2 0x1B3B PUSH1 0x5 DUP6 ADD PUSH2 0x1CE6 JUMP JUMPDEST SWAP6 PUSH1 0x6 DUP6 ADD SLOAD PUSH1 0x80 MSTORE PUSH1 0x7 DUP6 ADD SLOAD SWAP7 PUSH1 0x8 DUP7 ADD SLOAD PUSH1 0x9 DUP8 ADD SLOAD SWAP1 PUSH1 0xA DUP9 ADD SLOAD SWAP3 PUSH1 0xB DUP10 ADD SLOAD SWAP5 PUSH1 0xC DUP11 ADD SLOAD SWAP7 PUSH1 0xD DUP12 ADD SLOAD SWAP9 PUSH1 0xE DUP13 ADD SLOAD SWAP11 PUSH1 0xF DUP14 ADD SLOAD SWAP13 PUSH1 0x10 ADD SLOAD AND SWAP13 DUP2 MLOAD DUP1 PUSH1 0xA0 MSTORE PUSH1 0xE0 MLOAD SWAP1 MSTORE PUSH1 0xA0 MLOAD PUSH1 0x20 ADD MSTORE PUSH2 0x260 DUP1 SWAP2 PUSH1 0xA0 MLOAD ADD MSTORE PUSH1 0xA0 MLOAD ADD PUSH1 0xC0 MLOAD SWAP1 PUSH2 0x1BAC SWAP2 PUSH2 0x1DDA JUMP JUMPDEST PUSH1 0xA0 MLOAD DUP1 DUP3 SUB SWAP1 PUSH1 0x60 ADD MSTORE PUSH2 0x1BC0 SWAP2 PUSH2 0x1DDA JUMP JUMPDEST PUSH1 0xA0 MLOAD DUP1 DUP3 SUB SWAP1 PUSH1 0x80 ADD MSTORE PUSH2 0x1BD4 SWAP2 PUSH2 0x1DDA JUMP JUMPDEST PUSH1 0xA0 MLOAD DUP1 DUP3 SUB SWAP1 PUSH1 0xA0 ADD MSTORE PUSH2 0x1BE8 SWAP2 PUSH2 0x1DDA JUMP JUMPDEST SWAP10 PUSH1 0x80 MLOAD PUSH1 0xA0 MLOAD PUSH1 0xC0 ADD MSTORE PUSH1 0xFF DUP2 AND ISZERO ISZERO PUSH1 0xA0 MLOAD PUSH1 0xE0 ADD MSTORE PUSH1 0x8 SHR PUSH1 0xFF AND ISZERO ISZERO PUSH1 0xA0 MLOAD PUSH2 0x100 ADD MSTORE PUSH1 0xA0 MLOAD PUSH2 0x120 ADD MSTORE PUSH1 0xA0 MLOAD PUSH2 0x140 ADD MSTORE PUSH1 0xA0 MLOAD PUSH2 0x160 ADD MSTORE PUSH1 0xA0 MLOAD PUSH2 0x180 ADD MSTORE PUSH1 0xA0 MLOAD PUSH2 0x1A0 ADD MSTORE PUSH1 0xA0 MLOAD PUSH2 0x1C0 ADD MSTORE PUSH1 0xFF DUP2 AND PUSH1 0xA0 MLOAD PUSH2 0x1E0 ADD MSTORE PUSH1 0x8 SHR PUSH1 0xFF AND ISZERO ISZERO PUSH1 0xA0 MLOAD PUSH2 0x200 ADD MSTORE PUSH1 0xA0 MLOAD PUSH2 0x220 ADD MSTORE PUSH1 0xA0 MLOAD PUSH2 0x240 ADD MSTORE PUSH1 0xA0 MLOAD DUP1 SWAP2 SUB SWAP1 RETURN JUMPDEST PUSH2 0x260 DUP2 ADD SWAP1 DUP2 LT PUSH8 0xFFFFFFFFFFFFFFFF DUP3 GT OR PUSH2 0x1C92 JUMPI PUSH1 0x40 MSTORE JUMP JUMPDEST PUSH4 0x4E487B71 PUSH1 0xE0 SHL PUSH1 0x0 MSTORE PUSH1 0x41 PUSH1 0x4 MSTORE PUSH1 0x24 PUSH1 0x0 REVERT JUMPDEST PUSH1 0x60 DUP2 ADD SWAP1 DUP2 LT PUSH8 0xFFFFFFFFFFFFFFFF DUP3 GT OR PUSH2 0x1C92 JUMPI PUSH1 0x40 MSTORE JUMP JUMPDEST SWAP1 PUSH1 0x1F DUP1 NOT SWAP2 ADD AND DUP2 ADD SWAP1 DUP2 LT PUSH8 0xFFFFFFFFFFFFFFFF DUP3 GT OR PUSH2 0x1C92 JUMPI PUSH1 0x40 MSTORE JUMP JUMPDEST SWAP1 PUSH1 0x40 MLOAD SWAP1 PUSH1 0x0 DUP4 SLOAD SWAP1 PUSH1 0x1 DUP3 DUP2 SHR SWAP1 DUP1 DUP5 AND SWAP7 DUP8 ISZERO PUSH2 0x1DAD JUMPI JUMPDEST PUSH1 0x20 SWAP5 DUP6 DUP5 LT DUP10 EQ PUSH2 0x1D99 JUMPI DUP8 SWAP9 DUP5 DUP10 SWAP8 SWAP9 SWAP10 MSTORE SWAP1 DUP2 PUSH1 0x0 EQ PUSH2 0x1D77 JUMPI POP PUSH1 0x1 EQ PUSH2 0x1D38 JUMPI JUMPDEST POP POP POP PUSH2 0x1D36 SWAP3 POP SUB DUP4 PUSH2 0x1CC4 JUMP JUMPDEST JUMP JUMPDEST PUSH1 0x0 SWAP1 DUP2 MSTORE DUP6 DUP2 KECCAK256 SWAP6 SWAP4 POP SWAP2 SWAP1 JUMPDEST DUP2 DUP4 LT PUSH2 0x1D5F JUMPI POP POP PUSH2 0x1D36 SWAP4 POP DUP3 ADD ADD CODESIZE DUP1 DUP1 PUSH2 0x1D27 JUMP JUMPDEST DUP6 SLOAD DUP9 DUP5 ADD DUP6 ADD MSTORE SWAP5 DUP6 ADD SWAP5 DUP8 SWAP5 POP SWAP2 DUP4 ADD SWAP2 PUSH2 0x1D46 JUMP JUMPDEST SWAP3 POP POP POP PUSH2 0x1D36 SWAP5 SWAP3 POP PUSH1 0xFF NOT AND DUP3 DUP5 ADD MSTORE ISZERO ISZERO PUSH1 0x5 SHL DUP3 ADD ADD CODESIZE DUP1 DUP1 PUSH2 0x1D27 JUMP JUMPDEST PUSH4 0x4E487B71 PUSH1 0xE0 SHL DUP6 MSTORE PUSH1 0x22 PUSH1 0x4 MSTORE PUSH1 0x24 DUP6 REVERT JUMPDEST SWAP2 PUSH1 0x7F AND SWAP2 PUSH2 0x1D01 JUMP JUMPDEST PUSH1 0x0 JUMPDEST DUP4 DUP2 LT PUSH2 0x1DCA JUMPI POP POP PUSH1 0x0 SWAP2 ADD MSTORE JUMP JUMPDEST DUP2 DUP2 ADD MLOAD DUP4 DUP3 ADD MSTORE PUSH1 0x20 ADD PUSH2 0x1DBA JUMP JUMPDEST SWAP1 PUSH1 0x20 SWAP2 PUSH2 0x1DF3 DUP2 MLOAD DUP1 SWAP3 DUP2 DUP6 MSTORE DUP6 DUP1 DUP7 ADD SWAP2 ADD PUSH2 0x1DB7 JUMP JUMPDEST PUSH1 0x1F ADD PUSH1 0x1F NOT AND ADD ADD SWAP1 JUMP JUMPDEST PUSH1 0x4 CALLDATALOAD SWAP1 PUSH1 0x1 PUSH1 0x1 PUSH1 0xA0 SHL SUB DUP3 AND DUP3 SUB PUSH2 0x1E15 JUMPI JUMP JUMPDEST PUSH1 0x0 DUP1 REVERT JUMPDEST PUSH1 0x24 CALLDATALOAD SWAP1 PUSH1 0x1 PUSH1 0x1 PUSH1 0xA0 SHL SUB DUP3 AND DUP3 SUB PUSH2 0x1E15 JUMPI JUMP JUMPDEST DUP2 PUSH1 0x1F DUP3 ADD SLT ISZERO PUSH2 0x1E15 JUMPI DUP1 CALLDATALOAD SWAP1 PUSH8 0xFFFFFFFFFFFFFFFF DUP3 GT PUSH2 0x1C92 JUMPI PUSH1 0x40 MLOAD SWAP3 PUSH2 0x1E65 PUSH1 0x1F DUP5 ADD PUSH1 0x1F NOT AND PUSH1 0x20 ADD DUP6 PUSH2 0x1CC4 JUMP JUMPDEST DUP3 DUP5 MSTORE PUSH1 0x20 DUP4 DUP4 ADD ADD GT PUSH2 0x1E15 JUMPI DUP2 PUSH1 0x0 SWAP3 PUSH1 0x20 DUP1 SWAP4 ADD DUP4 DUP7 ADD CALLDATACOPY DUP4 ADD ADD MSTORE SWAP1 JUMP JUMPDEST SWAP1 DUP2 MLOAD DUP2 MSTORE PUSH1 0x1 DUP1 PUSH1 0xA0 SHL SUB SWAP2 DUP3 PUSH1 0x20 DUP3 ADD MLOAD AND PUSH1 0x20 DUP4 ADD MSTORE PUSH2 0x1EF8 PUSH2 0x1EE6 PUSH2 0x1ED4 PUSH2 0x1EC2 PUSH1 0x40 DUP6 ADD MLOAD PUSH2 0x260 DUP1 PUSH1 0x40 DUP10 ADD MSTORE DUP8 ADD SWAP1 PUSH2 0x1DDA JUMP JUMPDEST PUSH1 0x60 DUP6 ADD MLOAD DUP7 DUP3 SUB PUSH1 0x60 DUP9 ADD MSTORE PUSH2 0x1DDA JUMP JUMPDEST PUSH1 0x80 DUP5 ADD MLOAD DUP6 DUP3 SUB PUSH1 0x80 DUP8 ADD MSTORE PUSH2 0x1DDA JUMP JUMPDEST PUSH1 0xA0 DUP4 ADD MLOAD DUP5 DUP3 SUB PUSH1 0xA0 DUP7 ADD MSTORE PUSH2 0x1DDA JUMP JUMPDEST SWAP3 PUSH1 0xC0 DUP3 ADD MLOAD PUSH1 0xC0 DUP5 ADD MSTORE PUSH1 0xE0 DUP3 ADD MLOAD ISZERO ISZERO PUSH1 0xE0 DUP5 ADD MSTORE PUSH2 0x100 DUP1 DUP4 ADD MLOAD ISZERO ISZERO SWAP1 DUP5 ADD MSTORE PUSH2 0x120 DUP1 DUP4 ADD MLOAD SWAP1 DUP5 ADD MSTORE PUSH2 0x140 DUP1 DUP4 ADD MLOAD SWAP1 DUP5 ADD MSTORE PUSH2 0x160 DUP1 DUP4 ADD MLOAD SWAP1 DUP5 ADD MSTORE PUSH2 0x180 DUP1 DUP4 ADD MLOAD SWAP1 DUP5 ADD MSTORE PUSH2 0x1A0 DUP1 DUP4 ADD MLOAD SWAP1 DUP5 ADD MSTORE PUSH2 0x1C0 DUP1 DUP4 ADD MLOAD SWAP1 DUP5 ADD MSTORE PUSH2 0x1E0 PUSH1 0xFF DUP2 DUP5 ADD MLOAD AND SWAP1 DUP5 ADD MSTORE PUSH2 0x200 DUP1 DUP4 ADD MLOAD ISZERO ISZERO SWAP1 DUP5 ADD MSTORE PUSH2 0x220 DUP1 DUP4 ADD MLOAD SWAP1 DUP5 ADD MSTORE PUSH2 0x240 DUP1 SWAP3 ADD MLOAD AND SWAP2 ADD MSTORE SWAP1 JUMP JUMPDEST PUSH1 0x20 DUP1 DUP3 ADD SWAP1 DUP1 DUP4 MSTORE DUP4 MLOAD DUP1 SWAP3 MSTORE PUSH1 0x40 DUP4 ADD SWAP3 DUP2 PUSH1 0x40 DUP5 PUSH1 0x5 SHL DUP4 ADD ADD SWAP6 ADD SWAP4 PUSH1 0x0 SWAP2 JUMPDEST DUP5 DUP4 LT PUSH2 0x1FC6 JUMPI POP POP POP POP POP POP SWAP1 JUMP JUMPDEST SWAP1 SWAP2 SWAP3 SWAP4 SWAP5 SWAP6 DUP5 DUP1 PUSH2 0x1FE4 PUSH1 0x1 SWAP4 PUSH1 0x3F NOT DUP7 DUP3 SUB ADD DUP8 MSTORE DUP11 MLOAD PUSH2 0x1E87 JUMP JUMPDEST SWAP9 ADD SWAP4 ADD SWAP4 ADD SWAP2 SWAP5 SWAP4 SWAP3 SWAP1 PUSH2 0x1FB6 JUMP JUMPDEST DUP1 SLOAD DUP3 LT ISZERO PUSH2 0x2010 JUMPI PUSH1 0x0 MSTORE PUSH1 0x20 PUSH1 0x0 KECCAK256 SWAP1 PUSH1 0x1 SHL ADD SWAP1 PUSH1 0x0 SWAP1 JUMP JUMPDEST PUSH4 0x4E487B71 PUSH1 0xE0 SHL PUSH1 0x0 MSTORE PUSH1 0x32 PUSH1 0x4 MSTORE PUSH1 0x24 PUSH1 0x0 REVERT JUMPDEST PUSH1 0x0 SLOAD PUSH1 0x1 PUSH1 0x1 PUSH1 0xA0 SHL SUB AND CALLER SUB PUSH2 0x203A JUMPI JUMP JUMPDEST PUSH1 0x40 MLOAD PUSH4 0x118CDAA7 PUSH1 0xE0 SHL DUP2 MSTORE CALLER PUSH1 0x4 DUP3 ADD MSTORE PUSH1 0x24 SWAP1 REVERT JUMPDEST PUSH1 0xFF AND PUSH1 0x4D DUP2 GT PUSH2 0x2063 JUMPI PUSH1 0xA EXP SWAP1 JUMP JUMPDEST PUSH4 0x4E487B71 PUSH1 0xE0 SHL PUSH1 0x0 MSTORE PUSH1 0x11 PUSH1 0x4 MSTORE PUSH1 0x24 PUSH1 0x0 REVERT JUMPDEST DUP2 ISZERO PUSH2 0x2083 JUMPI DIV SWAP1 JUMP JUMPDEST PUSH4 0x4E487B71 PUSH1 0xE0 SHL PUSH1 0x0 MSTORE PUSH1 0x12 PUSH1 0x4 MSTORE PUSH1 0x24 PUSH1 0x0 REVERT JUMPDEST ISZERO PUSH2 0x20A0 JUMPI JUMP JUMPDEST PUSH1 0x40 MLOAD PUSH3 0x461BCD PUSH1 0xE5 SHL DUP2 MSTORE PUSH1 0x20 PUSH1 0x4 DUP3 ADD MSTORE PUSH1 0x10 PUSH1 0x24 DUP3 ADD MSTORE PUSH16 0x2737BA1030902220A79036B2B6B132B9 PUSH1 0x81 SHL PUSH1 0x44 DUP3 ADD MSTORE PUSH1 0x64 SWAP1 REVERT JUMPDEST PUSH1 0x2 PUSH1 0x1 SLOAD EQ PUSH2 0x20E9 JUMPI PUSH1 0x2 PUSH1 0x1 SSTORE JUMP JUMPDEST PUSH1 0x40 MLOAD PUSH4 0x3EE5AEB5 PUSH1 0xE0 SHL DUP2 MSTORE PUSH1 0x4 SWAP1 REVERT JUMPDEST ISZERO PUSH2 0x2102 JUMPI JUMP JUMPDEST PUSH1 0x40 MLOAD PUSH3 0x461BCD PUSH1 0xE5 SHL DUP2 MSTORE PUSH1 0x20 PUSH1 0x4 DUP3 ADD MSTORE PUSH1 0x15 PUSH1 0x24 DUP3 ADD MSTORE PUSH21 0x125B9D985B1A59081C1C99591A58DD1A5BDB881251 PUSH1 0x5A SHL PUSH1 0x44 DUP3 ADD MSTORE PUSH1 0x64 SWAP1 REVERT JUMPDEST ISZERO PUSH2 0x2146 JUMPI JUMP JUMPDEST PUSH1 0x40 MLOAD PUSH3 0x461BCD PUSH1 0xE5 SHL DUP2 MSTORE PUSH1 0x20 PUSH1 0x4 DUP3 ADD MSTORE PUSH1 0x18 PUSH1 0x24 DUP3 ADD MSTORE PUSH32 0x50726564696374696F6E206973206E6F74206163746976650000000000000000 PUSH1 0x44 DUP3 ADD MSTORE PUSH1 0x64 SWAP1 REVERT JUMPDEST DUP1 PUSH1 0x0 MSTORE PUSH1 0x4 PUSH1 0x20 MSTORE PUSH1 0x40 PUSH1 0x0 KECCAK256 PUSH1 0x8 DUP2 ADD SLOAD SWAP1 DUP2 PUSH2 0x21A9 JUMPI POP POP POP JUMP JUMPDEST PUSH1 0x9 DUP2 ADD SLOAD PUSH1 0x64 DUP2 MUL DUP2 DUP2 DIV PUSH1 0x64 EQ DUP3 ISZERO OR ISZERO PUSH2 0x2063 JUMPI PUSH2 0x21CC DUP5 PUSH1 0x46 SWAP3 PUSH2 0x2079 JUMP JUMPDEST LT ISZERO PUSH2 0x21D9 JUMPI JUMPDEST POP POP POP POP JUMP JUMPDEST PUSH32 0xFF2BF007EA94C88312B7AA52F9C827197917A6FD36ABCE6D4B727A14840FED6C SWAP3 PUSH1 0x7 PUSH1 0x40 SWAP4 ADD PUSH2 0x100 PUSH2 0xFFFF NOT DUP3 SLOAD AND OR SWAP1 SSTORE DUP3 MLOAD SWAP2 DUP3 MSTORE PUSH1 0x20 DUP3 ADD MSTORE LOG2 CODESIZE DUP1 DUP1 DUP1 PUSH2 0x21D3 JUMP JUMPDEST PUSH1 0x40 MLOAD SWAP1 PUSH2 0x222F DUP3 PUSH2 0x1C75 JUMP JUMPDEST DUP2 PUSH2 0x240 PUSH1 0x0 SWAP2 DUP3 DUP2 MSTORE DUP3 PUSH1 0x20 DUP3 ADD MSTORE PUSH1 0x60 PUSH1 0x40 DUP3 ADD MSTORE PUSH1 0x60 DUP1 DUP3 ADD MSTORE PUSH1 0x60 PUSH1 0x80 DUP3 ADD MSTORE PUSH1 0x60 PUSH1 0xA0 DUP3 ADD MSTORE DUP3 PUSH1 0xC0 DUP3 ADD MSTORE DUP3 PUSH1 0xE0 DUP3 ADD MSTORE DUP3 PUSH2 0x100 DUP3 ADD MSTORE DUP3 PUSH2 0x120 DUP3 ADD MSTORE DUP3 PUSH2 0x140 DUP3 ADD MSTORE DUP3 PUSH2 0x160 DUP3 ADD MSTORE DUP3 PUSH2 0x180 DUP3 ADD MSTORE DUP3 PUSH2 0x1A0 DUP3 ADD MSTORE DUP3 PUSH2 0x1C0 DUP3 ADD MSTORE DUP3 PUSH2 0x1E0 DUP3 ADD MSTORE DUP3 PUSH2 0x200 DUP3 ADD MSTORE DUP3 PUSH2 0x220 DUP3 ADD MSTORE ADD MSTORE JUMP JUMPDEST PUSH8 0xFFFFFFFFFFFFFFFF DUP2 GT PUSH2 0x1C92 JUMPI PUSH1 0x5 SHL PUSH1 0x20 ADD SWAP1 JUMP JUMPDEST PUSH1 0x0 NOT DUP2 EQ PUSH2 0x2063 JUMPI PUSH1 0x1 ADD SWAP1 JUMP JUMPDEST SWAP1 PUSH2 0x22E1 DUP3 PUSH2 0x22B0 JUMP JUMPDEST PUSH2 0x22EE PUSH1 0x40 MLOAD SWAP2 DUP3 PUSH2 0x1CC4 JUMP JUMPDEST DUP3 DUP2 MSTORE DUP1 SWAP3 PUSH2 0x22FF PUSH1 0x1F NOT SWAP2 PUSH2 0x22B0 JUMP JUMPDEST ADD SWAP1 PUSH1 0x0 JUMPDEST DUP3 DUP2 LT PUSH2 0x2310 JUMPI POP POP POP JUMP JUMPDEST PUSH1 0x20 SWAP1 PUSH2 0x231B PUSH2 0x2222 JUMP JUMPDEST DUP3 DUP3 DUP6 ADD ADD MSTORE ADD PUSH2 0x2304 JUMP JUMPDEST DUP1 MLOAD DUP3 LT ISZERO PUSH2 0x2010 JUMPI PUSH1 0x20 SWAP2 PUSH1 0x5 SHL ADD ADD SWAP1 JUMP JUMPDEST ISZERO PUSH2 0x2342 JUMPI JUMP JUMPDEST PUSH1 0x40 MLOAD PUSH3 0x461BCD PUSH1 0xE5 SHL DUP2 MSTORE PUSH1 0x20 PUSH1 0x4 DUP3 ADD MSTORE PUSH1 0xF PUSH1 0x24 DUP3 ADD MSTORE PUSH15 0x496E76616C69642061646472657373 PUSH1 0x88 SHL PUSH1 0x44 DUP3 ADD MSTORE PUSH1 0x64 SWAP1 REVERT INVALID LOG2 PUSH5 0x6970667358 0x22 SLT KECCAK256 SWAP12 CODECOPY PUSH4 0x29139C4 PUSH4 0x23B606A4 SELFDESTRUCT 0xC4 0xE3 PUSH0 BLOCKHASH MLOAD SWAP4 SHL BYTE BLOCKHASH DUP6 LT TIMESTAMP EXTCODEHASH CALLDATALOAD SWAP15 SUB 0xBB 0xB7 ADDRESS PUSH5 0x736F6C6343 STOP ADDMOD EQ STOP CALLER "},"methodIdentifiers":{"FXRP_TOKEN_ADDRESS()":"02796ed8","MAX_VOTING_PERIOD()":"a64e024a","MIN_STAKE()":"cb1c2b5c","MIN_VOTING_PERIOD()":"215809ca","VOTING_THRESHOLD()":"94abb8cd","addMember(address)":"ca6d56dc","checkFXRPAllowance(address,uint256)":"12a25089","createPrediction(string,string,string,string,uint256,uint256)":"b306c5be","finalizePrediction(uint256)":"af96f37b","ftsoContracts(string)":"9530c8b2","getActivePredictions()":"a9d6921b","getApprovedPredictions()":"54bc823d","getFXRPBalance(address)":"3142208f","getLatestAssetPrice(string)":"213bb75a","getPrediction(uint256)":"fe83bece","getPredictionCount()":"01668096","getPredictionVotes(uint256)":"a33903e7","getVotingStats(uint256)":"e58d4527","hasUserVoted(uint256,address)":"dc296ae1","hasVoted(uint256,address)":"43859632","isMember(address)":"a230c524","nextPredictionId()":"d8d9292e","owner()":"8da5cb5b","predictions(uint256)":"004fbbb0","removeMember(address)":"0b1ca49a","renounceOwnership()":"715018a6","setFTSOContract(string,address)":"647b2916","transferOwnership(address)":"f2fde38b","vote(uint256,bool)":"c9d27afe","votes(uint256,uint256)":"c6e36a32","withdrawStake(uint256)":"25d5971f"}}}}}